{
	"contracts/BondManager.sol": {
		"BondManager": {
			"abi": [
				{
					"inputs": [
						{
							"internalType": "address",
							"name": "_libAddressManager",
							"type": "address"
						}
					],
					"stateMutability": "nonpayable",
					"type": "constructor"
				},
				{
					"inputs": [
						{
							"internalType": "address",
							"name": "_who",
							"type": "address"
						}
					],
					"name": "isCollateralized",
					"outputs": [
						{
							"internalType": "bool",
							"name": "",
							"type": "bool"
						}
					],
					"stateMutability": "view",
					"type": "function"
				},
				{
					"inputs": [
						{
							"internalType": "uint256",
							"name": "_chainId",
							"type": "uint256"
						},
						{
							"internalType": "address",
							"name": "_who",
							"type": "address"
						},
						{
							"internalType": "address",
							"name": "_prop",
							"type": "address"
						}
					],
					"name": "isCollateralizedByChainId",
					"outputs": [
						{
							"internalType": "bool",
							"name": "",
							"type": "bool"
						}
					],
					"stateMutability": "view",
					"type": "function"
				},
				{
					"inputs": [],
					"name": "libAddressManager",
					"outputs": [
						{
							"internalType": "contract Lib_AddressManager",
							"name": "",
							"type": "address"
						}
					],
					"stateMutability": "view",
					"type": "function"
				},
				{
					"inputs": [],
					"name": "owner",
					"outputs": [
						{
							"internalType": "address",
							"name": "",
							"type": "address"
						}
					],
					"stateMutability": "view",
					"type": "function"
				},
				{
					"inputs": [
						{
							"internalType": "uint256",
							"name": "_chainId",
							"type": "uint256"
						},
						{
							"internalType": "address",
							"name": "_sequencer",
							"type": "address"
						},
						{
							"internalType": "address",
							"name": "_proposer",
							"type": "address"
						}
					],
					"name": "registerSequencerByChainId",
					"outputs": [],
					"stateMutability": "nonpayable",
					"type": "function"
				},
				{
					"inputs": [
						{
							"internalType": "string",
							"name": "_name",
							"type": "string"
						}
					],
					"name": "resolve",
					"outputs": [
						{
							"internalType": "address",
							"name": "",
							"type": "address"
						}
					],
					"stateMutability": "view",
					"type": "function"
				},
				{
					"inputs": [
						{
							"internalType": "address",
							"name": "newOwner",
							"type": "address"
						}
					],
					"name": "transferOwnership",
					"outputs": [],
					"stateMutability": "nonpayable",
					"type": "function"
				}
			],
			"devdoc": {
				"details": "This contract allows the \"OVM_Proposer\" to submit state root batches and  includes functionality restricted to the contract owner. Runtime target: EVM",
				"kind": "dev",
				"methods": {
					"constructor": {
						"params": {
							"_libAddressManager": "Address of the Address Manager."
						}
					},
					"isCollateralized(address)": {
						"params": {
							"_who": "Address to check."
						},
						"returns": {
							"_0": "true if the address is properly collateralized, false otherwise."
						}
					},
					"isCollateralizedByChainId(uint256,address,address)": {
						"params": {
							"_chainId": "Chain ID to check.",
							"_prop": "Proposer's address.",
							"_who": "Address to check."
						},
						"returns": {
							"_0": "true if the address is collateralized."
						}
					},
					"registerSequencerByChainId(uint256,address,address)": {
						"params": {
							"_chainId": "Chain ID to register.",
							"_proposer": "Proposer's address.",
							"_sequencer": "Sequencer's address."
						}
					},
					"resolve(string)": {
						"params": {
							"_name": "Name to resolve an address for."
						},
						"returns": {
							"_0": "Address associated with the given name."
						}
					}
				},
				"title": "BondManager",
				"version": 1
			},
			"evm": {
				"assembly": "    /* \"contracts/BondManager.sol\":420:2695  contract BondManager is IBondManager, Lib_AddressResolver {... */\n  mstore(0x40, 0x80)\n    /* \"contracts/BondManager.sol\":642:798  constructor(address _libAddressManager) Lib_AddressResolver(_libAddressManager) {... */\n  callvalue\n  dup1\n  iszero\n  tag_1\n  jumpi\n  0x00\n  dup1\n  revert\ntag_1:\n  pop\n  mload(0x40)\n  sub(codesize, bytecodeSize)\n  dup1\n  bytecodeSize\n  dup4\n  codecopy\n  dup2\n  dup2\n  add\n  0x40\n  mstore\n  dup2\n  add\n  swap1\n  tag_2\n  swap2\n  swap1\n  tag_3\n  jump\t// in\ntag_2:\n    /* \"contracts/BondManager.sol\":702:720  _libAddressManager */\n  dup1\n    /* \"contracts/Lib_AddressResolver.sol\":572:590  _libAddressManager */\n  dup1\n    /* \"contracts/Lib_AddressResolver.sol\":533:550  libAddressManager */\n  0x00\n  dup1\n    /* \"contracts/Lib_AddressResolver.sol\":533:591  libAddressManager = Lib_AddressManager(_libAddressManager) */\n  0x0100\n  exp\n  dup2\n  sload\n  dup2\n  0xffffffffffffffffffffffffffffffffffffffff\n  mul\n  not\n  and\n  swap1\n  dup4\n  0xffffffffffffffffffffffffffffffffffffffff\n  and\n  mul\n  or\n  swap1\n  sstore\n  pop\n    /* \"contracts/Lib_AddressResolver.sol\":483:598  constructor(address _libAddressManager) {... */\n  pop\n    /* \"contracts/BondManager.sol\":740:750  msg.sender */\n  caller\n    /* \"contracts/BondManager.sol\":732:737  owner */\n  0x01\n  0x00\n    /* \"contracts/BondManager.sol\":732:750  owner = msg.sender */\n  0x0100\n  exp\n  dup2\n  sload\n  dup2\n  0xffffffffffffffffffffffffffffffffffffffff\n  mul\n  not\n  and\n  swap1\n  dup4\n  0xffffffffffffffffffffffffffffffffffffffff\n  and\n  mul\n  or\n  swap1\n  sstore\n  pop\n    /* \"contracts/BondManager.sol\":642:798  constructor(address _libAddressManager) Lib_AddressResolver(_libAddressManager) {... */\n  pop\n    /* \"contracts/BondManager.sol\":420:2695  contract BondManager is IBondManager, Lib_AddressResolver {... */\n  jump(tag_8)\n    /* \"#utility.yul\":88:205   */\ntag_10:\n    /* \"#utility.yul\":197:198   */\n  0x00\n    /* \"#utility.yul\":194:195   */\n  dup1\n    /* \"#utility.yul\":187:199   */\n  revert\n    /* \"#utility.yul\":334:460   */\ntag_12:\n    /* \"#utility.yul\":371:378   */\n  0x00\n    /* \"#utility.yul\":411:453   */\n  0xffffffffffffffffffffffffffffffffffffffff\n    /* \"#utility.yul\":404:409   */\n  dup3\n    /* \"#utility.yul\":400:454   */\n  and\n    /* \"#utility.yul\":389:454   */\n  swap1\n  pop\n    /* \"#utility.yul\":334:460   */\n  swap2\n  swap1\n  pop\n  jump\t// out\n    /* \"#utility.yul\":466:562   */\ntag_13:\n    /* \"#utility.yul\":503:510   */\n  0x00\n    /* \"#utility.yul\":532:556   */\n  tag_22\n    /* \"#utility.yul\":550:555   */\n  dup3\n    /* \"#utility.yul\":532:556   */\n  tag_12\n  jump\t// in\ntag_22:\n    /* \"#utility.yul\":521:556   */\n  swap1\n  pop\n    /* \"#utility.yul\":466:562   */\n  swap2\n  swap1\n  pop\n  jump\t// out\n    /* \"#utility.yul\":568:690   */\ntag_14:\n    /* \"#utility.yul\":641:665   */\n  tag_24\n    /* \"#utility.yul\":659:664   */\n  dup2\n    /* \"#utility.yul\":641:665   */\n  tag_13\n  jump\t// in\ntag_24:\n    /* \"#utility.yul\":634:639   */\n  dup2\n    /* \"#utility.yul\":631:666   */\n  eq\n    /* \"#utility.yul\":621:684   */\n  tag_25\n  jumpi\n    /* \"#utility.yul\":680:681   */\n  0x00\n    /* \"#utility.yul\":677:678   */\n  dup1\n    /* \"#utility.yul\":670:682   */\n  revert\n    /* \"#utility.yul\":621:684   */\ntag_25:\n    /* \"#utility.yul\":568:690   */\n  pop\n  jump\t// out\n    /* \"#utility.yul\":696:839   */\ntag_15:\n    /* \"#utility.yul\":753:758   */\n  0x00\n    /* \"#utility.yul\":784:790   */\n  dup2\n    /* \"#utility.yul\":778:791   */\n  mload\n    /* \"#utility.yul\":769:791   */\n  swap1\n  pop\n    /* \"#utility.yul\":800:833   */\n  tag_27\n    /* \"#utility.yul\":827:832   */\n  dup2\n    /* \"#utility.yul\":800:833   */\n  tag_14\n  jump\t// in\ntag_27:\n    /* \"#utility.yul\":696:839   */\n  swap3\n  swap2\n  pop\n  pop\n  jump\t// out\n    /* \"#utility.yul\":845:1196   */\ntag_3:\n    /* \"#utility.yul\":915:921   */\n  0x00\n    /* \"#utility.yul\":964:966   */\n  0x20\n    /* \"#utility.yul\":952:961   */\n  dup3\n    /* \"#utility.yul\":943:950   */\n  dup5\n    /* \"#utility.yul\":939:962   */\n  sub\n    /* \"#utility.yul\":935:967   */\n  slt\n    /* \"#utility.yul\":932:1051   */\n  iszero\n  tag_29\n  jumpi\n    /* \"#utility.yul\":970:1049   */\n  tag_30\n  tag_10\n  jump\t// in\ntag_30:\n    /* \"#utility.yul\":932:1051   */\ntag_29:\n    /* \"#utility.yul\":1090:1091   */\n  0x00\n    /* \"#utility.yul\":1115:1179   */\n  tag_31\n    /* \"#utility.yul\":1171:1178   */\n  dup5\n    /* \"#utility.yul\":1162:1168   */\n  dup3\n    /* \"#utility.yul\":1151:1160   */\n  dup6\n    /* \"#utility.yul\":1147:1169   */\n  add\n    /* \"#utility.yul\":1115:1179   */\n  tag_15\n  jump\t// in\ntag_31:\n    /* \"#utility.yul\":1105:1179   */\n  swap2\n  pop\n    /* \"#utility.yul\":1061:1189   */\n  pop\n    /* \"#utility.yul\":845:1196   */\n  swap3\n  swap2\n  pop\n  pop\n  jump\t// out\n    /* \"contracts/BondManager.sol\":420:2695  contract BondManager is IBondManager, Lib_AddressResolver {... */\ntag_8:\n  dataSize(sub_0)\n  dup1\n  dataOffset(sub_0)\n  0x00\n  codecopy\n  0x00\n  return\nstop\n\nsub_0: assembly {\n        /* \"contracts/BondManager.sol\":420:2695  contract BondManager is IBondManager, Lib_AddressResolver {... */\n      mstore(0x40, 0x80)\n      callvalue\n      dup1\n      iszero\n      tag_1\n      jumpi\n      0x00\n      dup1\n      revert\n    tag_1:\n      pop\n      jumpi(tag_2, lt(calldatasize, 0x04))\n      shr(0xe0, calldataload(0x00))\n      dup1\n      0x8da5cb5b\n      gt\n      tag_10\n      jumpi\n      dup1\n      0x8da5cb5b\n      eq\n      tag_6\n      jumpi\n      dup1\n      0xcc039d6e\n      eq\n      tag_7\n      jumpi\n      dup1\n      0xf2fde38b\n      eq\n      tag_8\n      jumpi\n      dup1\n      0xf3b96f1c\n      eq\n      tag_9\n      jumpi\n      jump(tag_2)\n    tag_10:\n      dup1\n      0x02ad4d2a\n      eq\n      tag_3\n      jumpi\n      dup1\n      0x299ca478\n      eq\n      tag_4\n      jumpi\n      dup1\n      0x461a4478\n      eq\n      tag_5\n      jumpi\n    tag_2:\n      0x00\n      dup1\n      revert\n        /* \"contracts/BondManager.sol\":1500:1691  function isCollateralized(address _who) public view returns (bool) {... */\n    tag_3:\n      tag_11\n      0x04\n      dup1\n      calldatasize\n      sub\n      dup2\n      add\n      swap1\n      tag_12\n      swap2\n      swap1\n      tag_13\n      jump\t// in\n    tag_12:\n      tag_14\n      jump\t// in\n    tag_11:\n      mload(0x40)\n      tag_15\n      swap2\n      swap1\n      tag_16\n      jump\t// in\n    tag_15:\n      mload(0x40)\n      dup1\n      swap2\n      sub\n      swap1\n      return\n        /* \"contracts/Lib_AddressResolver.sol\":284:327  Lib_AddressManager public libAddressManager */\n    tag_4:\n      tag_17\n      tag_18\n      jump\t// in\n    tag_17:\n      mload(0x40)\n      tag_19\n      swap2\n      swap1\n      tag_20\n      jump\t// in\n    tag_19:\n      mload(0x40)\n      dup1\n      swap2\n      sub\n      swap1\n      return\n        /* \"contracts/Lib_AddressResolver.sol\":865:992  function resolve(string memory _name) public view returns (address) {... */\n    tag_5:\n      tag_21\n      0x04\n      dup1\n      calldatasize\n      sub\n      dup2\n      add\n      swap1\n      tag_22\n      swap2\n      swap1\n      tag_23\n      jump\t// in\n    tag_22:\n      tag_24\n      jump\t// in\n    tag_21:\n      mload(0x40)\n      tag_25\n      swap2\n      swap1\n      tag_26\n      jump\t// in\n    tag_25:\n      mload(0x40)\n      dup1\n      swap2\n      sub\n      swap1\n      return\n        /* \"contracts/BondManager.sol\":534:554  address public owner */\n    tag_6:\n      tag_27\n      tag_28\n      jump\t// in\n    tag_27:\n      mload(0x40)\n      tag_29\n      swap2\n      swap1\n      tag_26\n      jump\t// in\n    tag_29:\n      mload(0x40)\n      dup1\n      swap2\n      sub\n      swap1\n      return\n        /* \"contracts/BondManager.sol\":2537:2693  function registerSequencerByChainId(... */\n    tag_7:\n      tag_30\n      0x04\n      dup1\n      calldatasize\n      sub\n      dup2\n      add\n      swap1\n      tag_31\n      swap2\n      swap1\n      tag_32\n      jump\t// in\n    tag_31:\n      tag_33\n      jump\t// in\n    tag_30:\n      stop\n        /* \"contracts/BondManager.sol\":1064:1246  function transferOwnership(address newOwner) public onlyOwner {... */\n    tag_8:\n      tag_34\n      0x04\n      dup1\n      calldatasize\n      sub\n      dup2\n      add\n      swap1\n      tag_35\n      swap2\n      swap1\n      tag_13\n      jump\t// in\n    tag_35:\n      tag_36\n      jump\t// in\n    tag_34:\n      stop\n        /* \"contracts/BondManager.sol\":2013:2275  function isCollateralizedByChainId(... */\n    tag_9:\n      tag_37\n      0x04\n      dup1\n      calldatasize\n      sub\n      dup2\n      add\n      swap1\n      tag_38\n      swap2\n      swap1\n      tag_32\n      jump\t// in\n    tag_38:\n      tag_39\n      jump\t// in\n    tag_37:\n      mload(0x40)\n      tag_40\n      swap2\n      swap1\n      tag_16\n      jump\t// in\n    tag_40:\n      mload(0x40)\n      dup1\n      swap2\n      sub\n      swap1\n      return\n        /* \"contracts/BondManager.sol\":1500:1691  function isCollateralized(address _who) public view returns (bool) {... */\n    tag_14:\n        /* \"contracts/BondManager.sol\":1561:1565  bool */\n      0x00\n        /* \"contracts/BondManager.sol\":1661:1684  resolve(\"OVM_Proposer\") */\n      tag_42\n      mload(0x40)\n      dup1\n      0x40\n      add\n      0x40\n      mstore\n      dup1\n      0x0c\n      dup2\n      mstore\n      0x20\n      add\n      0x4f564d5f50726f706f7365720000000000000000000000000000000000000000\n      dup2\n      mstore\n      pop\n        /* \"contracts/BondManager.sol\":1661:1668  resolve */\n      tag_24\n        /* \"contracts/BondManager.sol\":1661:1684  resolve(\"OVM_Proposer\") */\n      jump\t// in\n    tag_42:\n        /* \"contracts/BondManager.sol\":1653:1684  _who == resolve(\"OVM_Proposer\") */\n      0xffffffffffffffffffffffffffffffffffffffff\n      and\n        /* \"contracts/BondManager.sol\":1653:1657  _who */\n      dup3\n        /* \"contracts/BondManager.sol\":1653:1684  _who == resolve(\"OVM_Proposer\") */\n      0xffffffffffffffffffffffffffffffffffffffff\n      and\n      eq\n        /* \"contracts/BondManager.sol\":1646:1684  return _who == resolve(\"OVM_Proposer\") */\n      swap1\n      pop\n        /* \"contracts/BondManager.sol\":1500:1691  function isCollateralized(address _who) public view returns (bool) {... */\n      swap2\n      swap1\n      pop\n      jump\t// out\n        /* \"contracts/Lib_AddressResolver.sol\":284:327  Lib_AddressManager public libAddressManager */\n    tag_18:\n      0x00\n      dup1\n      sload\n      swap1\n      0x0100\n      exp\n      swap1\n      div\n      0xffffffffffffffffffffffffffffffffffffffff\n      and\n      dup2\n      jump\t// out\n        /* \"contracts/Lib_AddressResolver.sol\":865:992  function resolve(string memory _name) public view returns (address) {... */\n    tag_24:\n        /* \"contracts/Lib_AddressResolver.sol\":924:931  address */\n      0x00\n        /* \"contracts/Lib_AddressResolver.sol\":950:967  libAddressManager */\n      dup1\n      0x00\n      swap1\n      sload\n      swap1\n      0x0100\n      exp\n      swap1\n      div\n      0xffffffffffffffffffffffffffffffffffffffff\n      and\n        /* \"contracts/Lib_AddressResolver.sol\":950:978  libAddressManager.getAddress */\n      0xffffffffffffffffffffffffffffffffffffffff\n      and\n      0xbf40fac1\n        /* \"contracts/Lib_AddressResolver.sol\":979:984  _name */\n      dup4\n        /* \"contracts/Lib_AddressResolver.sol\":950:985  libAddressManager.getAddress(_name) */\n      mload(0x40)\n      dup3\n      0xffffffff\n      and\n      0xe0\n      shl\n      dup2\n      mstore\n      0x04\n      add\n      tag_44\n      swap2\n      swap1\n      tag_45\n      jump\t// in\n    tag_44:\n      0x20\n      mload(0x40)\n      dup1\n      dup4\n      sub\n      dup2\n      dup7\n      gas\n      staticcall\n      iszero\n      dup1\n      iszero\n      tag_47\n      jumpi\n      returndatasize\n      0x00\n      dup1\n      returndatacopy\n      revert(0x00, returndatasize)\n    tag_47:\n      pop\n      pop\n      pop\n      pop\n      mload(0x40)\n      returndatasize\n      not(0x1f)\n      0x1f\n      dup3\n      add\n      and\n      dup3\n      add\n      dup1\n      0x40\n      mstore\n      pop\n      dup2\n      add\n      swap1\n      tag_48\n      swap2\n      swap1\n      tag_49\n      jump\t// in\n    tag_48:\n        /* \"contracts/Lib_AddressResolver.sol\":943:985  return libAddressManager.getAddress(_name) */\n      swap1\n      pop\n        /* \"contracts/Lib_AddressResolver.sol\":865:992  function resolve(string memory _name) public view returns (address) {... */\n      swap2\n      swap1\n      pop\n      jump\t// out\n        /* \"contracts/BondManager.sol\":534:554  address public owner */\n    tag_28:\n      0x01\n      0x00\n      swap1\n      sload\n      swap1\n      0x0100\n      exp\n      swap1\n      div\n      0xffffffffffffffffffffffffffffffffffffffff\n      and\n      dup2\n      jump\t// out\n        /* \"contracts/BondManager.sol\":2537:2693  function registerSequencerByChainId(... */\n    tag_33:\n        /* \"contracts/BondManager.sol\":910:915  owner */\n      0x01\n      0x00\n      swap1\n      sload\n      swap1\n      0x0100\n      exp\n      swap1\n      div\n      0xffffffffffffffffffffffffffffffffffffffff\n      and\n        /* \"contracts/BondManager.sol\":896:915  msg.sender == owner */\n      0xffffffffffffffffffffffffffffffffffffffff\n      and\n        /* \"contracts/BondManager.sol\":896:906  msg.sender */\n      caller\n        /* \"contracts/BondManager.sol\":896:915  msg.sender == owner */\n      0xffffffffffffffffffffffffffffffffffffffff\n      and\n      eq\n        /* \"contracts/BondManager.sol\":888:956  require(msg.sender == owner, \"BondManager: caller is not the owner\") */\n      tag_51\n      jumpi\n      mload(0x40)\n      0x08c379a000000000000000000000000000000000000000000000000000000000\n      dup2\n      mstore\n      0x04\n      add\n      tag_52\n      swap1\n      tag_53\n      jump\t// in\n    tag_52:\n      mload(0x40)\n      dup1\n      swap2\n      sub\n      swap1\n      revert\n    tag_51:\n        /* \"contracts/BondManager.sol\":2537:2693  function registerSequencerByChainId(... */\n      pop\n      pop\n      pop\n      jump\t// out\n        /* \"contracts/BondManager.sol\":1064:1246  function transferOwnership(address newOwner) public onlyOwner {... */\n    tag_36:\n        /* \"contracts/BondManager.sol\":910:915  owner */\n      0x01\n      0x00\n      swap1\n      sload\n      swap1\n      0x0100\n      exp\n      swap1\n      div\n      0xffffffffffffffffffffffffffffffffffffffff\n      and\n        /* \"contracts/BondManager.sol\":896:915  msg.sender == owner */\n      0xffffffffffffffffffffffffffffffffffffffff\n      and\n        /* \"contracts/BondManager.sol\":896:906  msg.sender */\n      caller\n        /* \"contracts/BondManager.sol\":896:915  msg.sender == owner */\n      0xffffffffffffffffffffffffffffffffffffffff\n      and\n      eq\n        /* \"contracts/BondManager.sol\":888:956  require(msg.sender == owner, \"BondManager: caller is not the owner\") */\n      tag_56\n      jumpi\n      mload(0x40)\n      0x08c379a000000000000000000000000000000000000000000000000000000000\n      dup2\n      mstore\n      0x04\n      add\n      tag_57\n      swap1\n      tag_53\n      jump\t// in\n    tag_57:\n      mload(0x40)\n      dup1\n      swap2\n      sub\n      swap1\n      revert\n    tag_56:\n        /* \"contracts/BondManager.sol\":1164:1165  0 */\n      0x00\n        /* \"contracts/BondManager.sol\":1144:1166  newOwner != address(0) */\n      0xffffffffffffffffffffffffffffffffffffffff\n      and\n        /* \"contracts/BondManager.sol\":1144:1152  newOwner */\n      dup2\n        /* \"contracts/BondManager.sol\":1144:1166  newOwner != address(0) */\n      0xffffffffffffffffffffffffffffffffffffffff\n      and\n      sub\n        /* \"contracts/BondManager.sol\":1136:1213  require(newOwner != address(0), \"BondManager: new owner is the zero address\") */\n      tag_59\n      jumpi\n      mload(0x40)\n      0x08c379a000000000000000000000000000000000000000000000000000000000\n      dup2\n      mstore\n      0x04\n      add\n      tag_60\n      swap1\n      tag_61\n      jump\t// in\n    tag_60:\n      mload(0x40)\n      dup1\n      swap2\n      sub\n      swap1\n      revert\n    tag_59:\n        /* \"contracts/BondManager.sol\":1231:1239  newOwner */\n      dup1\n        /* \"contracts/BondManager.sol\":1223:1228  owner */\n      0x01\n      0x00\n        /* \"contracts/BondManager.sol\":1223:1239  owner = newOwner */\n      0x0100\n      exp\n      dup2\n      sload\n      dup2\n      0xffffffffffffffffffffffffffffffffffffffff\n      mul\n      not\n      and\n      swap1\n      dup4\n      0xffffffffffffffffffffffffffffffffffffffff\n      and\n      mul\n      or\n      swap1\n      sstore\n      pop\n        /* \"contracts/BondManager.sol\":1064:1246  function transferOwnership(address newOwner) public onlyOwner {... */\n      pop\n      jump\t// out\n        /* \"contracts/BondManager.sol\":2013:2275  function isCollateralizedByChainId(... */\n    tag_39:\n        /* \"contracts/BondManager.sol\":2165:2169  bool */\n      0x00\n        /* \"contracts/BondManager.sol\":910:915  owner */\n      0x01\n      0x00\n      swap1\n      sload\n      swap1\n      0x0100\n      exp\n      swap1\n      div\n      0xffffffffffffffffffffffffffffffffffffffff\n      and\n        /* \"contracts/BondManager.sol\":896:915  msg.sender == owner */\n      0xffffffffffffffffffffffffffffffffffffffff\n      and\n        /* \"contracts/BondManager.sol\":896:906  msg.sender */\n      caller\n        /* \"contracts/BondManager.sol\":896:915  msg.sender == owner */\n      0xffffffffffffffffffffffffffffffffffffffff\n      and\n      eq\n        /* \"contracts/BondManager.sol\":888:956  require(msg.sender == owner, \"BondManager: caller is not the owner\") */\n      tag_63\n      jumpi\n      mload(0x40)\n      0x08c379a000000000000000000000000000000000000000000000000000000000\n      dup2\n      mstore\n      0x04\n      add\n      tag_64\n      swap1\n      tag_53\n      jump\t// in\n    tag_64:\n      mload(0x40)\n      dup1\n      swap2\n      sub\n      swap1\n      revert\n    tag_63:\n        /* \"contracts/BondManager.sol\":2197:2202  _prop */\n      dup2\n        /* \"contracts/BondManager.sol\":2189:2202  _who == _prop */\n      0xffffffffffffffffffffffffffffffffffffffff\n      and\n        /* \"contracts/BondManager.sol\":2189:2193  _who */\n      dup4\n        /* \"contracts/BondManager.sol\":2189:2202  _who == _prop */\n      0xffffffffffffffffffffffffffffffffffffffff\n      and\n      eq\n        /* \"contracts/BondManager.sol\":2181:2247  require(_who == _prop, \"BondManager: sender must be the proposer\") */\n      tag_66\n      jumpi\n      mload(0x40)\n      0x08c379a000000000000000000000000000000000000000000000000000000000\n      dup2\n      mstore\n      0x04\n      add\n      tag_67\n      swap1\n      tag_68\n      jump\t// in\n    tag_67:\n      mload(0x40)\n      dup1\n      swap2\n      sub\n      swap1\n      revert\n    tag_66:\n        /* \"contracts/BondManager.sol\":2264:2268  true */\n      0x01\n        /* \"contracts/BondManager.sol\":2257:2268  return true */\n      swap1\n      pop\n        /* \"contracts/BondManager.sol\":2013:2275  function isCollateralizedByChainId(... */\n      swap4\n      swap3\n      pop\n      pop\n      pop\n      jump\t// out\n        /* \"#utility.yul\":7:82   */\n    tag_69:\n        /* \"#utility.yul\":40:46   */\n      0x00\n        /* \"#utility.yul\":73:75   */\n      0x40\n        /* \"#utility.yul\":67:76   */\n      mload\n        /* \"#utility.yul\":57:76   */\n      swap1\n      pop\n        /* \"#utility.yul\":7:82   */\n      swap1\n      jump\t// out\n        /* \"#utility.yul\":88:205   */\n    tag_70:\n        /* \"#utility.yul\":197:198   */\n      0x00\n        /* \"#utility.yul\":194:195   */\n      dup1\n        /* \"#utility.yul\":187:199   */\n      revert\n        /* \"#utility.yul\":211:328   */\n    tag_71:\n        /* \"#utility.yul\":320:321   */\n      0x00\n        /* \"#utility.yul\":317:318   */\n      dup1\n        /* \"#utility.yul\":310:322   */\n      revert\n        /* \"#utility.yul\":334:460   */\n    tag_72:\n        /* \"#utility.yul\":371:378   */\n      0x00\n        /* \"#utility.yul\":411:453   */\n      0xffffffffffffffffffffffffffffffffffffffff\n        /* \"#utility.yul\":404:409   */\n      dup3\n        /* \"#utility.yul\":400:454   */\n      and\n        /* \"#utility.yul\":389:454   */\n      swap1\n      pop\n        /* \"#utility.yul\":334:460   */\n      swap2\n      swap1\n      pop\n      jump\t// out\n        /* \"#utility.yul\":466:562   */\n    tag_73:\n        /* \"#utility.yul\":503:510   */\n      0x00\n        /* \"#utility.yul\":532:556   */\n      tag_114\n        /* \"#utility.yul\":550:555   */\n      dup3\n        /* \"#utility.yul\":532:556   */\n      tag_72\n      jump\t// in\n    tag_114:\n        /* \"#utility.yul\":521:556   */\n      swap1\n      pop\n        /* \"#utility.yul\":466:562   */\n      swap2\n      swap1\n      pop\n      jump\t// out\n        /* \"#utility.yul\":568:690   */\n    tag_74:\n        /* \"#utility.yul\":641:665   */\n      tag_116\n        /* \"#utility.yul\":659:664   */\n      dup2\n        /* \"#utility.yul\":641:665   */\n      tag_73\n      jump\t// in\n    tag_116:\n        /* \"#utility.yul\":634:639   */\n      dup2\n        /* \"#utility.yul\":631:666   */\n      eq\n        /* \"#utility.yul\":621:684   */\n      tag_117\n      jumpi\n        /* \"#utility.yul\":680:681   */\n      0x00\n        /* \"#utility.yul\":677:678   */\n      dup1\n        /* \"#utility.yul\":670:682   */\n      revert\n        /* \"#utility.yul\":621:684   */\n    tag_117:\n        /* \"#utility.yul\":568:690   */\n      pop\n      jump\t// out\n        /* \"#utility.yul\":696:835   */\n    tag_75:\n        /* \"#utility.yul\":742:747   */\n      0x00\n        /* \"#utility.yul\":780:786   */\n      dup2\n        /* \"#utility.yul\":767:787   */\n      calldataload\n        /* \"#utility.yul\":758:787   */\n      swap1\n      pop\n        /* \"#utility.yul\":796:829   */\n      tag_119\n        /* \"#utility.yul\":823:828   */\n      dup2\n        /* \"#utility.yul\":796:829   */\n      tag_74\n      jump\t// in\n    tag_119:\n        /* \"#utility.yul\":696:835   */\n      swap3\n      swap2\n      pop\n      pop\n      jump\t// out\n        /* \"#utility.yul\":841:1170   */\n    tag_13:\n        /* \"#utility.yul\":900:906   */\n      0x00\n        /* \"#utility.yul\":949:951   */\n      0x20\n        /* \"#utility.yul\":937:946   */\n      dup3\n        /* \"#utility.yul\":928:935   */\n      dup5\n        /* \"#utility.yul\":924:947   */\n      sub\n        /* \"#utility.yul\":920:952   */\n      slt\n        /* \"#utility.yul\":917:1036   */\n      iszero\n      tag_121\n      jumpi\n        /* \"#utility.yul\":955:1034   */\n      tag_122\n      tag_70\n      jump\t// in\n    tag_122:\n        /* \"#utility.yul\":917:1036   */\n    tag_121:\n        /* \"#utility.yul\":1075:1076   */\n      0x00\n        /* \"#utility.yul\":1100:1153   */\n      tag_123\n        /* \"#utility.yul\":1145:1152   */\n      dup5\n        /* \"#utility.yul\":1136:1142   */\n      dup3\n        /* \"#utility.yul\":1125:1134   */\n      dup6\n        /* \"#utility.yul\":1121:1143   */\n      add\n        /* \"#utility.yul\":1100:1153   */\n      tag_75\n      jump\t// in\n    tag_123:\n        /* \"#utility.yul\":1090:1153   */\n      swap2\n      pop\n        /* \"#utility.yul\":1046:1163   */\n      pop\n        /* \"#utility.yul\":841:1170   */\n      swap3\n      swap2\n      pop\n      pop\n      jump\t// out\n        /* \"#utility.yul\":1176:1266   */\n    tag_76:\n        /* \"#utility.yul\":1210:1217   */\n      0x00\n        /* \"#utility.yul\":1253:1258   */\n      dup2\n        /* \"#utility.yul\":1246:1259   */\n      iszero\n        /* \"#utility.yul\":1239:1260   */\n      iszero\n        /* \"#utility.yul\":1228:1260   */\n      swap1\n      pop\n        /* \"#utility.yul\":1176:1266   */\n      swap2\n      swap1\n      pop\n      jump\t// out\n        /* \"#utility.yul\":1272:1381   */\n    tag_77:\n        /* \"#utility.yul\":1353:1374   */\n      tag_126\n        /* \"#utility.yul\":1368:1373   */\n      dup2\n        /* \"#utility.yul\":1353:1374   */\n      tag_76\n      jump\t// in\n    tag_126:\n        /* \"#utility.yul\":1348:1351   */\n      dup3\n        /* \"#utility.yul\":1341:1375   */\n      mstore\n        /* \"#utility.yul\":1272:1381   */\n      pop\n      pop\n      jump\t// out\n        /* \"#utility.yul\":1387:1597   */\n    tag_16:\n        /* \"#utility.yul\":1474:1478   */\n      0x00\n        /* \"#utility.yul\":1512:1514   */\n      0x20\n        /* \"#utility.yul\":1501:1510   */\n      dup3\n        /* \"#utility.yul\":1497:1515   */\n      add\n        /* \"#utility.yul\":1489:1515   */\n      swap1\n      pop\n        /* \"#utility.yul\":1525:1590   */\n      tag_128\n        /* \"#utility.yul\":1587:1588   */\n      0x00\n        /* \"#utility.yul\":1576:1585   */\n      dup4\n        /* \"#utility.yul\":1572:1589   */\n      add\n        /* \"#utility.yul\":1563:1569   */\n      dup5\n        /* \"#utility.yul\":1525:1590   */\n      tag_77\n      jump\t// in\n    tag_128:\n        /* \"#utility.yul\":1387:1597   */\n      swap3\n      swap2\n      pop\n      pop\n      jump\t// out\n        /* \"#utility.yul\":1603:1663   */\n    tag_78:\n        /* \"#utility.yul\":1631:1634   */\n      0x00\n        /* \"#utility.yul\":1652:1657   */\n      dup2\n        /* \"#utility.yul\":1645:1657   */\n      swap1\n      pop\n        /* \"#utility.yul\":1603:1663   */\n      swap2\n      swap1\n      pop\n      jump\t// out\n        /* \"#utility.yul\":1669:1811   */\n    tag_79:\n        /* \"#utility.yul\":1719:1728   */\n      0x00\n        /* \"#utility.yul\":1752:1805   */\n      tag_131\n        /* \"#utility.yul\":1770:1804   */\n      tag_132\n        /* \"#utility.yul\":1779:1803   */\n      tag_133\n        /* \"#utility.yul\":1797:1802   */\n      dup5\n        /* \"#utility.yul\":1779:1803   */\n      tag_72\n      jump\t// in\n    tag_133:\n        /* \"#utility.yul\":1770:1804   */\n      tag_78\n      jump\t// in\n    tag_132:\n        /* \"#utility.yul\":1752:1805   */\n      tag_72\n      jump\t// in\n    tag_131:\n        /* \"#utility.yul\":1739:1805   */\n      swap1\n      pop\n        /* \"#utility.yul\":1669:1811   */\n      swap2\n      swap1\n      pop\n      jump\t// out\n        /* \"#utility.yul\":1817:1943   */\n    tag_80:\n        /* \"#utility.yul\":1867:1876   */\n      0x00\n        /* \"#utility.yul\":1900:1937   */\n      tag_135\n        /* \"#utility.yul\":1931:1936   */\n      dup3\n        /* \"#utility.yul\":1900:1937   */\n      tag_79\n      jump\t// in\n    tag_135:\n        /* \"#utility.yul\":1887:1937   */\n      swap1\n      pop\n        /* \"#utility.yul\":1817:1943   */\n      swap2\n      swap1\n      pop\n      jump\t// out\n        /* \"#utility.yul\":1949:2101   */\n    tag_81:\n        /* \"#utility.yul\":2025:2034   */\n      0x00\n        /* \"#utility.yul\":2058:2095   */\n      tag_137\n        /* \"#utility.yul\":2089:2094   */\n      dup3\n        /* \"#utility.yul\":2058:2095   */\n      tag_80\n      jump\t// in\n    tag_137:\n        /* \"#utility.yul\":2045:2095   */\n      swap1\n      pop\n        /* \"#utility.yul\":1949:2101   */\n      swap2\n      swap1\n      pop\n      jump\t// out\n        /* \"#utility.yul\":2107:2290   */\n    tag_82:\n        /* \"#utility.yul\":2220:2283   */\n      tag_139\n        /* \"#utility.yul\":2277:2282   */\n      dup2\n        /* \"#utility.yul\":2220:2283   */\n      tag_81\n      jump\t// in\n    tag_139:\n        /* \"#utility.yul\":2215:2218   */\n      dup3\n        /* \"#utility.yul\":2208:2284   */\n      mstore\n        /* \"#utility.yul\":2107:2290   */\n      pop\n      pop\n      jump\t// out\n        /* \"#utility.yul\":2296:2570   */\n    tag_20:\n        /* \"#utility.yul\":2415:2419   */\n      0x00\n        /* \"#utility.yul\":2453:2455   */\n      0x20\n        /* \"#utility.yul\":2442:2451   */\n      dup3\n        /* \"#utility.yul\":2438:2456   */\n      add\n        /* \"#utility.yul\":2430:2456   */\n      swap1\n      pop\n        /* \"#utility.yul\":2466:2563   */\n      tag_141\n        /* \"#utility.yul\":2560:2561   */\n      0x00\n        /* \"#utility.yul\":2549:2558   */\n      dup4\n        /* \"#utility.yul\":2545:2562   */\n      add\n        /* \"#utility.yul\":2536:2542   */\n      dup5\n        /* \"#utility.yul\":2466:2563   */\n      tag_82\n      jump\t// in\n    tag_141:\n        /* \"#utility.yul\":2296:2570   */\n      swap3\n      swap2\n      pop\n      pop\n      jump\t// out\n        /* \"#utility.yul\":2576:2693   */\n    tag_83:\n        /* \"#utility.yul\":2685:2686   */\n      0x00\n        /* \"#utility.yul\":2682:2683   */\n      dup1\n        /* \"#utility.yul\":2675:2687   */\n      revert\n        /* \"#utility.yul\":2699:2816   */\n    tag_84:\n        /* \"#utility.yul\":2808:2809   */\n      0x00\n        /* \"#utility.yul\":2805:2806   */\n      dup1\n        /* \"#utility.yul\":2798:2810   */\n      revert\n        /* \"#utility.yul\":2822:2924   */\n    tag_85:\n        /* \"#utility.yul\":2863:2869   */\n      0x00\n        /* \"#utility.yul\":2914:2916   */\n      0x1f\n        /* \"#utility.yul\":2910:2917   */\n      not\n        /* \"#utility.yul\":2905:2907   */\n      0x1f\n        /* \"#utility.yul\":2898:2903   */\n      dup4\n        /* \"#utility.yul\":2894:2908   */\n      add\n        /* \"#utility.yul\":2890:2918   */\n      and\n        /* \"#utility.yul\":2880:2918   */\n      swap1\n      pop\n        /* \"#utility.yul\":2822:2924   */\n      swap2\n      swap1\n      pop\n      jump\t// out\n        /* \"#utility.yul\":2930:3110   */\n    tag_86:\n        /* \"#utility.yul\":2978:3055   */\n      0x4e487b7100000000000000000000000000000000000000000000000000000000\n        /* \"#utility.yul\":2975:2976   */\n      0x00\n        /* \"#utility.yul\":2968:3056   */\n      mstore\n        /* \"#utility.yul\":3075:3079   */\n      0x41\n        /* \"#utility.yul\":3072:3073   */\n      0x04\n        /* \"#utility.yul\":3065:3080   */\n      mstore\n        /* \"#utility.yul\":3099:3103   */\n      0x24\n        /* \"#utility.yul\":3096:3097   */\n      0x00\n        /* \"#utility.yul\":3089:3104   */\n      revert\n        /* \"#utility.yul\":3116:3397   */\n    tag_87:\n        /* \"#utility.yul\":3199:3226   */\n      tag_147\n        /* \"#utility.yul\":3221:3225   */\n      dup3\n        /* \"#utility.yul\":3199:3226   */\n      tag_85\n      jump\t// in\n    tag_147:\n        /* \"#utility.yul\":3191:3197   */\n      dup2\n        /* \"#utility.yul\":3187:3227   */\n      add\n        /* \"#utility.yul\":3329:3335   */\n      dup2\n        /* \"#utility.yul\":3317:3327   */\n      dup2\n        /* \"#utility.yul\":3314:3336   */\n      lt\n        /* \"#utility.yul\":3293:3311   */\n      0xffffffffffffffff\n        /* \"#utility.yul\":3281:3291   */\n      dup3\n        /* \"#utility.yul\":3278:3312   */\n      gt\n        /* \"#utility.yul\":3275:3337   */\n      or\n        /* \"#utility.yul\":3272:3360   */\n      iszero\n      tag_148\n      jumpi\n        /* \"#utility.yul\":3340:3358   */\n      tag_149\n      tag_86\n      jump\t// in\n    tag_149:\n        /* \"#utility.yul\":3272:3360   */\n    tag_148:\n        /* \"#utility.yul\":3380:3390   */\n      dup1\n        /* \"#utility.yul\":3376:3378   */\n      0x40\n        /* \"#utility.yul\":3369:3391   */\n      mstore\n        /* \"#utility.yul\":3159:3397   */\n      pop\n        /* \"#utility.yul\":3116:3397   */\n      pop\n      pop\n      jump\t// out\n        /* \"#utility.yul\":3403:3532   */\n    tag_88:\n        /* \"#utility.yul\":3437:3443   */\n      0x00\n        /* \"#utility.yul\":3464:3484   */\n      tag_151\n      tag_69\n      jump\t// in\n    tag_151:\n        /* \"#utility.yul\":3454:3484   */\n      swap1\n      pop\n        /* \"#utility.yul\":3493:3526   */\n      tag_152\n        /* \"#utility.yul\":3521:3525   */\n      dup3\n        /* \"#utility.yul\":3513:3519   */\n      dup3\n        /* \"#utility.yul\":3493:3526   */\n      tag_87\n      jump\t// in\n    tag_152:\n        /* \"#utility.yul\":3403:3532   */\n      swap2\n      swap1\n      pop\n      jump\t// out\n        /* \"#utility.yul\":3538:3846   */\n    tag_89:\n        /* \"#utility.yul\":3600:3604   */\n      0x00\n        /* \"#utility.yul\":3690:3708   */\n      0xffffffffffffffff\n        /* \"#utility.yul\":3682:3688   */\n      dup3\n        /* \"#utility.yul\":3679:3709   */\n      gt\n        /* \"#utility.yul\":3676:3732   */\n      iszero\n      tag_154\n      jumpi\n        /* \"#utility.yul\":3712:3730   */\n      tag_155\n      tag_86\n      jump\t// in\n    tag_155:\n        /* \"#utility.yul\":3676:3732   */\n    tag_154:\n        /* \"#utility.yul\":3750:3779   */\n      tag_156\n        /* \"#utility.yul\":3772:3778   */\n      dup3\n        /* \"#utility.yul\":3750:3779   */\n      tag_85\n      jump\t// in\n    tag_156:\n        /* \"#utility.yul\":3742:3779   */\n      swap1\n      pop\n        /* \"#utility.yul\":3834:3838   */\n      0x20\n        /* \"#utility.yul\":3828:3832   */\n      dup2\n        /* \"#utility.yul\":3824:3839   */\n      add\n        /* \"#utility.yul\":3816:3839   */\n      swap1\n      pop\n        /* \"#utility.yul\":3538:3846   */\n      swap2\n      swap1\n      pop\n      jump\t// out\n        /* \"#utility.yul\":3852:4000   */\n    tag_90:\n        /* \"#utility.yul\":3950:3956   */\n      dup3\n        /* \"#utility.yul\":3945:3948   */\n      dup2\n        /* \"#utility.yul\":3940:3943   */\n      dup4\n        /* \"#utility.yul\":3927:3957   */\n      calldatacopy\n        /* \"#utility.yul\":3991:3992   */\n      0x00\n        /* \"#utility.yul\":3982:3988   */\n      dup4\n        /* \"#utility.yul\":3977:3980   */\n      dup4\n        /* \"#utility.yul\":3973:3989   */\n      add\n        /* \"#utility.yul\":3966:3993   */\n      mstore\n        /* \"#utility.yul\":3852:4000   */\n      pop\n      pop\n      pop\n      jump\t// out\n        /* \"#utility.yul\":4006:4431   */\n    tag_91:\n        /* \"#utility.yul\":4084:4089   */\n      0x00\n        /* \"#utility.yul\":4109:4175   */\n      tag_159\n        /* \"#utility.yul\":4125:4174   */\n      tag_160\n        /* \"#utility.yul\":4167:4173   */\n      dup5\n        /* \"#utility.yul\":4125:4174   */\n      tag_89\n      jump\t// in\n    tag_160:\n        /* \"#utility.yul\":4109:4175   */\n      tag_88\n      jump\t// in\n    tag_159:\n        /* \"#utility.yul\":4100:4175   */\n      swap1\n      pop\n        /* \"#utility.yul\":4198:4204   */\n      dup3\n        /* \"#utility.yul\":4191:4196   */\n      dup2\n        /* \"#utility.yul\":4184:4205   */\n      mstore\n        /* \"#utility.yul\":4236:4240   */\n      0x20\n        /* \"#utility.yul\":4229:4234   */\n      dup2\n        /* \"#utility.yul\":4225:4241   */\n      add\n        /* \"#utility.yul\":4274:4277   */\n      dup5\n        /* \"#utility.yul\":4265:4271   */\n      dup5\n        /* \"#utility.yul\":4260:4263   */\n      dup5\n        /* \"#utility.yul\":4256:4272   */\n      add\n        /* \"#utility.yul\":4253:4278   */\n      gt\n        /* \"#utility.yul\":4250:4362   */\n      iszero\n      tag_161\n      jumpi\n        /* \"#utility.yul\":4281:4360   */\n      tag_162\n      tag_84\n      jump\t// in\n    tag_162:\n        /* \"#utility.yul\":4250:4362   */\n    tag_161:\n        /* \"#utility.yul\":4371:4425   */\n      tag_163\n        /* \"#utility.yul\":4418:4424   */\n      dup5\n        /* \"#utility.yul\":4413:4416   */\n      dup3\n        /* \"#utility.yul\":4408:4411   */\n      dup6\n        /* \"#utility.yul\":4371:4425   */\n      tag_90\n      jump\t// in\n    tag_163:\n        /* \"#utility.yul\":4090:4431   */\n      pop\n        /* \"#utility.yul\":4006:4431   */\n      swap4\n      swap3\n      pop\n      pop\n      pop\n      jump\t// out\n        /* \"#utility.yul\":4451:4791   */\n    tag_92:\n        /* \"#utility.yul\":4507:4512   */\n      0x00\n        /* \"#utility.yul\":4556:4559   */\n      dup3\n        /* \"#utility.yul\":4549:4553   */\n      0x1f\n        /* \"#utility.yul\":4541:4547   */\n      dup4\n        /* \"#utility.yul\":4537:4554   */\n      add\n        /* \"#utility.yul\":4533:4560   */\n      slt\n        /* \"#utility.yul\":4523:4645   */\n      tag_165\n      jumpi\n        /* \"#utility.yul\":4564:4643   */\n      tag_166\n      tag_83\n      jump\t// in\n    tag_166:\n        /* \"#utility.yul\":4523:4645   */\n    tag_165:\n        /* \"#utility.yul\":4681:4687   */\n      dup2\n        /* \"#utility.yul\":4668:4688   */\n      calldataload\n        /* \"#utility.yul\":4706:4785   */\n      tag_167\n        /* \"#utility.yul\":4781:4784   */\n      dup5\n        /* \"#utility.yul\":4773:4779   */\n      dup3\n        /* \"#utility.yul\":4766:4770   */\n      0x20\n        /* \"#utility.yul\":4758:4764   */\n      dup7\n        /* \"#utility.yul\":4754:4771   */\n      add\n        /* \"#utility.yul\":4706:4785   */\n      tag_91\n      jump\t// in\n    tag_167:\n        /* \"#utility.yul\":4697:4785   */\n      swap2\n      pop\n        /* \"#utility.yul\":4513:4791   */\n      pop\n        /* \"#utility.yul\":4451:4791   */\n      swap3\n      swap2\n      pop\n      pop\n      jump\t// out\n        /* \"#utility.yul\":4797:5306   */\n    tag_23:\n        /* \"#utility.yul\":4866:4872   */\n      0x00\n        /* \"#utility.yul\":4915:4917   */\n      0x20\n        /* \"#utility.yul\":4903:4912   */\n      dup3\n        /* \"#utility.yul\":4894:4901   */\n      dup5\n        /* \"#utility.yul\":4890:4913   */\n      sub\n        /* \"#utility.yul\":4886:4918   */\n      slt\n        /* \"#utility.yul\":4883:5002   */\n      iszero\n      tag_169\n      jumpi\n        /* \"#utility.yul\":4921:5000   */\n      tag_170\n      tag_70\n      jump\t// in\n    tag_170:\n        /* \"#utility.yul\":4883:5002   */\n    tag_169:\n        /* \"#utility.yul\":5069:5070   */\n      0x00\n        /* \"#utility.yul\":5058:5067   */\n      dup3\n        /* \"#utility.yul\":5054:5071   */\n      add\n        /* \"#utility.yul\":5041:5072   */\n      calldataload\n        /* \"#utility.yul\":5099:5117   */\n      0xffffffffffffffff\n        /* \"#utility.yul\":5091:5097   */\n      dup2\n        /* \"#utility.yul\":5088:5118   */\n      gt\n        /* \"#utility.yul\":5085:5202   */\n      iszero\n      tag_171\n      jumpi\n        /* \"#utility.yul\":5121:5200   */\n      tag_172\n      tag_71\n      jump\t// in\n    tag_172:\n        /* \"#utility.yul\":5085:5202   */\n    tag_171:\n        /* \"#utility.yul\":5226:5289   */\n      tag_173\n        /* \"#utility.yul\":5281:5288   */\n      dup5\n        /* \"#utility.yul\":5272:5278   */\n      dup3\n        /* \"#utility.yul\":5261:5270   */\n      dup6\n        /* \"#utility.yul\":5257:5279   */\n      add\n        /* \"#utility.yul\":5226:5289   */\n      tag_92\n      jump\t// in\n    tag_173:\n        /* \"#utility.yul\":5216:5289   */\n      swap2\n      pop\n        /* \"#utility.yul\":5012:5299   */\n      pop\n        /* \"#utility.yul\":4797:5306   */\n      swap3\n      swap2\n      pop\n      pop\n      jump\t// out\n        /* \"#utility.yul\":5312:5430   */\n    tag_93:\n        /* \"#utility.yul\":5399:5423   */\n      tag_175\n        /* \"#utility.yul\":5417:5422   */\n      dup2\n        /* \"#utility.yul\":5399:5423   */\n      tag_73\n      jump\t// in\n    tag_175:\n        /* \"#utility.yul\":5394:5397   */\n      dup3\n        /* \"#utility.yul\":5387:5424   */\n      mstore\n        /* \"#utility.yul\":5312:5430   */\n      pop\n      pop\n      jump\t// out\n        /* \"#utility.yul\":5436:5658   */\n    tag_26:\n        /* \"#utility.yul\":5529:5533   */\n      0x00\n        /* \"#utility.yul\":5567:5569   */\n      0x20\n        /* \"#utility.yul\":5556:5565   */\n      dup3\n        /* \"#utility.yul\":5552:5570   */\n      add\n        /* \"#utility.yul\":5544:5570   */\n      swap1\n      pop\n        /* \"#utility.yul\":5580:5651   */\n      tag_177\n        /* \"#utility.yul\":5648:5649   */\n      0x00\n        /* \"#utility.yul\":5637:5646   */\n      dup4\n        /* \"#utility.yul\":5633:5650   */\n      add\n        /* \"#utility.yul\":5624:5630   */\n      dup5\n        /* \"#utility.yul\":5580:5651   */\n      tag_93\n      jump\t// in\n    tag_177:\n        /* \"#utility.yul\":5436:5658   */\n      swap3\n      swap2\n      pop\n      pop\n      jump\t// out\n        /* \"#utility.yul\":5664:5741   */\n    tag_94:\n        /* \"#utility.yul\":5701:5708   */\n      0x00\n        /* \"#utility.yul\":5730:5735   */\n      dup2\n        /* \"#utility.yul\":5719:5735   */\n      swap1\n      pop\n        /* \"#utility.yul\":5664:5741   */\n      swap2\n      swap1\n      pop\n      jump\t// out\n        /* \"#utility.yul\":5747:5869   */\n    tag_95:\n        /* \"#utility.yul\":5820:5844   */\n      tag_180\n        /* \"#utility.yul\":5838:5843   */\n      dup2\n        /* \"#utility.yul\":5820:5844   */\n      tag_94\n      jump\t// in\n    tag_180:\n        /* \"#utility.yul\":5813:5818   */\n      dup2\n        /* \"#utility.yul\":5810:5845   */\n      eq\n        /* \"#utility.yul\":5800:5863   */\n      tag_181\n      jumpi\n        /* \"#utility.yul\":5859:5860   */\n      0x00\n        /* \"#utility.yul\":5856:5857   */\n      dup1\n        /* \"#utility.yul\":5849:5861   */\n      revert\n        /* \"#utility.yul\":5800:5863   */\n    tag_181:\n        /* \"#utility.yul\":5747:5869   */\n      pop\n      jump\t// out\n        /* \"#utility.yul\":5875:6014   */\n    tag_96:\n        /* \"#utility.yul\":5921:5926   */\n      0x00\n        /* \"#utility.yul\":5959:5965   */\n      dup2\n        /* \"#utility.yul\":5946:5966   */\n      calldataload\n        /* \"#utility.yul\":5937:5966   */\n      swap1\n      pop\n        /* \"#utility.yul\":5975:6008   */\n      tag_183\n        /* \"#utility.yul\":6002:6007   */\n      dup2\n        /* \"#utility.yul\":5975:6008   */\n      tag_95\n      jump\t// in\n    tag_183:\n        /* \"#utility.yul\":5875:6014   */\n      swap3\n      swap2\n      pop\n      pop\n      jump\t// out\n        /* \"#utility.yul\":6020:6639   */\n    tag_32:\n        /* \"#utility.yul\":6097:6103   */\n      0x00\n        /* \"#utility.yul\":6105:6111   */\n      dup1\n        /* \"#utility.yul\":6113:6119   */\n      0x00\n        /* \"#utility.yul\":6162:6164   */\n      0x60\n        /* \"#utility.yul\":6150:6159   */\n      dup5\n        /* \"#utility.yul\":6141:6148   */\n      dup7\n        /* \"#utility.yul\":6137:6160   */\n      sub\n        /* \"#utility.yul\":6133:6165   */\n      slt\n        /* \"#utility.yul\":6130:6249   */\n      iszero\n      tag_185\n      jumpi\n        /* \"#utility.yul\":6168:6247   */\n      tag_186\n      tag_70\n      jump\t// in\n    tag_186:\n        /* \"#utility.yul\":6130:6249   */\n    tag_185:\n        /* \"#utility.yul\":6288:6289   */\n      0x00\n        /* \"#utility.yul\":6313:6366   */\n      tag_187\n        /* \"#utility.yul\":6358:6365   */\n      dup7\n        /* \"#utility.yul\":6349:6355   */\n      dup3\n        /* \"#utility.yul\":6338:6347   */\n      dup8\n        /* \"#utility.yul\":6334:6356   */\n      add\n        /* \"#utility.yul\":6313:6366   */\n      tag_96\n      jump\t// in\n    tag_187:\n        /* \"#utility.yul\":6303:6366   */\n      swap4\n      pop\n        /* \"#utility.yul\":6259:6376   */\n      pop\n        /* \"#utility.yul\":6415:6417   */\n      0x20\n        /* \"#utility.yul\":6441:6494   */\n      tag_188\n        /* \"#utility.yul\":6486:6493   */\n      dup7\n        /* \"#utility.yul\":6477:6483   */\n      dup3\n        /* \"#utility.yul\":6466:6475   */\n      dup8\n        /* \"#utility.yul\":6462:6484   */\n      add\n        /* \"#utility.yul\":6441:6494   */\n      tag_75\n      jump\t// in\n    tag_188:\n        /* \"#utility.yul\":6431:6494   */\n      swap3\n      pop\n        /* \"#utility.yul\":6386:6504   */\n      pop\n        /* \"#utility.yul\":6543:6545   */\n      0x40\n        /* \"#utility.yul\":6569:6622   */\n      tag_189\n        /* \"#utility.yul\":6614:6621   */\n      dup7\n        /* \"#utility.yul\":6605:6611   */\n      dup3\n        /* \"#utility.yul\":6594:6603   */\n      dup8\n        /* \"#utility.yul\":6590:6612   */\n      add\n        /* \"#utility.yul\":6569:6622   */\n      tag_75\n      jump\t// in\n    tag_189:\n        /* \"#utility.yul\":6559:6622   */\n      swap2\n      pop\n        /* \"#utility.yul\":6514:6632   */\n      pop\n        /* \"#utility.yul\":6020:6639   */\n      swap3\n      pop\n      swap3\n      pop\n      swap3\n      jump\t// out\n        /* \"#utility.yul\":6645:6744   */\n    tag_97:\n        /* \"#utility.yul\":6697:6703   */\n      0x00\n        /* \"#utility.yul\":6731:6736   */\n      dup2\n        /* \"#utility.yul\":6725:6737   */\n      mload\n        /* \"#utility.yul\":6715:6737   */\n      swap1\n      pop\n        /* \"#utility.yul\":6645:6744   */\n      swap2\n      swap1\n      pop\n      jump\t// out\n        /* \"#utility.yul\":6750:6919   */\n    tag_98:\n        /* \"#utility.yul\":6834:6845   */\n      0x00\n        /* \"#utility.yul\":6868:6874   */\n      dup3\n        /* \"#utility.yul\":6863:6866   */\n      dup3\n        /* \"#utility.yul\":6856:6875   */\n      mstore\n        /* \"#utility.yul\":6908:6912   */\n      0x20\n        /* \"#utility.yul\":6903:6906   */\n      dup3\n        /* \"#utility.yul\":6899:6913   */\n      add\n        /* \"#utility.yul\":6884:6913   */\n      swap1\n      pop\n        /* \"#utility.yul\":6750:6919   */\n      swap3\n      swap2\n      pop\n      pop\n      jump\t// out\n        /* \"#utility.yul\":6925:7064   */\n    tag_99:\n        /* \"#utility.yul\":7014:7020   */\n      dup3\n        /* \"#utility.yul\":7009:7012   */\n      dup2\n        /* \"#utility.yul\":7004:7007   */\n      dup4\n        /* \"#utility.yul\":6998:7021   */\n      mcopy\n        /* \"#utility.yul\":7055:7056   */\n      0x00\n        /* \"#utility.yul\":7046:7052   */\n      dup4\n        /* \"#utility.yul\":7041:7044   */\n      dup4\n        /* \"#utility.yul\":7037:7053   */\n      add\n        /* \"#utility.yul\":7030:7057   */\n      mstore\n        /* \"#utility.yul\":6925:7064   */\n      pop\n      pop\n      pop\n      jump\t// out\n        /* \"#utility.yul\":7070:7447   */\n    tag_100:\n        /* \"#utility.yul\":7158:7161   */\n      0x00\n        /* \"#utility.yul\":7186:7225   */\n      tag_194\n        /* \"#utility.yul\":7219:7224   */\n      dup3\n        /* \"#utility.yul\":7186:7225   */\n      tag_97\n      jump\t// in\n    tag_194:\n        /* \"#utility.yul\":7241:7312   */\n      tag_195\n        /* \"#utility.yul\":7305:7311   */\n      dup2\n        /* \"#utility.yul\":7300:7303   */\n      dup6\n        /* \"#utility.yul\":7241:7312   */\n      tag_98\n      jump\t// in\n    tag_195:\n        /* \"#utility.yul\":7234:7312   */\n      swap4\n      pop\n        /* \"#utility.yul\":7321:7386   */\n      tag_196\n        /* \"#utility.yul\":7379:7385   */\n      dup2\n        /* \"#utility.yul\":7374:7377   */\n      dup6\n        /* \"#utility.yul\":7367:7371   */\n      0x20\n        /* \"#utility.yul\":7360:7365   */\n      dup7\n        /* \"#utility.yul\":7356:7372   */\n      add\n        /* \"#utility.yul\":7321:7386   */\n      tag_99\n      jump\t// in\n    tag_196:\n        /* \"#utility.yul\":7411:7440   */\n      tag_197\n        /* \"#utility.yul\":7433:7439   */\n      dup2\n        /* \"#utility.yul\":7411:7440   */\n      tag_85\n      jump\t// in\n    tag_197:\n        /* \"#utility.yul\":7406:7409   */\n      dup5\n        /* \"#utility.yul\":7402:7441   */\n      add\n        /* \"#utility.yul\":7395:7441   */\n      swap2\n      pop\n        /* \"#utility.yul\":7162:7447   */\n      pop\n        /* \"#utility.yul\":7070:7447   */\n      swap3\n      swap2\n      pop\n      pop\n      jump\t// out\n        /* \"#utility.yul\":7453:7766   */\n    tag_45:\n        /* \"#utility.yul\":7566:7570   */\n      0x00\n        /* \"#utility.yul\":7604:7606   */\n      0x20\n        /* \"#utility.yul\":7593:7602   */\n      dup3\n        /* \"#utility.yul\":7589:7607   */\n      add\n        /* \"#utility.yul\":7581:7607   */\n      swap1\n      pop\n        /* \"#utility.yul\":7653:7662   */\n      dup2\n        /* \"#utility.yul\":7647:7651   */\n      dup2\n        /* \"#utility.yul\":7643:7663   */\n      sub\n        /* \"#utility.yul\":7639:7640   */\n      0x00\n        /* \"#utility.yul\":7628:7637   */\n      dup4\n        /* \"#utility.yul\":7624:7641   */\n      add\n        /* \"#utility.yul\":7617:7664   */\n      mstore\n        /* \"#utility.yul\":7681:7759   */\n      tag_199\n        /* \"#utility.yul\":7754:7758   */\n      dup2\n        /* \"#utility.yul\":7745:7751   */\n      dup5\n        /* \"#utility.yul\":7681:7759   */\n      tag_100\n      jump\t// in\n    tag_199:\n        /* \"#utility.yul\":7673:7759   */\n      swap1\n      pop\n        /* \"#utility.yul\":7453:7766   */\n      swap3\n      swap2\n      pop\n      pop\n      jump\t// out\n        /* \"#utility.yul\":7772:7915   */\n    tag_101:\n        /* \"#utility.yul\":7829:7834   */\n      0x00\n        /* \"#utility.yul\":7860:7866   */\n      dup2\n        /* \"#utility.yul\":7854:7867   */\n      mload\n        /* \"#utility.yul\":7845:7867   */\n      swap1\n      pop\n        /* \"#utility.yul\":7876:7909   */\n      tag_201\n        /* \"#utility.yul\":7903:7908   */\n      dup2\n        /* \"#utility.yul\":7876:7909   */\n      tag_74\n      jump\t// in\n    tag_201:\n        /* \"#utility.yul\":7772:7915   */\n      swap3\n      swap2\n      pop\n      pop\n      jump\t// out\n        /* \"#utility.yul\":7921:8272   */\n    tag_49:\n        /* \"#utility.yul\":7991:7997   */\n      0x00\n        /* \"#utility.yul\":8040:8042   */\n      0x20\n        /* \"#utility.yul\":8028:8037   */\n      dup3\n        /* \"#utility.yul\":8019:8026   */\n      dup5\n        /* \"#utility.yul\":8015:8038   */\n      sub\n        /* \"#utility.yul\":8011:8043   */\n      slt\n        /* \"#utility.yul\":8008:8127   */\n      iszero\n      tag_203\n      jumpi\n        /* \"#utility.yul\":8046:8125   */\n      tag_204\n      tag_70\n      jump\t// in\n    tag_204:\n        /* \"#utility.yul\":8008:8127   */\n    tag_203:\n        /* \"#utility.yul\":8166:8167   */\n      0x00\n        /* \"#utility.yul\":8191:8255   */\n      tag_205\n        /* \"#utility.yul\":8247:8254   */\n      dup5\n        /* \"#utility.yul\":8238:8244   */\n      dup3\n        /* \"#utility.yul\":8227:8236   */\n      dup6\n        /* \"#utility.yul\":8223:8245   */\n      add\n        /* \"#utility.yul\":8191:8255   */\n      tag_101\n      jump\t// in\n    tag_205:\n        /* \"#utility.yul\":8181:8255   */\n      swap2\n      pop\n        /* \"#utility.yul\":8137:8265   */\n      pop\n        /* \"#utility.yul\":7921:8272   */\n      swap3\n      swap2\n      pop\n      pop\n      jump\t// out\n        /* \"#utility.yul\":8278:8501   */\n    tag_102:\n        /* \"#utility.yul\":8418:8452   */\n      0x426f6e644d616e616765723a2063616c6c6572206973206e6f7420746865206f\n        /* \"#utility.yul\":8414:8415   */\n      0x00\n        /* \"#utility.yul\":8406:8412   */\n      dup3\n        /* \"#utility.yul\":8402:8416   */\n      add\n        /* \"#utility.yul\":8395:8453   */\n      mstore\n        /* \"#utility.yul\":8487:8493   */\n      0x776e657200000000000000000000000000000000000000000000000000000000\n        /* \"#utility.yul\":8482:8484   */\n      0x20\n        /* \"#utility.yul\":8474:8480   */\n      dup3\n        /* \"#utility.yul\":8470:8485   */\n      add\n        /* \"#utility.yul\":8463:8494   */\n      mstore\n        /* \"#utility.yul\":8278:8501   */\n      pop\n      jump\t// out\n        /* \"#utility.yul\":8507:8873   */\n    tag_103:\n        /* \"#utility.yul\":8649:8652   */\n      0x00\n        /* \"#utility.yul\":8670:8737   */\n      tag_208\n        /* \"#utility.yul\":8734:8736   */\n      0x24\n        /* \"#utility.yul\":8729:8732   */\n      dup4\n        /* \"#utility.yul\":8670:8737   */\n      tag_98\n      jump\t// in\n    tag_208:\n        /* \"#utility.yul\":8663:8737   */\n      swap2\n      pop\n        /* \"#utility.yul\":8746:8839   */\n      tag_209\n        /* \"#utility.yul\":8835:8838   */\n      dup3\n        /* \"#utility.yul\":8746:8839   */\n      tag_102\n      jump\t// in\n    tag_209:\n        /* \"#utility.yul\":8864:8866   */\n      0x40\n        /* \"#utility.yul\":8859:8862   */\n      dup3\n        /* \"#utility.yul\":8855:8867   */\n      add\n        /* \"#utility.yul\":8848:8867   */\n      swap1\n      pop\n        /* \"#utility.yul\":8507:8873   */\n      swap2\n      swap1\n      pop\n      jump\t// out\n        /* \"#utility.yul\":8879:9298   */\n    tag_53:\n        /* \"#utility.yul\":9045:9049   */\n      0x00\n        /* \"#utility.yul\":9083:9085   */\n      0x20\n        /* \"#utility.yul\":9072:9081   */\n      dup3\n        /* \"#utility.yul\":9068:9086   */\n      add\n        /* \"#utility.yul\":9060:9086   */\n      swap1\n      pop\n        /* \"#utility.yul\":9132:9141   */\n      dup2\n        /* \"#utility.yul\":9126:9130   */\n      dup2\n        /* \"#utility.yul\":9122:9142   */\n      sub\n        /* \"#utility.yul\":9118:9119   */\n      0x00\n        /* \"#utility.yul\":9107:9116   */\n      dup4\n        /* \"#utility.yul\":9103:9120   */\n      add\n        /* \"#utility.yul\":9096:9143   */\n      mstore\n        /* \"#utility.yul\":9160:9291   */\n      tag_211\n        /* \"#utility.yul\":9286:9290   */\n      dup2\n        /* \"#utility.yul\":9160:9291   */\n      tag_103\n      jump\t// in\n    tag_211:\n        /* \"#utility.yul\":9152:9291   */\n      swap1\n      pop\n        /* \"#utility.yul\":8879:9298   */\n      swap2\n      swap1\n      pop\n      jump\t// out\n        /* \"#utility.yul\":9304:9533   */\n    tag_104:\n        /* \"#utility.yul\":9444:9478   */\n      0x426f6e644d616e616765723a206e6577206f776e657220697320746865207a65\n        /* \"#utility.yul\":9440:9441   */\n      0x00\n        /* \"#utility.yul\":9432:9438   */\n      dup3\n        /* \"#utility.yul\":9428:9442   */\n      add\n        /* \"#utility.yul\":9421:9479   */\n      mstore\n        /* \"#utility.yul\":9513:9525   */\n      0x726f206164647265737300000000000000000000000000000000000000000000\n        /* \"#utility.yul\":9508:9510   */\n      0x20\n        /* \"#utility.yul\":9500:9506   */\n      dup3\n        /* \"#utility.yul\":9496:9511   */\n      add\n        /* \"#utility.yul\":9489:9526   */\n      mstore\n        /* \"#utility.yul\":9304:9533   */\n      pop\n      jump\t// out\n        /* \"#utility.yul\":9539:9905   */\n    tag_105:\n        /* \"#utility.yul\":9681:9684   */\n      0x00\n        /* \"#utility.yul\":9702:9769   */\n      tag_214\n        /* \"#utility.yul\":9766:9768   */\n      0x2a\n        /* \"#utility.yul\":9761:9764   */\n      dup4\n        /* \"#utility.yul\":9702:9769   */\n      tag_98\n      jump\t// in\n    tag_214:\n        /* \"#utility.yul\":9695:9769   */\n      swap2\n      pop\n        /* \"#utility.yul\":9778:9871   */\n      tag_215\n        /* \"#utility.yul\":9867:9870   */\n      dup3\n        /* \"#utility.yul\":9778:9871   */\n      tag_104\n      jump\t// in\n    tag_215:\n        /* \"#utility.yul\":9896:9898   */\n      0x40\n        /* \"#utility.yul\":9891:9894   */\n      dup3\n        /* \"#utility.yul\":9887:9899   */\n      add\n        /* \"#utility.yul\":9880:9899   */\n      swap1\n      pop\n        /* \"#utility.yul\":9539:9905   */\n      swap2\n      swap1\n      pop\n      jump\t// out\n        /* \"#utility.yul\":9911:10330   */\n    tag_61:\n        /* \"#utility.yul\":10077:10081   */\n      0x00\n        /* \"#utility.yul\":10115:10117   */\n      0x20\n        /* \"#utility.yul\":10104:10113   */\n      dup3\n        /* \"#utility.yul\":10100:10118   */\n      add\n        /* \"#utility.yul\":10092:10118   */\n      swap1\n      pop\n        /* \"#utility.yul\":10164:10173   */\n      dup2\n        /* \"#utility.yul\":10158:10162   */\n      dup2\n        /* \"#utility.yul\":10154:10174   */\n      sub\n        /* \"#utility.yul\":10150:10151   */\n      0x00\n        /* \"#utility.yul\":10139:10148   */\n      dup4\n        /* \"#utility.yul\":10135:10152   */\n      add\n        /* \"#utility.yul\":10128:10175   */\n      mstore\n        /* \"#utility.yul\":10192:10323   */\n      tag_217\n        /* \"#utility.yul\":10318:10322   */\n      dup2\n        /* \"#utility.yul\":10192:10323   */\n      tag_105\n      jump\t// in\n    tag_217:\n        /* \"#utility.yul\":10184:10323   */\n      swap1\n      pop\n        /* \"#utility.yul\":9911:10330   */\n      swap2\n      swap1\n      pop\n      jump\t// out\n        /* \"#utility.yul\":10336:10563   */\n    tag_106:\n        /* \"#utility.yul\":10476:10510   */\n      0x426f6e644d616e616765723a2073656e646572206d7573742062652074686520\n        /* \"#utility.yul\":10472:10473   */\n      0x00\n        /* \"#utility.yul\":10464:10470   */\n      dup3\n        /* \"#utility.yul\":10460:10474   */\n      add\n        /* \"#utility.yul\":10453:10511   */\n      mstore\n        /* \"#utility.yul\":10545:10555   */\n      0x70726f706f736572000000000000000000000000000000000000000000000000\n        /* \"#utility.yul\":10540:10542   */\n      0x20\n        /* \"#utility.yul\":10532:10538   */\n      dup3\n        /* \"#utility.yul\":10528:10543   */\n      add\n        /* \"#utility.yul\":10521:10556   */\n      mstore\n        /* \"#utility.yul\":10336:10563   */\n      pop\n      jump\t// out\n        /* \"#utility.yul\":10569:10935   */\n    tag_107:\n        /* \"#utility.yul\":10711:10714   */\n      0x00\n        /* \"#utility.yul\":10732:10799   */\n      tag_220\n        /* \"#utility.yul\":10796:10798   */\n      0x28\n        /* \"#utility.yul\":10791:10794   */\n      dup4\n        /* \"#utility.yul\":10732:10799   */\n      tag_98\n      jump\t// in\n    tag_220:\n        /* \"#utility.yul\":10725:10799   */\n      swap2\n      pop\n        /* \"#utility.yul\":10808:10901   */\n      tag_221\n        /* \"#utility.yul\":10897:10900   */\n      dup3\n        /* \"#utility.yul\":10808:10901   */\n      tag_106\n      jump\t// in\n    tag_221:\n        /* \"#utility.yul\":10926:10928   */\n      0x40\n        /* \"#utility.yul\":10921:10924   */\n      dup3\n        /* \"#utility.yul\":10917:10929   */\n      add\n        /* \"#utility.yul\":10910:10929   */\n      swap1\n      pop\n        /* \"#utility.yul\":10569:10935   */\n      swap2\n      swap1\n      pop\n      jump\t// out\n        /* \"#utility.yul\":10941:11360   */\n    tag_68:\n        /* \"#utility.yul\":11107:11111   */\n      0x00\n        /* \"#utility.yul\":11145:11147   */\n      0x20\n        /* \"#utility.yul\":11134:11143   */\n      dup3\n        /* \"#utility.yul\":11130:11148   */\n      add\n        /* \"#utility.yul\":11122:11148   */\n      swap1\n      pop\n        /* \"#utility.yul\":11194:11203   */\n      dup2\n        /* \"#utility.yul\":11188:11192   */\n      dup2\n        /* \"#utility.yul\":11184:11204   */\n      sub\n        /* \"#utility.yul\":11180:11181   */\n      0x00\n        /* \"#utility.yul\":11169:11178   */\n      dup4\n        /* \"#utility.yul\":11165:11182   */\n      add\n        /* \"#utility.yul\":11158:11205   */\n      mstore\n        /* \"#utility.yul\":11222:11353   */\n      tag_223\n        /* \"#utility.yul\":11348:11352   */\n      dup2\n        /* \"#utility.yul\":11222:11353   */\n      tag_107\n      jump\t// in\n    tag_223:\n        /* \"#utility.yul\":11214:11353   */\n      swap1\n      pop\n        /* \"#utility.yul\":10941:11360   */\n      swap2\n      swap1\n      pop\n      jump\t// out\n\n    auxdata: 0xa2646970667358221220c943a7018db6464be010260f317fb5656e861882a3529d6e6010e6d7ee7fb3fe64736f6c634300081a0033\n}\n",
				"bytecode": {
					"linkReferences": {},
					"object": "608060405234801561000f575f80fd5b50604051610d14380380610d1483398181016040528101906100319190610116565b80805f806101000a81548173ffffffffffffffffffffffffffffffffffffffff021916908373ffffffffffffffffffffffffffffffffffffffff160217905550503360015f6101000a81548173ffffffffffffffffffffffffffffffffffffffff021916908373ffffffffffffffffffffffffffffffffffffffff16021790555050610141565b5f80fd5b5f73ffffffffffffffffffffffffffffffffffffffff82169050919050565b5f6100e5826100bc565b9050919050565b6100f5816100db565b81146100ff575f80fd5b50565b5f81519050610110816100ec565b92915050565b5f6020828403121561012b5761012a6100b8565b5b5f61013884828501610102565b91505092915050565b610bc68061014e5f395ff3fe608060405234801561000f575f80fd5b506004361061007b575f3560e01c80638da5cb5b116100595780638da5cb5b146100fd578063cc039d6e1461011b578063f2fde38b14610137578063f3b96f1c146101535761007b565b806302ad4d2a1461007f578063299ca478146100af578063461a4478146100cd575b5f80fd5b61009960048036038101906100949190610627565b610183565b6040516100a6919061066c565b60405180910390f35b6100b76101f7565b6040516100c491906106e0565b60405180910390f35b6100e760048036038101906100e29190610835565b61021a565b6040516100f4919061088b565b60405180910390f35b6101056102ba565b604051610112919061088b565b60405180910390f35b610135600480360381019061013091906108d7565b6102df565b005b610151600480360381019061014c9190610627565b610373565b005b61016d600480360381019061016891906108d7565b6104b3565b60405161017a919061066c565b60405180910390f35b5f6101c26040518060400160405280600c81526020017f4f564d5f50726f706f736572000000000000000000000000000000000000000081525061021a565b73ffffffffffffffffffffffffffffffffffffffff168273ffffffffffffffffffffffffffffffffffffffff16149050919050565b5f8054906101000a900473ffffffffffffffffffffffffffffffffffffffff1681565b5f805f9054906101000a900473ffffffffffffffffffffffffffffffffffffffff1673ffffffffffffffffffffffffffffffffffffffff1663bf40fac1836040518263ffffffff1660e01b81526004016102749190610987565b602060405180830381865afa15801561028f573d5f803e3d5ffd5b505050506040513d601f19601f820116820180604052508101906102b391906109bb565b9050919050565b60015f9054906101000a900473ffffffffffffffffffffffffffffffffffffffff1681565b60015f9054906101000a900473ffffffffffffffffffffffffffffffffffffffff1673ffffffffffffffffffffffffffffffffffffffff163373ffffffffffffffffffffffffffffffffffffffff161461036e576040517f08c379a000000000000000000000000000000000000000000000000000000000815260040161036590610a56565b60405180910390fd5b505050565b60015f9054906101000a900473ffffffffffffffffffffffffffffffffffffffff1673ffffffffffffffffffffffffffffffffffffffff163373ffffffffffffffffffffffffffffffffffffffff1614610402576040517f08c379a00000000000000000000000000000000000000000000000000000000081526004016103f990610a56565b60405180910390fd5b5f73ffffffffffffffffffffffffffffffffffffffff168173ffffffffffffffffffffffffffffffffffffffff1603610470576040517f08c379a000000000000000000000000000000000000000000000000000000000815260040161046790610ae4565b60405180910390fd5b8060015f6101000a81548173ffffffffffffffffffffffffffffffffffffffff021916908373ffffffffffffffffffffffffffffffffffffffff16021790555050565b5f60015f9054906101000a900473ffffffffffffffffffffffffffffffffffffffff1673ffffffffffffffffffffffffffffffffffffffff163373ffffffffffffffffffffffffffffffffffffffff1614610543576040517f08c379a000000000000000000000000000000000000000000000000000000000815260040161053a90610a56565b60405180910390fd5b8173ffffffffffffffffffffffffffffffffffffffff168373ffffffffffffffffffffffffffffffffffffffff16146105b1576040517f08c379a00000000000000000000000000000000000000000000000000000000081526004016105a890610b72565b60405180910390fd5b600190509392505050565b5f604051905090565b5f80fd5b5f80fd5b5f73ffffffffffffffffffffffffffffffffffffffff82169050919050565b5f6105f6826105cd565b9050919050565b610606816105ec565b8114610610575f80fd5b50565b5f81359050610621816105fd565b92915050565b5f6020828403121561063c5761063b6105c5565b5b5f61064984828501610613565b91505092915050565b5f8115159050919050565b61066681610652565b82525050565b5f60208201905061067f5f83018461065d565b92915050565b5f819050919050565b5f6106a86106a361069e846105cd565b610685565b6105cd565b9050919050565b5f6106b98261068e565b9050919050565b5f6106ca826106af565b9050919050565b6106da816106c0565b82525050565b5f6020820190506106f35f8301846106d1565b92915050565b5f80fd5b5f80fd5b5f601f19601f8301169050919050565b7f4e487b71000000000000000000000000000000000000000000000000000000005f52604160045260245ffd5b61074782610701565b810181811067ffffffffffffffff8211171561076657610765610711565b5b80604052505050565b5f6107786105bc565b9050610784828261073e565b919050565b5f67ffffffffffffffff8211156107a3576107a2610711565b5b6107ac82610701565b9050602081019050919050565b828183375f83830152505050565b5f6107d96107d484610789565b61076f565b9050828152602081018484840111156107f5576107f46106fd565b5b6108008482856107b9565b509392505050565b5f82601f83011261081c5761081b6106f9565b5b813561082c8482602086016107c7565b91505092915050565b5f6020828403121561084a576108496105c5565b5b5f82013567ffffffffffffffff811115610867576108666105c9565b5b61087384828501610808565b91505092915050565b610885816105ec565b82525050565b5f60208201905061089e5f83018461087c565b92915050565b5f819050919050565b6108b6816108a4565b81146108c0575f80fd5b50565b5f813590506108d1816108ad565b92915050565b5f805f606084860312156108ee576108ed6105c5565b5b5f6108fb868287016108c3565b935050602061090c86828701610613565b925050604061091d86828701610613565b9150509250925092565b5f81519050919050565b5f82825260208201905092915050565b8281835e5f83830152505050565b5f61095982610927565b6109638185610931565b9350610973818560208601610941565b61097c81610701565b840191505092915050565b5f6020820190508181035f83015261099f818461094f565b905092915050565b5f815190506109b5816105fd565b92915050565b5f602082840312156109d0576109cf6105c5565b5b5f6109dd848285016109a7565b91505092915050565b7f426f6e644d616e616765723a2063616c6c6572206973206e6f7420746865206f5f8201527f776e657200000000000000000000000000000000000000000000000000000000602082015250565b5f610a40602483610931565b9150610a4b826109e6565b604082019050919050565b5f6020820190508181035f830152610a6d81610a34565b9050919050565b7f426f6e644d616e616765723a206e6577206f776e657220697320746865207a655f8201527f726f206164647265737300000000000000000000000000000000000000000000602082015250565b5f610ace602a83610931565b9150610ad982610a74565b604082019050919050565b5f6020820190508181035f830152610afb81610ac2565b9050919050565b7f426f6e644d616e616765723a2073656e646572206d75737420626520746865205f8201527f70726f706f736572000000000000000000000000000000000000000000000000602082015250565b5f610b5c602883610931565b9150610b6782610b02565b604082019050919050565b5f6020820190508181035f830152610b8981610b50565b905091905056fea2646970667358221220c943a7018db6464be010260f317fb5656e861882a3529d6e6010e6d7ee7fb3fe64736f6c634300081a0033",
					"opcodes": "PUSH1 0x80 PUSH1 0x40 MSTORE CALLVALUE DUP1 ISZERO PUSH2 0xF JUMPI PUSH0 DUP1 REVERT JUMPDEST POP PUSH1 0x40 MLOAD PUSH2 0xD14 CODESIZE SUB DUP1 PUSH2 0xD14 DUP4 CODECOPY DUP2 DUP2 ADD PUSH1 0x40 MSTORE DUP2 ADD SWAP1 PUSH2 0x31 SWAP2 SWAP1 PUSH2 0x116 JUMP JUMPDEST DUP1 DUP1 PUSH0 DUP1 PUSH2 0x100 EXP DUP2 SLOAD DUP2 PUSH20 0xFFFFFFFFFFFFFFFFFFFFFFFFFFFFFFFFFFFFFFFF MUL NOT AND SWAP1 DUP4 PUSH20 0xFFFFFFFFFFFFFFFFFFFFFFFFFFFFFFFFFFFFFFFF AND MUL OR SWAP1 SSTORE POP POP CALLER PUSH1 0x1 PUSH0 PUSH2 0x100 EXP DUP2 SLOAD DUP2 PUSH20 0xFFFFFFFFFFFFFFFFFFFFFFFFFFFFFFFFFFFFFFFF MUL NOT AND SWAP1 DUP4 PUSH20 0xFFFFFFFFFFFFFFFFFFFFFFFFFFFFFFFFFFFFFFFF AND MUL OR SWAP1 SSTORE POP POP PUSH2 0x141 JUMP JUMPDEST PUSH0 DUP1 REVERT JUMPDEST PUSH0 PUSH20 0xFFFFFFFFFFFFFFFFFFFFFFFFFFFFFFFFFFFFFFFF DUP3 AND SWAP1 POP SWAP2 SWAP1 POP JUMP JUMPDEST PUSH0 PUSH2 0xE5 DUP3 PUSH2 0xBC JUMP JUMPDEST SWAP1 POP SWAP2 SWAP1 POP JUMP JUMPDEST PUSH2 0xF5 DUP2 PUSH2 0xDB JUMP JUMPDEST DUP2 EQ PUSH2 0xFF JUMPI PUSH0 DUP1 REVERT JUMPDEST POP JUMP JUMPDEST PUSH0 DUP2 MLOAD SWAP1 POP PUSH2 0x110 DUP2 PUSH2 0xEC JUMP JUMPDEST SWAP3 SWAP2 POP POP JUMP JUMPDEST PUSH0 PUSH1 0x20 DUP3 DUP5 SUB SLT ISZERO PUSH2 0x12B JUMPI PUSH2 0x12A PUSH2 0xB8 JUMP JUMPDEST JUMPDEST PUSH0 PUSH2 0x138 DUP5 DUP3 DUP6 ADD PUSH2 0x102 JUMP JUMPDEST SWAP2 POP POP SWAP3 SWAP2 POP POP JUMP JUMPDEST PUSH2 0xBC6 DUP1 PUSH2 0x14E PUSH0 CODECOPY PUSH0 RETURN INVALID PUSH1 0x80 PUSH1 0x40 MSTORE CALLVALUE DUP1 ISZERO PUSH2 0xF JUMPI PUSH0 DUP1 REVERT JUMPDEST POP PUSH1 0x4 CALLDATASIZE LT PUSH2 0x7B JUMPI PUSH0 CALLDATALOAD PUSH1 0xE0 SHR DUP1 PUSH4 0x8DA5CB5B GT PUSH2 0x59 JUMPI DUP1 PUSH4 0x8DA5CB5B EQ PUSH2 0xFD JUMPI DUP1 PUSH4 0xCC039D6E EQ PUSH2 0x11B JUMPI DUP1 PUSH4 0xF2FDE38B EQ PUSH2 0x137 JUMPI DUP1 PUSH4 0xF3B96F1C EQ PUSH2 0x153 JUMPI PUSH2 0x7B JUMP JUMPDEST DUP1 PUSH4 0x2AD4D2A EQ PUSH2 0x7F JUMPI DUP1 PUSH4 0x299CA478 EQ PUSH2 0xAF JUMPI DUP1 PUSH4 0x461A4478 EQ PUSH2 0xCD JUMPI JUMPDEST PUSH0 DUP1 REVERT JUMPDEST PUSH2 0x99 PUSH1 0x4 DUP1 CALLDATASIZE SUB DUP2 ADD SWAP1 PUSH2 0x94 SWAP2 SWAP1 PUSH2 0x627 JUMP JUMPDEST PUSH2 0x183 JUMP JUMPDEST PUSH1 0x40 MLOAD PUSH2 0xA6 SWAP2 SWAP1 PUSH2 0x66C JUMP JUMPDEST PUSH1 0x40 MLOAD DUP1 SWAP2 SUB SWAP1 RETURN JUMPDEST PUSH2 0xB7 PUSH2 0x1F7 JUMP JUMPDEST PUSH1 0x40 MLOAD PUSH2 0xC4 SWAP2 SWAP1 PUSH2 0x6E0 JUMP JUMPDEST PUSH1 0x40 MLOAD DUP1 SWAP2 SUB SWAP1 RETURN JUMPDEST PUSH2 0xE7 PUSH1 0x4 DUP1 CALLDATASIZE SUB DUP2 ADD SWAP1 PUSH2 0xE2 SWAP2 SWAP1 PUSH2 0x835 JUMP JUMPDEST PUSH2 0x21A JUMP JUMPDEST PUSH1 0x40 MLOAD PUSH2 0xF4 SWAP2 SWAP1 PUSH2 0x88B JUMP JUMPDEST PUSH1 0x40 MLOAD DUP1 SWAP2 SUB SWAP1 RETURN JUMPDEST PUSH2 0x105 PUSH2 0x2BA JUMP JUMPDEST PUSH1 0x40 MLOAD PUSH2 0x112 SWAP2 SWAP1 PUSH2 0x88B JUMP JUMPDEST PUSH1 0x40 MLOAD DUP1 SWAP2 SUB SWAP1 RETURN JUMPDEST PUSH2 0x135 PUSH1 0x4 DUP1 CALLDATASIZE SUB DUP2 ADD SWAP1 PUSH2 0x130 SWAP2 SWAP1 PUSH2 0x8D7 JUMP JUMPDEST PUSH2 0x2DF JUMP JUMPDEST STOP JUMPDEST PUSH2 0x151 PUSH1 0x4 DUP1 CALLDATASIZE SUB DUP2 ADD SWAP1 PUSH2 0x14C SWAP2 SWAP1 PUSH2 0x627 JUMP JUMPDEST PUSH2 0x373 JUMP JUMPDEST STOP JUMPDEST PUSH2 0x16D PUSH1 0x4 DUP1 CALLDATASIZE SUB DUP2 ADD SWAP1 PUSH2 0x168 SWAP2 SWAP1 PUSH2 0x8D7 JUMP JUMPDEST PUSH2 0x4B3 JUMP JUMPDEST PUSH1 0x40 MLOAD PUSH2 0x17A SWAP2 SWAP1 PUSH2 0x66C JUMP JUMPDEST PUSH1 0x40 MLOAD DUP1 SWAP2 SUB SWAP1 RETURN JUMPDEST PUSH0 PUSH2 0x1C2 PUSH1 0x40 MLOAD DUP1 PUSH1 0x40 ADD PUSH1 0x40 MSTORE DUP1 PUSH1 0xC DUP2 MSTORE PUSH1 0x20 ADD PUSH32 0x4F564D5F50726F706F7365720000000000000000000000000000000000000000 DUP2 MSTORE POP PUSH2 0x21A JUMP JUMPDEST PUSH20 0xFFFFFFFFFFFFFFFFFFFFFFFFFFFFFFFFFFFFFFFF AND DUP3 PUSH20 0xFFFFFFFFFFFFFFFFFFFFFFFFFFFFFFFFFFFFFFFF AND EQ SWAP1 POP SWAP2 SWAP1 POP JUMP JUMPDEST PUSH0 DUP1 SLOAD SWAP1 PUSH2 0x100 EXP SWAP1 DIV PUSH20 0xFFFFFFFFFFFFFFFFFFFFFFFFFFFFFFFFFFFFFFFF AND DUP2 JUMP JUMPDEST PUSH0 DUP1 PUSH0 SWAP1 SLOAD SWAP1 PUSH2 0x100 EXP SWAP1 DIV PUSH20 0xFFFFFFFFFFFFFFFFFFFFFFFFFFFFFFFFFFFFFFFF AND PUSH20 0xFFFFFFFFFFFFFFFFFFFFFFFFFFFFFFFFFFFFFFFF AND PUSH4 0xBF40FAC1 DUP4 PUSH1 0x40 MLOAD DUP3 PUSH4 0xFFFFFFFF AND PUSH1 0xE0 SHL DUP2 MSTORE PUSH1 0x4 ADD PUSH2 0x274 SWAP2 SWAP1 PUSH2 0x987 JUMP JUMPDEST PUSH1 0x20 PUSH1 0x40 MLOAD DUP1 DUP4 SUB DUP2 DUP7 GAS STATICCALL ISZERO DUP1 ISZERO PUSH2 0x28F JUMPI RETURNDATASIZE PUSH0 DUP1 RETURNDATACOPY RETURNDATASIZE PUSH0 REVERT JUMPDEST POP POP POP POP PUSH1 0x40 MLOAD RETURNDATASIZE PUSH1 0x1F NOT PUSH1 0x1F DUP3 ADD AND DUP3 ADD DUP1 PUSH1 0x40 MSTORE POP DUP2 ADD SWAP1 PUSH2 0x2B3 SWAP2 SWAP1 PUSH2 0x9BB JUMP JUMPDEST SWAP1 POP SWAP2 SWAP1 POP JUMP JUMPDEST PUSH1 0x1 PUSH0 SWAP1 SLOAD SWAP1 PUSH2 0x100 EXP SWAP1 DIV PUSH20 0xFFFFFFFFFFFFFFFFFFFFFFFFFFFFFFFFFFFFFFFF AND DUP2 JUMP JUMPDEST PUSH1 0x1 PUSH0 SWAP1 SLOAD SWAP1 PUSH2 0x100 EXP SWAP1 DIV PUSH20 0xFFFFFFFFFFFFFFFFFFFFFFFFFFFFFFFFFFFFFFFF AND PUSH20 0xFFFFFFFFFFFFFFFFFFFFFFFFFFFFFFFFFFFFFFFF AND CALLER PUSH20 0xFFFFFFFFFFFFFFFFFFFFFFFFFFFFFFFFFFFFFFFF AND EQ PUSH2 0x36E JUMPI PUSH1 0x40 MLOAD PUSH32 0x8C379A000000000000000000000000000000000000000000000000000000000 DUP2 MSTORE PUSH1 0x4 ADD PUSH2 0x365 SWAP1 PUSH2 0xA56 JUMP JUMPDEST PUSH1 0x40 MLOAD DUP1 SWAP2 SUB SWAP1 REVERT JUMPDEST POP POP POP JUMP JUMPDEST PUSH1 0x1 PUSH0 SWAP1 SLOAD SWAP1 PUSH2 0x100 EXP SWAP1 DIV PUSH20 0xFFFFFFFFFFFFFFFFFFFFFFFFFFFFFFFFFFFFFFFF AND PUSH20 0xFFFFFFFFFFFFFFFFFFFFFFFFFFFFFFFFFFFFFFFF AND CALLER PUSH20 0xFFFFFFFFFFFFFFFFFFFFFFFFFFFFFFFFFFFFFFFF AND EQ PUSH2 0x402 JUMPI PUSH1 0x40 MLOAD PUSH32 0x8C379A000000000000000000000000000000000000000000000000000000000 DUP2 MSTORE PUSH1 0x4 ADD PUSH2 0x3F9 SWAP1 PUSH2 0xA56 JUMP JUMPDEST PUSH1 0x40 MLOAD DUP1 SWAP2 SUB SWAP1 REVERT JUMPDEST PUSH0 PUSH20 0xFFFFFFFFFFFFFFFFFFFFFFFFFFFFFFFFFFFFFFFF AND DUP2 PUSH20 0xFFFFFFFFFFFFFFFFFFFFFFFFFFFFFFFFFFFFFFFF AND SUB PUSH2 0x470 JUMPI PUSH1 0x40 MLOAD PUSH32 0x8C379A000000000000000000000000000000000000000000000000000000000 DUP2 MSTORE PUSH1 0x4 ADD PUSH2 0x467 SWAP1 PUSH2 0xAE4 JUMP JUMPDEST PUSH1 0x40 MLOAD DUP1 SWAP2 SUB SWAP1 REVERT JUMPDEST DUP1 PUSH1 0x1 PUSH0 PUSH2 0x100 EXP DUP2 SLOAD DUP2 PUSH20 0xFFFFFFFFFFFFFFFFFFFFFFFFFFFFFFFFFFFFFFFF MUL NOT AND SWAP1 DUP4 PUSH20 0xFFFFFFFFFFFFFFFFFFFFFFFFFFFFFFFFFFFFFFFF AND MUL OR SWAP1 SSTORE POP POP JUMP JUMPDEST PUSH0 PUSH1 0x1 PUSH0 SWAP1 SLOAD SWAP1 PUSH2 0x100 EXP SWAP1 DIV PUSH20 0xFFFFFFFFFFFFFFFFFFFFFFFFFFFFFFFFFFFFFFFF AND PUSH20 0xFFFFFFFFFFFFFFFFFFFFFFFFFFFFFFFFFFFFFFFF AND CALLER PUSH20 0xFFFFFFFFFFFFFFFFFFFFFFFFFFFFFFFFFFFFFFFF AND EQ PUSH2 0x543 JUMPI PUSH1 0x40 MLOAD PUSH32 0x8C379A000000000000000000000000000000000000000000000000000000000 DUP2 MSTORE PUSH1 0x4 ADD PUSH2 0x53A SWAP1 PUSH2 0xA56 JUMP JUMPDEST PUSH1 0x40 MLOAD DUP1 SWAP2 SUB SWAP1 REVERT JUMPDEST DUP2 PUSH20 0xFFFFFFFFFFFFFFFFFFFFFFFFFFFFFFFFFFFFFFFF AND DUP4 PUSH20 0xFFFFFFFFFFFFFFFFFFFFFFFFFFFFFFFFFFFFFFFF AND EQ PUSH2 0x5B1 JUMPI PUSH1 0x40 MLOAD PUSH32 0x8C379A000000000000000000000000000000000000000000000000000000000 DUP2 MSTORE PUSH1 0x4 ADD PUSH2 0x5A8 SWAP1 PUSH2 0xB72 JUMP JUMPDEST PUSH1 0x40 MLOAD DUP1 SWAP2 SUB SWAP1 REVERT JUMPDEST PUSH1 0x1 SWAP1 POP SWAP4 SWAP3 POP POP POP JUMP JUMPDEST PUSH0 PUSH1 0x40 MLOAD SWAP1 POP SWAP1 JUMP JUMPDEST PUSH0 DUP1 REVERT JUMPDEST PUSH0 DUP1 REVERT JUMPDEST PUSH0 PUSH20 0xFFFFFFFFFFFFFFFFFFFFFFFFFFFFFFFFFFFFFFFF DUP3 AND SWAP1 POP SWAP2 SWAP1 POP JUMP JUMPDEST PUSH0 PUSH2 0x5F6 DUP3 PUSH2 0x5CD JUMP JUMPDEST SWAP1 POP SWAP2 SWAP1 POP JUMP JUMPDEST PUSH2 0x606 DUP2 PUSH2 0x5EC JUMP JUMPDEST DUP2 EQ PUSH2 0x610 JUMPI PUSH0 DUP1 REVERT JUMPDEST POP JUMP JUMPDEST PUSH0 DUP2 CALLDATALOAD SWAP1 POP PUSH2 0x621 DUP2 PUSH2 0x5FD JUMP JUMPDEST SWAP3 SWAP2 POP POP JUMP JUMPDEST PUSH0 PUSH1 0x20 DUP3 DUP5 SUB SLT ISZERO PUSH2 0x63C JUMPI PUSH2 0x63B PUSH2 0x5C5 JUMP JUMPDEST JUMPDEST PUSH0 PUSH2 0x649 DUP5 DUP3 DUP6 ADD PUSH2 0x613 JUMP JUMPDEST SWAP2 POP POP SWAP3 SWAP2 POP POP JUMP JUMPDEST PUSH0 DUP2 ISZERO ISZERO SWAP1 POP SWAP2 SWAP1 POP JUMP JUMPDEST PUSH2 0x666 DUP2 PUSH2 0x652 JUMP JUMPDEST DUP3 MSTORE POP POP JUMP JUMPDEST PUSH0 PUSH1 0x20 DUP3 ADD SWAP1 POP PUSH2 0x67F PUSH0 DUP4 ADD DUP5 PUSH2 0x65D JUMP JUMPDEST SWAP3 SWAP2 POP POP JUMP JUMPDEST PUSH0 DUP2 SWAP1 POP SWAP2 SWAP1 POP JUMP JUMPDEST PUSH0 PUSH2 0x6A8 PUSH2 0x6A3 PUSH2 0x69E DUP5 PUSH2 0x5CD JUMP JUMPDEST PUSH2 0x685 JUMP JUMPDEST PUSH2 0x5CD JUMP JUMPDEST SWAP1 POP SWAP2 SWAP1 POP JUMP JUMPDEST PUSH0 PUSH2 0x6B9 DUP3 PUSH2 0x68E JUMP JUMPDEST SWAP1 POP SWAP2 SWAP1 POP JUMP JUMPDEST PUSH0 PUSH2 0x6CA DUP3 PUSH2 0x6AF JUMP JUMPDEST SWAP1 POP SWAP2 SWAP1 POP JUMP JUMPDEST PUSH2 0x6DA DUP2 PUSH2 0x6C0 JUMP JUMPDEST DUP3 MSTORE POP POP JUMP JUMPDEST PUSH0 PUSH1 0x20 DUP3 ADD SWAP1 POP PUSH2 0x6F3 PUSH0 DUP4 ADD DUP5 PUSH2 0x6D1 JUMP JUMPDEST SWAP3 SWAP2 POP POP JUMP JUMPDEST PUSH0 DUP1 REVERT JUMPDEST PUSH0 DUP1 REVERT JUMPDEST PUSH0 PUSH1 0x1F NOT PUSH1 0x1F DUP4 ADD AND SWAP1 POP SWAP2 SWAP1 POP JUMP JUMPDEST PUSH32 0x4E487B7100000000000000000000000000000000000000000000000000000000 PUSH0 MSTORE PUSH1 0x41 PUSH1 0x4 MSTORE PUSH1 0x24 PUSH0 REVERT JUMPDEST PUSH2 0x747 DUP3 PUSH2 0x701 JUMP JUMPDEST DUP2 ADD DUP2 DUP2 LT PUSH8 0xFFFFFFFFFFFFFFFF DUP3 GT OR ISZERO PUSH2 0x766 JUMPI PUSH2 0x765 PUSH2 0x711 JUMP JUMPDEST JUMPDEST DUP1 PUSH1 0x40 MSTORE POP POP POP JUMP JUMPDEST PUSH0 PUSH2 0x778 PUSH2 0x5BC JUMP JUMPDEST SWAP1 POP PUSH2 0x784 DUP3 DUP3 PUSH2 0x73E JUMP JUMPDEST SWAP2 SWAP1 POP JUMP JUMPDEST PUSH0 PUSH8 0xFFFFFFFFFFFFFFFF DUP3 GT ISZERO PUSH2 0x7A3 JUMPI PUSH2 0x7A2 PUSH2 0x711 JUMP JUMPDEST JUMPDEST PUSH2 0x7AC DUP3 PUSH2 0x701 JUMP JUMPDEST SWAP1 POP PUSH1 0x20 DUP2 ADD SWAP1 POP SWAP2 SWAP1 POP JUMP JUMPDEST DUP3 DUP2 DUP4 CALLDATACOPY PUSH0 DUP4 DUP4 ADD MSTORE POP POP POP JUMP JUMPDEST PUSH0 PUSH2 0x7D9 PUSH2 0x7D4 DUP5 PUSH2 0x789 JUMP JUMPDEST PUSH2 0x76F JUMP JUMPDEST SWAP1 POP DUP3 DUP2 MSTORE PUSH1 0x20 DUP2 ADD DUP5 DUP5 DUP5 ADD GT ISZERO PUSH2 0x7F5 JUMPI PUSH2 0x7F4 PUSH2 0x6FD JUMP JUMPDEST JUMPDEST PUSH2 0x800 DUP5 DUP3 DUP6 PUSH2 0x7B9 JUMP JUMPDEST POP SWAP4 SWAP3 POP POP POP JUMP JUMPDEST PUSH0 DUP3 PUSH1 0x1F DUP4 ADD SLT PUSH2 0x81C JUMPI PUSH2 0x81B PUSH2 0x6F9 JUMP JUMPDEST JUMPDEST DUP2 CALLDATALOAD PUSH2 0x82C DUP5 DUP3 PUSH1 0x20 DUP7 ADD PUSH2 0x7C7 JUMP JUMPDEST SWAP2 POP POP SWAP3 SWAP2 POP POP JUMP JUMPDEST PUSH0 PUSH1 0x20 DUP3 DUP5 SUB SLT ISZERO PUSH2 0x84A JUMPI PUSH2 0x849 PUSH2 0x5C5 JUMP JUMPDEST JUMPDEST PUSH0 DUP3 ADD CALLDATALOAD PUSH8 0xFFFFFFFFFFFFFFFF DUP2 GT ISZERO PUSH2 0x867 JUMPI PUSH2 0x866 PUSH2 0x5C9 JUMP JUMPDEST JUMPDEST PUSH2 0x873 DUP5 DUP3 DUP6 ADD PUSH2 0x808 JUMP JUMPDEST SWAP2 POP POP SWAP3 SWAP2 POP POP JUMP JUMPDEST PUSH2 0x885 DUP2 PUSH2 0x5EC JUMP JUMPDEST DUP3 MSTORE POP POP JUMP JUMPDEST PUSH0 PUSH1 0x20 DUP3 ADD SWAP1 POP PUSH2 0x89E PUSH0 DUP4 ADD DUP5 PUSH2 0x87C JUMP JUMPDEST SWAP3 SWAP2 POP POP JUMP JUMPDEST PUSH0 DUP2 SWAP1 POP SWAP2 SWAP1 POP JUMP JUMPDEST PUSH2 0x8B6 DUP2 PUSH2 0x8A4 JUMP JUMPDEST DUP2 EQ PUSH2 0x8C0 JUMPI PUSH0 DUP1 REVERT JUMPDEST POP JUMP JUMPDEST PUSH0 DUP2 CALLDATALOAD SWAP1 POP PUSH2 0x8D1 DUP2 PUSH2 0x8AD JUMP JUMPDEST SWAP3 SWAP2 POP POP JUMP JUMPDEST PUSH0 DUP1 PUSH0 PUSH1 0x60 DUP5 DUP7 SUB SLT ISZERO PUSH2 0x8EE JUMPI PUSH2 0x8ED PUSH2 0x5C5 JUMP JUMPDEST JUMPDEST PUSH0 PUSH2 0x8FB DUP7 DUP3 DUP8 ADD PUSH2 0x8C3 JUMP JUMPDEST SWAP4 POP POP PUSH1 0x20 PUSH2 0x90C DUP7 DUP3 DUP8 ADD PUSH2 0x613 JUMP JUMPDEST SWAP3 POP POP PUSH1 0x40 PUSH2 0x91D DUP7 DUP3 DUP8 ADD PUSH2 0x613 JUMP JUMPDEST SWAP2 POP POP SWAP3 POP SWAP3 POP SWAP3 JUMP JUMPDEST PUSH0 DUP2 MLOAD SWAP1 POP SWAP2 SWAP1 POP JUMP JUMPDEST PUSH0 DUP3 DUP3 MSTORE PUSH1 0x20 DUP3 ADD SWAP1 POP SWAP3 SWAP2 POP POP JUMP JUMPDEST DUP3 DUP2 DUP4 MCOPY PUSH0 DUP4 DUP4 ADD MSTORE POP POP POP JUMP JUMPDEST PUSH0 PUSH2 0x959 DUP3 PUSH2 0x927 JUMP JUMPDEST PUSH2 0x963 DUP2 DUP6 PUSH2 0x931 JUMP JUMPDEST SWAP4 POP PUSH2 0x973 DUP2 DUP6 PUSH1 0x20 DUP7 ADD PUSH2 0x941 JUMP JUMPDEST PUSH2 0x97C DUP2 PUSH2 0x701 JUMP JUMPDEST DUP5 ADD SWAP2 POP POP SWAP3 SWAP2 POP POP JUMP JUMPDEST PUSH0 PUSH1 0x20 DUP3 ADD SWAP1 POP DUP2 DUP2 SUB PUSH0 DUP4 ADD MSTORE PUSH2 0x99F DUP2 DUP5 PUSH2 0x94F JUMP JUMPDEST SWAP1 POP SWAP3 SWAP2 POP POP JUMP JUMPDEST PUSH0 DUP2 MLOAD SWAP1 POP PUSH2 0x9B5 DUP2 PUSH2 0x5FD JUMP JUMPDEST SWAP3 SWAP2 POP POP JUMP JUMPDEST PUSH0 PUSH1 0x20 DUP3 DUP5 SUB SLT ISZERO PUSH2 0x9D0 JUMPI PUSH2 0x9CF PUSH2 0x5C5 JUMP JUMPDEST JUMPDEST PUSH0 PUSH2 0x9DD DUP5 DUP3 DUP6 ADD PUSH2 0x9A7 JUMP JUMPDEST SWAP2 POP POP SWAP3 SWAP2 POP POP JUMP JUMPDEST PUSH32 0x426F6E644D616E616765723A2063616C6C6572206973206E6F7420746865206F PUSH0 DUP3 ADD MSTORE PUSH32 0x776E657200000000000000000000000000000000000000000000000000000000 PUSH1 0x20 DUP3 ADD MSTORE POP JUMP JUMPDEST PUSH0 PUSH2 0xA40 PUSH1 0x24 DUP4 PUSH2 0x931 JUMP JUMPDEST SWAP2 POP PUSH2 0xA4B DUP3 PUSH2 0x9E6 JUMP JUMPDEST PUSH1 0x40 DUP3 ADD SWAP1 POP SWAP2 SWAP1 POP JUMP JUMPDEST PUSH0 PUSH1 0x20 DUP3 ADD SWAP1 POP DUP2 DUP2 SUB PUSH0 DUP4 ADD MSTORE PUSH2 0xA6D DUP2 PUSH2 0xA34 JUMP JUMPDEST SWAP1 POP SWAP2 SWAP1 POP JUMP JUMPDEST PUSH32 0x426F6E644D616E616765723A206E6577206F776E657220697320746865207A65 PUSH0 DUP3 ADD MSTORE PUSH32 0x726F206164647265737300000000000000000000000000000000000000000000 PUSH1 0x20 DUP3 ADD MSTORE POP JUMP JUMPDEST PUSH0 PUSH2 0xACE PUSH1 0x2A DUP4 PUSH2 0x931 JUMP JUMPDEST SWAP2 POP PUSH2 0xAD9 DUP3 PUSH2 0xA74 JUMP JUMPDEST PUSH1 0x40 DUP3 ADD SWAP1 POP SWAP2 SWAP1 POP JUMP JUMPDEST PUSH0 PUSH1 0x20 DUP3 ADD SWAP1 POP DUP2 DUP2 SUB PUSH0 DUP4 ADD MSTORE PUSH2 0xAFB DUP2 PUSH2 0xAC2 JUMP JUMPDEST SWAP1 POP SWAP2 SWAP1 POP JUMP JUMPDEST PUSH32 0x426F6E644D616E616765723A2073656E646572206D7573742062652074686520 PUSH0 DUP3 ADD MSTORE PUSH32 0x70726F706F736572000000000000000000000000000000000000000000000000 PUSH1 0x20 DUP3 ADD MSTORE POP JUMP JUMPDEST PUSH0 PUSH2 0xB5C PUSH1 0x28 DUP4 PUSH2 0x931 JUMP JUMPDEST SWAP2 POP PUSH2 0xB67 DUP3 PUSH2 0xB02 JUMP JUMPDEST PUSH1 0x40 DUP3 ADD SWAP1 POP SWAP2 SWAP1 POP JUMP JUMPDEST PUSH0 PUSH1 0x20 DUP3 ADD SWAP1 POP DUP2 DUP2 SUB PUSH0 DUP4 ADD MSTORE PUSH2 0xB89 DUP2 PUSH2 0xB50 JUMP JUMPDEST SWAP1 POP SWAP2 SWAP1 POP JUMP INVALID LOG2 PUSH5 0x6970667358 0x22 SLT KECCAK256 0xC9 NUMBER 0xA7 ADD DUP14 0xB6 CHAINID 0x4B 0xE0 LT 0x26 0xF BALANCE PUSH32 0xB5656E861882A3529D6E6010E6D7EE7FB3FE64736F6C634300081A0033000000 "
				},
				"gasEstimates": {
					"creation": {
						"codeDepositCost": "602800",
						"executionCost": "infinite",
						"totalCost": "infinite"
					},
					"external": {
						"isCollateralized(address)": "infinite",
						"isCollateralizedByChainId(uint256,address,address)": "infinite",
						"libAddressManager()": "infinite",
						"owner()": "2508",
						"registerSequencerByChainId(uint256,address,address)": "infinite",
						"resolve(string)": "infinite",
						"transferOwnership(address)": "26962"
					}
				},
				"methodIdentifiers": {
					"isCollateralized(address)": "02ad4d2a",
					"isCollateralizedByChainId(uint256,address,address)": "f3b96f1c",
					"libAddressManager()": "299ca478",
					"owner()": "8da5cb5b",
					"registerSequencerByChainId(uint256,address,address)": "cc039d6e",
					"resolve(string)": "461a4478",
					"transferOwnership(address)": "f2fde38b"
				}
			},
			"storageLayout": {
				"storage": [
					{
						"astId": 253,
						"contract": "contracts/BondManager.sol:BondManager",
						"label": "libAddressManager",
						"offset": 0,
						"slot": "0",
						"type": "t_contract(Lib_AddressManager)245"
					},
					{
						"astId": 12,
						"contract": "contracts/BondManager.sol:BondManager",
						"label": "owner",
						"offset": 0,
						"slot": "1",
						"type": "t_address"
					}
				],
				"types": {
					"t_address": {
						"encoding": "inplace",
						"label": "address",
						"numberOfBytes": "20"
					},
					"t_contract(Lib_AddressManager)245": {
						"encoding": "inplace",
						"label": "contract Lib_AddressManager",
						"numberOfBytes": "20"
					}
				}
			},
			"userdoc": {
				"kind": "user",
				"methods": {
					"isCollateralized(address)": {
						"notice": "Checks whether a given address is properly collateralized and can perform actions within the system."
					},
					"isCollateralizedByChainId(uint256,address,address)": {
						"notice": "Checks whether an address is collateralized by chain ID. Restricted to onlyOwner to prevent unauthorized access."
					},
					"registerSequencerByChainId(uint256,address,address)": {
						"notice": "Registers a sequencer by chain ID. Restricted to onlyOwner to prevent unauthorized access."
					},
					"resolve(string)": {
						"notice": "Resolves the address associated with a given name."
					}
				},
				"version": 1
			}
		}
	}
}