{
	"contracts/Lib_AddressManager.sol": {
		"Lib_AddressManager": {
			"abi": [
				{
					"anonymous": false,
					"inputs": [
						{
							"indexed": true,
							"internalType": "string",
							"name": "_name",
							"type": "string"
						},
						{
							"indexed": false,
							"internalType": "address",
							"name": "_newAddress",
							"type": "address"
						},
						{
							"indexed": false,
							"internalType": "address",
							"name": "_oldAddress",
							"type": "address"
						}
					],
					"name": "AddressSet",
					"type": "event"
				},
				{
					"anonymous": false,
					"inputs": [
						{
							"indexed": true,
							"internalType": "address",
							"name": "previousOwner",
							"type": "address"
						},
						{
							"indexed": true,
							"internalType": "address",
							"name": "newOwner",
							"type": "address"
						}
					],
					"name": "OwnershipTransferred",
					"type": "event"
				},
				{
					"inputs": [
						{
							"internalType": "string",
							"name": "_name",
							"type": "string"
						}
					],
					"name": "getAddress",
					"outputs": [
						{
							"internalType": "address",
							"name": "",
							"type": "address"
						}
					],
					"stateMutability": "view",
					"type": "function"
				},
				{
					"inputs": [],
					"name": "owner",
					"outputs": [
						{
							"internalType": "address",
							"name": "",
							"type": "address"
						}
					],
					"stateMutability": "view",
					"type": "function"
				},
				{
					"inputs": [],
					"name": "renounceOwnership",
					"outputs": [],
					"stateMutability": "nonpayable",
					"type": "function"
				},
				{
					"inputs": [
						{
							"internalType": "string",
							"name": "_name",
							"type": "string"
						},
						{
							"internalType": "address",
							"name": "_address",
							"type": "address"
						}
					],
					"name": "setAddress",
					"outputs": [],
					"stateMutability": "nonpayable",
					"type": "function"
				},
				{
					"inputs": [
						{
							"internalType": "address",
							"name": "newOwner",
							"type": "address"
						}
					],
					"name": "transferOwnership",
					"outputs": [],
					"stateMutability": "nonpayable",
					"type": "function"
				}
			],
			"devdoc": {
				"kind": "dev",
				"methods": {
					"getAddress(string)": {
						"params": {
							"_name": "Name to retrieve an address for."
						},
						"returns": {
							"_0": "Address associated with the given name."
						}
					},
					"owner()": {
						"details": "Returns the address of the current owner."
					},
					"renounceOwnership()": {
						"details": "Leaves the contract without owner. It will not be possible to call `onlyOwner` functions anymore. Can only be called by the current owner. NOTE: Renouncing ownership will leave the contract without an owner, thereby removing any functionality that is only available to the owner."
					},
					"setAddress(string,address)": {
						"params": {
							"_address": "Address to associate with the name.",
							"_name": "String name to associate an address with."
						}
					},
					"transferOwnership(address)": {
						"details": "Transfers ownership of the contract to a new account (`newOwner`). Can only be called by the current owner."
					}
				},
				"title": "Lib_AddressManager",
				"version": 1
			},
			"evm": {
				"assembly": "    /* \"contracts/Lib_AddressManager.sol\":159:1691  contract Lib_AddressManager is Ownable {... */\n  mstore(0x40, 0x80)\n  callvalue\n  dup1\n  iszero\n  tag_1\n  jumpi\n  0x00\n  dup1\n  revert\ntag_1:\n  pop\n    /* \"contracts/Ownable.sol\":860:883  _setOwner(_msgSender()) */\n  tag_4\n    /* \"contracts/Ownable.sol\":870:882  _msgSender() */\n  tag_5\n    /* \"contracts/Ownable.sol\":870:880  _msgSender */\n  shl(0x20, tag_6)\n    /* \"contracts/Ownable.sol\":870:882  _msgSender() */\n  0x20\n  shr\n  jump\t// in\ntag_5:\n    /* \"contracts/Ownable.sol\":860:869  _setOwner */\n  shl(0x20, tag_7)\n    /* \"contracts/Ownable.sol\":860:883  _setOwner(_msgSender()) */\n  0x20\n  shr\n  jump\t// in\ntag_4:\n    /* \"contracts/Lib_AddressManager.sol\":159:1691  contract Lib_AddressManager is Ownable {... */\n  jump(tag_8)\n    /* \"contracts/Context.sol\":587:683  function _msgSender() internal view virtual returns (address) {... */\ntag_6:\n    /* \"contracts/Context.sol\":640:647  address */\n  0x00\n    /* \"contracts/Context.sol\":666:676  msg.sender */\n  caller\n    /* \"contracts/Context.sol\":659:676  return msg.sender */\n  swap1\n  pop\n    /* \"contracts/Context.sol\":587:683  function _msgSender() internal view virtual returns (address) {... */\n  swap1\n  jump\t// out\n    /* \"contracts/Ownable.sol\":2034:2203  function _setOwner(address newOwner) private {... */\ntag_7:\n    /* \"contracts/Ownable.sol\":2089:2105  address oldOwner */\n  0x00\n    /* \"contracts/Ownable.sol\":2108:2114  _owner */\n  dup1\n  0x00\n  swap1\n  sload\n  swap1\n  0x0100\n  exp\n  swap1\n  div\n  0xffffffffffffffffffffffffffffffffffffffff\n  and\n    /* \"contracts/Ownable.sol\":2089:2114  address oldOwner = _owner */\n  swap1\n  pop\n    /* \"contracts/Ownable.sol\":2133:2141  newOwner */\n  dup2\n    /* \"contracts/Ownable.sol\":2124:2130  _owner */\n  0x00\n  dup1\n    /* \"contracts/Ownable.sol\":2124:2141  _owner = newOwner */\n  0x0100\n  exp\n  dup2\n  sload\n  dup2\n  0xffffffffffffffffffffffffffffffffffffffff\n  mul\n  not\n  and\n  swap1\n  dup4\n  0xffffffffffffffffffffffffffffffffffffffff\n  and\n  mul\n  or\n  swap1\n  sstore\n  pop\n    /* \"contracts/Ownable.sol\":2187:2195  newOwner */\n  dup2\n    /* \"contracts/Ownable.sol\":2156:2196  OwnershipTransferred(oldOwner, newOwner) */\n  0xffffffffffffffffffffffffffffffffffffffff\n  and\n    /* \"contracts/Ownable.sol\":2177:2185  oldOwner */\n  dup2\n    /* \"contracts/Ownable.sol\":2156:2196  OwnershipTransferred(oldOwner, newOwner) */\n  0xffffffffffffffffffffffffffffffffffffffff\n  and\n  0x8be0079c531659141344cd1fd0a4f28419497f9722a3daafe3b4186f6b6457e0\n  mload(0x40)\n  mload(0x40)\n  dup1\n  swap2\n  sub\n  swap1\n  log3\n    /* \"contracts/Ownable.sol\":2079:2203  {... */\n  pop\n    /* \"contracts/Ownable.sol\":2034:2203  function _setOwner(address newOwner) private {... */\n  pop\n  jump\t// out\n    /* \"contracts/Lib_AddressManager.sol\":159:1691  contract Lib_AddressManager is Ownable {... */\ntag_8:\n  dataSize(sub_0)\n  dup1\n  dataOffset(sub_0)\n  0x00\n  codecopy\n  0x00\n  return\nstop\n\nsub_0: assembly {\n        /* \"contracts/Lib_AddressManager.sol\":159:1691  contract Lib_AddressManager is Ownable {... */\n      mstore(0x40, 0x80)\n      callvalue\n      dup1\n      iszero\n      tag_1\n      jumpi\n      0x00\n      dup1\n      revert\n    tag_1:\n      pop\n      jumpi(tag_2, lt(calldatasize, 0x04))\n      shr(0xe0, calldataload(0x00))\n      dup1\n      0x715018a6\n      eq\n      tag_3\n      jumpi\n      dup1\n      0x8da5cb5b\n      eq\n      tag_4\n      jumpi\n      dup1\n      0x9b2ea4bd\n      eq\n      tag_5\n      jumpi\n      dup1\n      0xbf40fac1\n      eq\n      tag_6\n      jumpi\n      dup1\n      0xf2fde38b\n      eq\n      tag_7\n      jumpi\n    tag_2:\n      0x00\n      dup1\n      revert\n        /* \"contracts/Ownable.sol\":1598:1690  function renounceOwnership() public virtual onlyOwner {... */\n    tag_3:\n      tag_8\n      tag_9\n      jump\t// in\n    tag_8:\n      stop\n        /* \"contracts/Ownable.sol\":966:1051  function owner() public view virtual returns (address) {... */\n    tag_4:\n      tag_10\n      tag_11\n      jump\t// in\n    tag_10:\n      mload(0x40)\n      tag_12\n      swap2\n      swap1\n      tag_13\n      jump\t// in\n    tag_12:\n      mload(0x40)\n      dup1\n      swap2\n      sub\n      swap1\n      return\n        /* \"contracts/Lib_AddressManager.sol\":731:1009  function setAddress(string memory _name, address _address) external onlyOwner {... */\n    tag_5:\n      tag_14\n      0x04\n      dup1\n      calldatasize\n      sub\n      dup2\n      add\n      swap1\n      tag_15\n      swap2\n      swap1\n      tag_16\n      jump\t// in\n    tag_15:\n      tag_17\n      jump\t// in\n    tag_14:\n      stop\n        /* \"contracts/Lib_AddressManager.sol\":1198:1325  function getAddress(string memory _name) external view returns (address) {... */\n    tag_6:\n      tag_18\n      0x04\n      dup1\n      calldatasize\n      sub\n      dup2\n      add\n      swap1\n      tag_19\n      swap2\n      swap1\n      tag_20\n      jump\t// in\n    tag_19:\n      tag_21\n      jump\t// in\n    tag_18:\n      mload(0x40)\n      tag_22\n      swap2\n      swap1\n      tag_13\n      jump\t// in\n    tag_22:\n      mload(0x40)\n      dup1\n      swap2\n      sub\n      swap1\n      return\n        /* \"contracts/Ownable.sol\":1839:2028  function transferOwnership(address newOwner) public virtual onlyOwner {... */\n    tag_7:\n      tag_23\n      0x04\n      dup1\n      calldatasize\n      sub\n      dup2\n      add\n      swap1\n      tag_24\n      swap2\n      swap1\n      tag_25\n      jump\t// in\n    tag_24:\n      tag_26\n      jump\t// in\n    tag_23:\n      stop\n        /* \"contracts/Ownable.sol\":1598:1690  function renounceOwnership() public virtual onlyOwner {... */\n    tag_9:\n        /* \"contracts/Ownable.sol\":1189:1201  _msgSender() */\n      tag_28\n        /* \"contracts/Ownable.sol\":1189:1199  _msgSender */\n      tag_29\n        /* \"contracts/Ownable.sol\":1189:1201  _msgSender() */\n      jump\t// in\n    tag_28:\n        /* \"contracts/Ownable.sol\":1178:1201  owner() == _msgSender() */\n      0xffffffffffffffffffffffffffffffffffffffff\n      and\n        /* \"contracts/Ownable.sol\":1178:1185  owner() */\n      tag_30\n        /* \"contracts/Ownable.sol\":1178:1183  owner */\n      tag_11\n        /* \"contracts/Ownable.sol\":1178:1185  owner() */\n      jump\t// in\n    tag_30:\n        /* \"contracts/Ownable.sol\":1178:1201  owner() == _msgSender() */\n      0xffffffffffffffffffffffffffffffffffffffff\n      and\n      eq\n        /* \"contracts/Ownable.sol\":1170:1238  require(owner() == _msgSender(), \"Ownable: caller is not the owner\") */\n      tag_31\n      jumpi\n      mload(0x40)\n      0x08c379a000000000000000000000000000000000000000000000000000000000\n      dup2\n      mstore\n      0x04\n      add\n      tag_32\n      swap1\n      tag_33\n      jump\t// in\n    tag_32:\n      mload(0x40)\n      dup1\n      swap2\n      sub\n      swap1\n      revert\n    tag_31:\n        /* \"contracts/Ownable.sol\":1662:1683  _setOwner(address(0)) */\n      tag_35\n        /* \"contracts/Ownable.sol\":1680:1681  0 */\n      0x00\n        /* \"contracts/Ownable.sol\":1662:1671  _setOwner */\n      tag_36\n        /* \"contracts/Ownable.sol\":1662:1683  _setOwner(address(0)) */\n      jump\t// in\n    tag_35:\n        /* \"contracts/Ownable.sol\":1598:1690  function renounceOwnership() public virtual onlyOwner {... */\n      jump\t// out\n        /* \"contracts/Ownable.sol\":966:1051  function owner() public view virtual returns (address) {... */\n    tag_11:\n        /* \"contracts/Ownable.sol\":1012:1019  address */\n      0x00\n        /* \"contracts/Ownable.sol\":1038:1044  _owner */\n      dup1\n      0x00\n      swap1\n      sload\n      swap1\n      0x0100\n      exp\n      swap1\n      div\n      0xffffffffffffffffffffffffffffffffffffffff\n      and\n        /* \"contracts/Ownable.sol\":1031:1044  return _owner */\n      swap1\n      pop\n        /* \"contracts/Ownable.sol\":966:1051  function owner() public view virtual returns (address) {... */\n      swap1\n      jump\t// out\n        /* \"contracts/Lib_AddressManager.sol\":731:1009  function setAddress(string memory _name, address _address) external onlyOwner {... */\n    tag_17:\n        /* \"contracts/Ownable.sol\":1189:1201  _msgSender() */\n      tag_39\n        /* \"contracts/Ownable.sol\":1189:1199  _msgSender */\n      tag_29\n        /* \"contracts/Ownable.sol\":1189:1201  _msgSender() */\n      jump\t// in\n    tag_39:\n        /* \"contracts/Ownable.sol\":1178:1201  owner() == _msgSender() */\n      0xffffffffffffffffffffffffffffffffffffffff\n      and\n        /* \"contracts/Ownable.sol\":1178:1185  owner() */\n      tag_40\n        /* \"contracts/Ownable.sol\":1178:1183  owner */\n      tag_11\n        /* \"contracts/Ownable.sol\":1178:1185  owner() */\n      jump\t// in\n    tag_40:\n        /* \"contracts/Ownable.sol\":1178:1201  owner() == _msgSender() */\n      0xffffffffffffffffffffffffffffffffffffffff\n      and\n      eq\n        /* \"contracts/Ownable.sol\":1170:1238  require(owner() == _msgSender(), \"Ownable: caller is not the owner\") */\n      tag_41\n      jumpi\n      mload(0x40)\n      0x08c379a000000000000000000000000000000000000000000000000000000000\n      dup2\n      mstore\n      0x04\n      add\n      tag_42\n      swap1\n      tag_33\n      jump\t// in\n    tag_42:\n      mload(0x40)\n      dup1\n      swap2\n      sub\n      swap1\n      revert\n    tag_41:\n        /* \"contracts/Lib_AddressManager.sol\":819:835  bytes32 nameHash */\n      0x00\n        /* \"contracts/Lib_AddressManager.sol\":838:857  _getNameHash(_name) */\n      tag_44\n        /* \"contracts/Lib_AddressManager.sol\":851:856  _name */\n      dup4\n        /* \"contracts/Lib_AddressManager.sol\":838:850  _getNameHash */\n      tag_45\n        /* \"contracts/Lib_AddressManager.sol\":838:857  _getNameHash(_name) */\n      jump\t// in\n    tag_44:\n        /* \"contracts/Lib_AddressManager.sol\":819:857  bytes32 nameHash = _getNameHash(_name) */\n      swap1\n      pop\n        /* \"contracts/Lib_AddressManager.sol\":867:885  address oldAddress */\n      0x00\n        /* \"contracts/Lib_AddressManager.sol\":888:897  addresses */\n      0x01\n        /* \"contracts/Lib_AddressManager.sol\":888:907  addresses[nameHash] */\n      0x00\n        /* \"contracts/Lib_AddressManager.sol\":898:906  nameHash */\n      dup4\n        /* \"contracts/Lib_AddressManager.sol\":888:907  addresses[nameHash] */\n      dup2\n      mstore\n      0x20\n      add\n      swap1\n      dup2\n      mstore\n      0x20\n      add\n      0x00\n      keccak256\n      0x00\n      swap1\n      sload\n      swap1\n      0x0100\n      exp\n      swap1\n      div\n      0xffffffffffffffffffffffffffffffffffffffff\n      and\n        /* \"contracts/Lib_AddressManager.sol\":867:907  address oldAddress = addresses[nameHash] */\n      swap1\n      pop\n        /* \"contracts/Lib_AddressManager.sol\":939:947  _address */\n      dup3\n        /* \"contracts/Lib_AddressManager.sol\":917:926  addresses */\n      0x01\n        /* \"contracts/Lib_AddressManager.sol\":917:936  addresses[nameHash] */\n      0x00\n        /* \"contracts/Lib_AddressManager.sol\":927:935  nameHash */\n      dup5\n        /* \"contracts/Lib_AddressManager.sol\":917:936  addresses[nameHash] */\n      dup2\n      mstore\n      0x20\n      add\n      swap1\n      dup2\n      mstore\n      0x20\n      add\n      0x00\n      keccak256\n      0x00\n        /* \"contracts/Lib_AddressManager.sol\":917:947  addresses[nameHash] = _address */\n      0x0100\n      exp\n      dup2\n      sload\n      dup2\n      0xffffffffffffffffffffffffffffffffffffffff\n      mul\n      not\n      and\n      swap1\n      dup4\n      0xffffffffffffffffffffffffffffffffffffffff\n      and\n      mul\n      or\n      swap1\n      sstore\n      pop\n        /* \"contracts/Lib_AddressManager.sol\":974:979  _name */\n      dup4\n        /* \"contracts/Lib_AddressManager.sol\":963:1002  AddressSet(_name, _address, oldAddress) */\n      mload(0x40)\n      tag_46\n      swap2\n      swap1\n      tag_47\n      jump\t// in\n    tag_46:\n      mload(0x40)\n      dup1\n      swap2\n      sub\n      swap1\n      keccak256\n      0x9416a153a346f93d95f94b064ae3f148b6460473c6e82b3f9fc2521b873fcd6c\n        /* \"contracts/Lib_AddressManager.sol\":981:989  _address */\n      dup5\n        /* \"contracts/Lib_AddressManager.sol\":991:1001  oldAddress */\n      dup4\n        /* \"contracts/Lib_AddressManager.sol\":963:1002  AddressSet(_name, _address, oldAddress) */\n      mload(0x40)\n      tag_48\n      swap3\n      swap2\n      swap1\n      tag_49\n      jump\t// in\n    tag_48:\n      mload(0x40)\n      dup1\n      swap2\n      sub\n      swap1\n      log2\n        /* \"contracts/Lib_AddressManager.sol\":809:1009  {... */\n      pop\n      pop\n        /* \"contracts/Lib_AddressManager.sol\":731:1009  function setAddress(string memory _name, address _address) external onlyOwner {... */\n      pop\n      pop\n      jump\t// out\n        /* \"contracts/Lib_AddressManager.sol\":1198:1325  function getAddress(string memory _name) external view returns (address) {... */\n    tag_21:\n        /* \"contracts/Lib_AddressManager.sol\":1262:1269  address */\n      0x00\n        /* \"contracts/Lib_AddressManager.sol\":1288:1297  addresses */\n      0x01\n        /* \"contracts/Lib_AddressManager.sol\":1288:1318  addresses[_getNameHash(_name)] */\n      0x00\n        /* \"contracts/Lib_AddressManager.sol\":1298:1317  _getNameHash(_name) */\n      tag_51\n        /* \"contracts/Lib_AddressManager.sol\":1311:1316  _name */\n      dup5\n        /* \"contracts/Lib_AddressManager.sol\":1298:1310  _getNameHash */\n      tag_45\n        /* \"contracts/Lib_AddressManager.sol\":1298:1317  _getNameHash(_name) */\n      jump\t// in\n    tag_51:\n        /* \"contracts/Lib_AddressManager.sol\":1288:1318  addresses[_getNameHash(_name)] */\n      dup2\n      mstore\n      0x20\n      add\n      swap1\n      dup2\n      mstore\n      0x20\n      add\n      0x00\n      keccak256\n      0x00\n      swap1\n      sload\n      swap1\n      0x0100\n      exp\n      swap1\n      div\n      0xffffffffffffffffffffffffffffffffffffffff\n      and\n        /* \"contracts/Lib_AddressManager.sol\":1281:1318  return addresses[_getNameHash(_name)] */\n      swap1\n      pop\n        /* \"contracts/Lib_AddressManager.sol\":1198:1325  function getAddress(string memory _name) external view returns (address) {... */\n      swap2\n      swap1\n      pop\n      jump\t// out\n        /* \"contracts/Ownable.sol\":1839:2028  function transferOwnership(address newOwner) public virtual onlyOwner {... */\n    tag_26:\n        /* \"contracts/Ownable.sol\":1189:1201  _msgSender() */\n      tag_53\n        /* \"contracts/Ownable.sol\":1189:1199  _msgSender */\n      tag_29\n        /* \"contracts/Ownable.sol\":1189:1201  _msgSender() */\n      jump\t// in\n    tag_53:\n        /* \"contracts/Ownable.sol\":1178:1201  owner() == _msgSender() */\n      0xffffffffffffffffffffffffffffffffffffffff\n      and\n        /* \"contracts/Ownable.sol\":1178:1185  owner() */\n      tag_54\n        /* \"contracts/Ownable.sol\":1178:1183  owner */\n      tag_11\n        /* \"contracts/Ownable.sol\":1178:1185  owner() */\n      jump\t// in\n    tag_54:\n        /* \"contracts/Ownable.sol\":1178:1201  owner() == _msgSender() */\n      0xffffffffffffffffffffffffffffffffffffffff\n      and\n      eq\n        /* \"contracts/Ownable.sol\":1170:1238  require(owner() == _msgSender(), \"Ownable: caller is not the owner\") */\n      tag_55\n      jumpi\n      mload(0x40)\n      0x08c379a000000000000000000000000000000000000000000000000000000000\n      dup2\n      mstore\n      0x04\n      add\n      tag_56\n      swap1\n      tag_33\n      jump\t// in\n    tag_56:\n      mload(0x40)\n      dup1\n      swap2\n      sub\n      swap1\n      revert\n    tag_55:\n        /* \"contracts/Ownable.sol\":1947:1948  0 */\n      0x00\n        /* \"contracts/Ownable.sol\":1927:1949  newOwner != address(0) */\n      0xffffffffffffffffffffffffffffffffffffffff\n      and\n        /* \"contracts/Ownable.sol\":1927:1935  newOwner */\n      dup2\n        /* \"contracts/Ownable.sol\":1927:1949  newOwner != address(0) */\n      0xffffffffffffffffffffffffffffffffffffffff\n      and\n      sub\n        /* \"contracts/Ownable.sol\":1919:1992  require(newOwner != address(0), \"Ownable: new owner is the zero address\") */\n      tag_58\n      jumpi\n      mload(0x40)\n      0x08c379a000000000000000000000000000000000000000000000000000000000\n      dup2\n      mstore\n      0x04\n      add\n      tag_59\n      swap1\n      tag_60\n      jump\t// in\n    tag_59:\n      mload(0x40)\n      dup1\n      swap2\n      sub\n      swap1\n      revert\n    tag_58:\n        /* \"contracts/Ownable.sol\":2002:2021  _setOwner(newOwner) */\n      tag_61\n        /* \"contracts/Ownable.sol\":2012:2020  newOwner */\n      dup2\n        /* \"contracts/Ownable.sol\":2002:2011  _setOwner */\n      tag_36\n        /* \"contracts/Ownable.sol\":2002:2021  _setOwner(newOwner) */\n      jump\t// in\n    tag_61:\n        /* \"contracts/Ownable.sol\":1839:2028  function transferOwnership(address newOwner) public virtual onlyOwner {... */\n      pop\n      jump\t// out\n        /* \"contracts/Context.sol\":587:683  function _msgSender() internal view virtual returns (address) {... */\n    tag_29:\n        /* \"contracts/Context.sol\":640:647  address */\n      0x00\n        /* \"contracts/Context.sol\":666:676  msg.sender */\n      caller\n        /* \"contracts/Context.sol\":659:676  return msg.sender */\n      swap1\n      pop\n        /* \"contracts/Context.sol\":587:683  function _msgSender() internal view virtual returns (address) {... */\n      swap1\n      jump\t// out\n        /* \"contracts/Ownable.sol\":2034:2203  function _setOwner(address newOwner) private {... */\n    tag_36:\n        /* \"contracts/Ownable.sol\":2089:2105  address oldOwner */\n      0x00\n        /* \"contracts/Ownable.sol\":2108:2114  _owner */\n      dup1\n      0x00\n      swap1\n      sload\n      swap1\n      0x0100\n      exp\n      swap1\n      div\n      0xffffffffffffffffffffffffffffffffffffffff\n      and\n        /* \"contracts/Ownable.sol\":2089:2114  address oldOwner = _owner */\n      swap1\n      pop\n        /* \"contracts/Ownable.sol\":2133:2141  newOwner */\n      dup2\n        /* \"contracts/Ownable.sol\":2124:2130  _owner */\n      0x00\n      dup1\n        /* \"contracts/Ownable.sol\":2124:2141  _owner = newOwner */\n      0x0100\n      exp\n      dup2\n      sload\n      dup2\n      0xffffffffffffffffffffffffffffffffffffffff\n      mul\n      not\n      and\n      swap1\n      dup4\n      0xffffffffffffffffffffffffffffffffffffffff\n      and\n      mul\n      or\n      swap1\n      sstore\n      pop\n        /* \"contracts/Ownable.sol\":2187:2195  newOwner */\n      dup2\n        /* \"contracts/Ownable.sol\":2156:2196  OwnershipTransferred(oldOwner, newOwner) */\n      0xffffffffffffffffffffffffffffffffffffffff\n      and\n        /* \"contracts/Ownable.sol\":2177:2185  oldOwner */\n      dup2\n        /* \"contracts/Ownable.sol\":2156:2196  OwnershipTransferred(oldOwner, newOwner) */\n      0xffffffffffffffffffffffffffffffffffffffff\n      and\n      0x8be0079c531659141344cd1fd0a4f28419497f9722a3daafe3b4186f6b6457e0\n      mload(0x40)\n      mload(0x40)\n      dup1\n      swap2\n      sub\n      swap1\n      log3\n        /* \"contracts/Ownable.sol\":2079:2203  {... */\n      pop\n        /* \"contracts/Ownable.sol\":2034:2203  function _setOwner(address newOwner) private {... */\n      pop\n      jump\t// out\n        /* \"contracts/Lib_AddressManager.sol\":1556:1689  function _getNameHash(string memory _name) internal pure returns (bytes32) {... */\n    tag_45:\n        /* \"contracts/Lib_AddressManager.sol\":1622:1629  bytes32 */\n      0x00\n        /* \"contracts/Lib_AddressManager.sol\":1675:1680  _name */\n      dup2\n        /* \"contracts/Lib_AddressManager.sol\":1658:1681  abi.encodePacked(_name) */\n      add(0x20, mload(0x40))\n      tag_65\n      swap2\n      swap1\n      tag_47\n      jump\t// in\n    tag_65:\n      mload(0x40)\n      0x20\n      dup2\n      dup4\n      sub\n      sub\n      dup2\n      mstore\n      swap1\n      0x40\n      mstore\n        /* \"contracts/Lib_AddressManager.sol\":1648:1682  keccak256(abi.encodePacked(_name)) */\n      dup1\n      mload\n      swap1\n      0x20\n      add\n      keccak256\n        /* \"contracts/Lib_AddressManager.sol\":1641:1682  return keccak256(abi.encodePacked(_name)) */\n      swap1\n      pop\n        /* \"contracts/Lib_AddressManager.sol\":1556:1689  function _getNameHash(string memory _name) internal pure returns (bytes32) {... */\n      swap2\n      swap1\n      pop\n      jump\t// out\n        /* \"#utility.yul\":7:133   */\n    tag_66:\n        /* \"#utility.yul\":44:51   */\n      0x00\n        /* \"#utility.yul\":84:126   */\n      0xffffffffffffffffffffffffffffffffffffffff\n        /* \"#utility.yul\":77:82   */\n      dup3\n        /* \"#utility.yul\":73:127   */\n      and\n        /* \"#utility.yul\":62:127   */\n      swap1\n      pop\n        /* \"#utility.yul\":7:133   */\n      swap2\n      swap1\n      pop\n      jump\t// out\n        /* \"#utility.yul\":139:235   */\n    tag_67:\n        /* \"#utility.yul\":176:183   */\n      0x00\n        /* \"#utility.yul\":205:229   */\n      tag_96\n        /* \"#utility.yul\":223:228   */\n      dup3\n        /* \"#utility.yul\":205:229   */\n      tag_66\n      jump\t// in\n    tag_96:\n        /* \"#utility.yul\":194:229   */\n      swap1\n      pop\n        /* \"#utility.yul\":139:235   */\n      swap2\n      swap1\n      pop\n      jump\t// out\n        /* \"#utility.yul\":241:359   */\n    tag_68:\n        /* \"#utility.yul\":328:352   */\n      tag_98\n        /* \"#utility.yul\":346:351   */\n      dup2\n        /* \"#utility.yul\":328:352   */\n      tag_67\n      jump\t// in\n    tag_98:\n        /* \"#utility.yul\":323:326   */\n      dup3\n        /* \"#utility.yul\":316:353   */\n      mstore\n        /* \"#utility.yul\":241:359   */\n      pop\n      pop\n      jump\t// out\n        /* \"#utility.yul\":365:587   */\n    tag_13:\n        /* \"#utility.yul\":458:462   */\n      0x00\n        /* \"#utility.yul\":496:498   */\n      0x20\n        /* \"#utility.yul\":485:494   */\n      dup3\n        /* \"#utility.yul\":481:499   */\n      add\n        /* \"#utility.yul\":473:499   */\n      swap1\n      pop\n        /* \"#utility.yul\":509:580   */\n      tag_100\n        /* \"#utility.yul\":577:578   */\n      0x00\n        /* \"#utility.yul\":566:575   */\n      dup4\n        /* \"#utility.yul\":562:579   */\n      add\n        /* \"#utility.yul\":553:559   */\n      dup5\n        /* \"#utility.yul\":509:580   */\n      tag_68\n      jump\t// in\n    tag_100:\n        /* \"#utility.yul\":365:587   */\n      swap3\n      swap2\n      pop\n      pop\n      jump\t// out\n        /* \"#utility.yul\":593:668   */\n    tag_69:\n        /* \"#utility.yul\":626:632   */\n      0x00\n        /* \"#utility.yul\":659:661   */\n      0x40\n        /* \"#utility.yul\":653:662   */\n      mload\n        /* \"#utility.yul\":643:662   */\n      swap1\n      pop\n        /* \"#utility.yul\":593:668   */\n      swap1\n      jump\t// out\n        /* \"#utility.yul\":674:791   */\n    tag_70:\n        /* \"#utility.yul\":783:784   */\n      0x00\n        /* \"#utility.yul\":780:781   */\n      dup1\n        /* \"#utility.yul\":773:785   */\n      revert\n        /* \"#utility.yul\":797:914   */\n    tag_71:\n        /* \"#utility.yul\":906:907   */\n      0x00\n        /* \"#utility.yul\":903:904   */\n      dup1\n        /* \"#utility.yul\":896:908   */\n      revert\n        /* \"#utility.yul\":920:1037   */\n    tag_72:\n        /* \"#utility.yul\":1029:1030   */\n      0x00\n        /* \"#utility.yul\":1026:1027   */\n      dup1\n        /* \"#utility.yul\":1019:1031   */\n      revert\n        /* \"#utility.yul\":1043:1160   */\n    tag_73:\n        /* \"#utility.yul\":1152:1153   */\n      0x00\n        /* \"#utility.yul\":1149:1150   */\n      dup1\n        /* \"#utility.yul\":1142:1154   */\n      revert\n        /* \"#utility.yul\":1166:1268   */\n    tag_74:\n        /* \"#utility.yul\":1207:1213   */\n      0x00\n        /* \"#utility.yul\":1258:1260   */\n      0x1f\n        /* \"#utility.yul\":1254:1261   */\n      not\n        /* \"#utility.yul\":1249:1251   */\n      0x1f\n        /* \"#utility.yul\":1242:1247   */\n      dup4\n        /* \"#utility.yul\":1238:1252   */\n      add\n        /* \"#utility.yul\":1234:1262   */\n      and\n        /* \"#utility.yul\":1224:1262   */\n      swap1\n      pop\n        /* \"#utility.yul\":1166:1268   */\n      swap2\n      swap1\n      pop\n      jump\t// out\n        /* \"#utility.yul\":1274:1454   */\n    tag_75:\n        /* \"#utility.yul\":1322:1399   */\n      0x4e487b7100000000000000000000000000000000000000000000000000000000\n        /* \"#utility.yul\":1319:1320   */\n      0x00\n        /* \"#utility.yul\":1312:1400   */\n      mstore\n        /* \"#utility.yul\":1419:1423   */\n      0x41\n        /* \"#utility.yul\":1416:1417   */\n      0x04\n        /* \"#utility.yul\":1409:1424   */\n      mstore\n        /* \"#utility.yul\":1443:1447   */\n      0x24\n        /* \"#utility.yul\":1440:1441   */\n      0x00\n        /* \"#utility.yul\":1433:1448   */\n      revert\n        /* \"#utility.yul\":1460:1741   */\n    tag_76:\n        /* \"#utility.yul\":1543:1570   */\n      tag_109\n        /* \"#utility.yul\":1565:1569   */\n      dup3\n        /* \"#utility.yul\":1543:1570   */\n      tag_74\n      jump\t// in\n    tag_109:\n        /* \"#utility.yul\":1535:1541   */\n      dup2\n        /* \"#utility.yul\":1531:1571   */\n      add\n        /* \"#utility.yul\":1673:1679   */\n      dup2\n        /* \"#utility.yul\":1661:1671   */\n      dup2\n        /* \"#utility.yul\":1658:1680   */\n      lt\n        /* \"#utility.yul\":1637:1655   */\n      0xffffffffffffffff\n        /* \"#utility.yul\":1625:1635   */\n      dup3\n        /* \"#utility.yul\":1622:1656   */\n      gt\n        /* \"#utility.yul\":1619:1681   */\n      or\n        /* \"#utility.yul\":1616:1704   */\n      iszero\n      tag_110\n      jumpi\n        /* \"#utility.yul\":1684:1702   */\n      tag_111\n      tag_75\n      jump\t// in\n    tag_111:\n        /* \"#utility.yul\":1616:1704   */\n    tag_110:\n        /* \"#utility.yul\":1724:1734   */\n      dup1\n        /* \"#utility.yul\":1720:1722   */\n      0x40\n        /* \"#utility.yul\":1713:1735   */\n      mstore\n        /* \"#utility.yul\":1503:1741   */\n      pop\n        /* \"#utility.yul\":1460:1741   */\n      pop\n      pop\n      jump\t// out\n        /* \"#utility.yul\":1747:1876   */\n    tag_77:\n        /* \"#utility.yul\":1781:1787   */\n      0x00\n        /* \"#utility.yul\":1808:1828   */\n      tag_113\n      tag_69\n      jump\t// in\n    tag_113:\n        /* \"#utility.yul\":1798:1828   */\n      swap1\n      pop\n        /* \"#utility.yul\":1837:1870   */\n      tag_114\n        /* \"#utility.yul\":1865:1869   */\n      dup3\n        /* \"#utility.yul\":1857:1863   */\n      dup3\n        /* \"#utility.yul\":1837:1870   */\n      tag_76\n      jump\t// in\n    tag_114:\n        /* \"#utility.yul\":1747:1876   */\n      swap2\n      swap1\n      pop\n      jump\t// out\n        /* \"#utility.yul\":1882:2190   */\n    tag_78:\n        /* \"#utility.yul\":1944:1948   */\n      0x00\n        /* \"#utility.yul\":2034:2052   */\n      0xffffffffffffffff\n        /* \"#utility.yul\":2026:2032   */\n      dup3\n        /* \"#utility.yul\":2023:2053   */\n      gt\n        /* \"#utility.yul\":2020:2076   */\n      iszero\n      tag_116\n      jumpi\n        /* \"#utility.yul\":2056:2074   */\n      tag_117\n      tag_75\n      jump\t// in\n    tag_117:\n        /* \"#utility.yul\":2020:2076   */\n    tag_116:\n        /* \"#utility.yul\":2094:2123   */\n      tag_118\n        /* \"#utility.yul\":2116:2122   */\n      dup3\n        /* \"#utility.yul\":2094:2123   */\n      tag_74\n      jump\t// in\n    tag_118:\n        /* \"#utility.yul\":2086:2123   */\n      swap1\n      pop\n        /* \"#utility.yul\":2178:2182   */\n      0x20\n        /* \"#utility.yul\":2172:2176   */\n      dup2\n        /* \"#utility.yul\":2168:2183   */\n      add\n        /* \"#utility.yul\":2160:2183   */\n      swap1\n      pop\n        /* \"#utility.yul\":1882:2190   */\n      swap2\n      swap1\n      pop\n      jump\t// out\n        /* \"#utility.yul\":2196:2344   */\n    tag_79:\n        /* \"#utility.yul\":2294:2300   */\n      dup3\n        /* \"#utility.yul\":2289:2292   */\n      dup2\n        /* \"#utility.yul\":2284:2287   */\n      dup4\n        /* \"#utility.yul\":2271:2301   */\n      calldatacopy\n        /* \"#utility.yul\":2335:2336   */\n      0x00\n        /* \"#utility.yul\":2326:2332   */\n      dup4\n        /* \"#utility.yul\":2321:2324   */\n      dup4\n        /* \"#utility.yul\":2317:2333   */\n      add\n        /* \"#utility.yul\":2310:2337   */\n      mstore\n        /* \"#utility.yul\":2196:2344   */\n      pop\n      pop\n      pop\n      jump\t// out\n        /* \"#utility.yul\":2350:2775   */\n    tag_80:\n        /* \"#utility.yul\":2428:2433   */\n      0x00\n        /* \"#utility.yul\":2453:2519   */\n      tag_121\n        /* \"#utility.yul\":2469:2518   */\n      tag_122\n        /* \"#utility.yul\":2511:2517   */\n      dup5\n        /* \"#utility.yul\":2469:2518   */\n      tag_78\n      jump\t// in\n    tag_122:\n        /* \"#utility.yul\":2453:2519   */\n      tag_77\n      jump\t// in\n    tag_121:\n        /* \"#utility.yul\":2444:2519   */\n      swap1\n      pop\n        /* \"#utility.yul\":2542:2548   */\n      dup3\n        /* \"#utility.yul\":2535:2540   */\n      dup2\n        /* \"#utility.yul\":2528:2549   */\n      mstore\n        /* \"#utility.yul\":2580:2584   */\n      0x20\n        /* \"#utility.yul\":2573:2578   */\n      dup2\n        /* \"#utility.yul\":2569:2585   */\n      add\n        /* \"#utility.yul\":2618:2621   */\n      dup5\n        /* \"#utility.yul\":2609:2615   */\n      dup5\n        /* \"#utility.yul\":2604:2607   */\n      dup5\n        /* \"#utility.yul\":2600:2616   */\n      add\n        /* \"#utility.yul\":2597:2622   */\n      gt\n        /* \"#utility.yul\":2594:2706   */\n      iszero\n      tag_123\n      jumpi\n        /* \"#utility.yul\":2625:2704   */\n      tag_124\n      tag_73\n      jump\t// in\n    tag_124:\n        /* \"#utility.yul\":2594:2706   */\n    tag_123:\n        /* \"#utility.yul\":2715:2769   */\n      tag_125\n        /* \"#utility.yul\":2762:2768   */\n      dup5\n        /* \"#utility.yul\":2757:2760   */\n      dup3\n        /* \"#utility.yul\":2752:2755   */\n      dup6\n        /* \"#utility.yul\":2715:2769   */\n      tag_79\n      jump\t// in\n    tag_125:\n        /* \"#utility.yul\":2434:2775   */\n      pop\n        /* \"#utility.yul\":2350:2775   */\n      swap4\n      swap3\n      pop\n      pop\n      pop\n      jump\t// out\n        /* \"#utility.yul\":2795:3135   */\n    tag_81:\n        /* \"#utility.yul\":2851:2856   */\n      0x00\n        /* \"#utility.yul\":2900:2903   */\n      dup3\n        /* \"#utility.yul\":2893:2897   */\n      0x1f\n        /* \"#utility.yul\":2885:2891   */\n      dup4\n        /* \"#utility.yul\":2881:2898   */\n      add\n        /* \"#utility.yul\":2877:2904   */\n      slt\n        /* \"#utility.yul\":2867:2989   */\n      tag_127\n      jumpi\n        /* \"#utility.yul\":2908:2987   */\n      tag_128\n      tag_72\n      jump\t// in\n    tag_128:\n        /* \"#utility.yul\":2867:2989   */\n    tag_127:\n        /* \"#utility.yul\":3025:3031   */\n      dup2\n        /* \"#utility.yul\":3012:3032   */\n      calldataload\n        /* \"#utility.yul\":3050:3129   */\n      tag_129\n        /* \"#utility.yul\":3125:3128   */\n      dup5\n        /* \"#utility.yul\":3117:3123   */\n      dup3\n        /* \"#utility.yul\":3110:3114   */\n      0x20\n        /* \"#utility.yul\":3102:3108   */\n      dup7\n        /* \"#utility.yul\":3098:3115   */\n      add\n        /* \"#utility.yul\":3050:3129   */\n      tag_80\n      jump\t// in\n    tag_129:\n        /* \"#utility.yul\":3041:3129   */\n      swap2\n      pop\n        /* \"#utility.yul\":2857:3135   */\n      pop\n        /* \"#utility.yul\":2795:3135   */\n      swap3\n      swap2\n      pop\n      pop\n      jump\t// out\n        /* \"#utility.yul\":3141:3263   */\n    tag_82:\n        /* \"#utility.yul\":3214:3238   */\n      tag_131\n        /* \"#utility.yul\":3232:3237   */\n      dup2\n        /* \"#utility.yul\":3214:3238   */\n      tag_67\n      jump\t// in\n    tag_131:\n        /* \"#utility.yul\":3207:3212   */\n      dup2\n        /* \"#utility.yul\":3204:3239   */\n      eq\n        /* \"#utility.yul\":3194:3257   */\n      tag_132\n      jumpi\n        /* \"#utility.yul\":3253:3254   */\n      0x00\n        /* \"#utility.yul\":3250:3251   */\n      dup1\n        /* \"#utility.yul\":3243:3255   */\n      revert\n        /* \"#utility.yul\":3194:3257   */\n    tag_132:\n        /* \"#utility.yul\":3141:3263   */\n      pop\n      jump\t// out\n        /* \"#utility.yul\":3269:3408   */\n    tag_83:\n        /* \"#utility.yul\":3315:3320   */\n      0x00\n        /* \"#utility.yul\":3353:3359   */\n      dup2\n        /* \"#utility.yul\":3340:3360   */\n      calldataload\n        /* \"#utility.yul\":3331:3360   */\n      swap1\n      pop\n        /* \"#utility.yul\":3369:3402   */\n      tag_134\n        /* \"#utility.yul\":3396:3401   */\n      dup2\n        /* \"#utility.yul\":3369:3402   */\n      tag_82\n      jump\t// in\n    tag_134:\n        /* \"#utility.yul\":3269:3408   */\n      swap3\n      swap2\n      pop\n      pop\n      jump\t// out\n        /* \"#utility.yul\":3414:4068   */\n    tag_16:\n        /* \"#utility.yul\":3492:3498   */\n      0x00\n        /* \"#utility.yul\":3500:3506   */\n      dup1\n        /* \"#utility.yul\":3549:3551   */\n      0x40\n        /* \"#utility.yul\":3537:3546   */\n      dup4\n        /* \"#utility.yul\":3528:3535   */\n      dup6\n        /* \"#utility.yul\":3524:3547   */\n      sub\n        /* \"#utility.yul\":3520:3552   */\n      slt\n        /* \"#utility.yul\":3517:3636   */\n      iszero\n      tag_136\n      jumpi\n        /* \"#utility.yul\":3555:3634   */\n      tag_137\n      tag_70\n      jump\t// in\n    tag_137:\n        /* \"#utility.yul\":3517:3636   */\n    tag_136:\n        /* \"#utility.yul\":3703:3704   */\n      0x00\n        /* \"#utility.yul\":3692:3701   */\n      dup4\n        /* \"#utility.yul\":3688:3705   */\n      add\n        /* \"#utility.yul\":3675:3706   */\n      calldataload\n        /* \"#utility.yul\":3733:3751   */\n      0xffffffffffffffff\n        /* \"#utility.yul\":3725:3731   */\n      dup2\n        /* \"#utility.yul\":3722:3752   */\n      gt\n        /* \"#utility.yul\":3719:3836   */\n      iszero\n      tag_138\n      jumpi\n        /* \"#utility.yul\":3755:3834   */\n      tag_139\n      tag_71\n      jump\t// in\n    tag_139:\n        /* \"#utility.yul\":3719:3836   */\n    tag_138:\n        /* \"#utility.yul\":3860:3923   */\n      tag_140\n        /* \"#utility.yul\":3915:3922   */\n      dup6\n        /* \"#utility.yul\":3906:3912   */\n      dup3\n        /* \"#utility.yul\":3895:3904   */\n      dup7\n        /* \"#utility.yul\":3891:3913   */\n      add\n        /* \"#utility.yul\":3860:3923   */\n      tag_81\n      jump\t// in\n    tag_140:\n        /* \"#utility.yul\":3850:3923   */\n      swap3\n      pop\n        /* \"#utility.yul\":3646:3933   */\n      pop\n        /* \"#utility.yul\":3972:3974   */\n      0x20\n        /* \"#utility.yul\":3998:4051   */\n      tag_141\n        /* \"#utility.yul\":4043:4050   */\n      dup6\n        /* \"#utility.yul\":4034:4040   */\n      dup3\n        /* \"#utility.yul\":4023:4032   */\n      dup7\n        /* \"#utility.yul\":4019:4041   */\n      add\n        /* \"#utility.yul\":3998:4051   */\n      tag_83\n      jump\t// in\n    tag_141:\n        /* \"#utility.yul\":3988:4051   */\n      swap2\n      pop\n        /* \"#utility.yul\":3943:4061   */\n      pop\n        /* \"#utility.yul\":3414:4068   */\n      swap3\n      pop\n      swap3\n      swap1\n      pop\n      jump\t// out\n        /* \"#utility.yul\":4074:4583   */\n    tag_20:\n        /* \"#utility.yul\":4143:4149   */\n      0x00\n        /* \"#utility.yul\":4192:4194   */\n      0x20\n        /* \"#utility.yul\":4180:4189   */\n      dup3\n        /* \"#utility.yul\":4171:4178   */\n      dup5\n        /* \"#utility.yul\":4167:4190   */\n      sub\n        /* \"#utility.yul\":4163:4195   */\n      slt\n        /* \"#utility.yul\":4160:4279   */\n      iszero\n      tag_143\n      jumpi\n        /* \"#utility.yul\":4198:4277   */\n      tag_144\n      tag_70\n      jump\t// in\n    tag_144:\n        /* \"#utility.yul\":4160:4279   */\n    tag_143:\n        /* \"#utility.yul\":4346:4347   */\n      0x00\n        /* \"#utility.yul\":4335:4344   */\n      dup3\n        /* \"#utility.yul\":4331:4348   */\n      add\n        /* \"#utility.yul\":4318:4349   */\n      calldataload\n        /* \"#utility.yul\":4376:4394   */\n      0xffffffffffffffff\n        /* \"#utility.yul\":4368:4374   */\n      dup2\n        /* \"#utility.yul\":4365:4395   */\n      gt\n        /* \"#utility.yul\":4362:4479   */\n      iszero\n      tag_145\n      jumpi\n        /* \"#utility.yul\":4398:4477   */\n      tag_146\n      tag_71\n      jump\t// in\n    tag_146:\n        /* \"#utility.yul\":4362:4479   */\n    tag_145:\n        /* \"#utility.yul\":4503:4566   */\n      tag_147\n        /* \"#utility.yul\":4558:4565   */\n      dup5\n        /* \"#utility.yul\":4549:4555   */\n      dup3\n        /* \"#utility.yul\":4538:4547   */\n      dup6\n        /* \"#utility.yul\":4534:4556   */\n      add\n        /* \"#utility.yul\":4503:4566   */\n      tag_81\n      jump\t// in\n    tag_147:\n        /* \"#utility.yul\":4493:4566   */\n      swap2\n      pop\n        /* \"#utility.yul\":4289:4576   */\n      pop\n        /* \"#utility.yul\":4074:4583   */\n      swap3\n      swap2\n      pop\n      pop\n      jump\t// out\n        /* \"#utility.yul\":4589:4918   */\n    tag_25:\n        /* \"#utility.yul\":4648:4654   */\n      0x00\n        /* \"#utility.yul\":4697:4699   */\n      0x20\n        /* \"#utility.yul\":4685:4694   */\n      dup3\n        /* \"#utility.yul\":4676:4683   */\n      dup5\n        /* \"#utility.yul\":4672:4695   */\n      sub\n        /* \"#utility.yul\":4668:4700   */\n      slt\n        /* \"#utility.yul\":4665:4784   */\n      iszero\n      tag_149\n      jumpi\n        /* \"#utility.yul\":4703:4782   */\n      tag_150\n      tag_70\n      jump\t// in\n    tag_150:\n        /* \"#utility.yul\":4665:4784   */\n    tag_149:\n        /* \"#utility.yul\":4823:4824   */\n      0x00\n        /* \"#utility.yul\":4848:4901   */\n      tag_151\n        /* \"#utility.yul\":4893:4900   */\n      dup5\n        /* \"#utility.yul\":4884:4890   */\n      dup3\n        /* \"#utility.yul\":4873:4882   */\n      dup6\n        /* \"#utility.yul\":4869:4891   */\n      add\n        /* \"#utility.yul\":4848:4901   */\n      tag_83\n      jump\t// in\n    tag_151:\n        /* \"#utility.yul\":4838:4901   */\n      swap2\n      pop\n        /* \"#utility.yul\":4794:4911   */\n      pop\n        /* \"#utility.yul\":4589:4918   */\n      swap3\n      swap2\n      pop\n      pop\n      jump\t// out\n        /* \"#utility.yul\":4924:5093   */\n    tag_84:\n        /* \"#utility.yul\":5008:5019   */\n      0x00\n        /* \"#utility.yul\":5042:5048   */\n      dup3\n        /* \"#utility.yul\":5037:5040   */\n      dup3\n        /* \"#utility.yul\":5030:5049   */\n      mstore\n        /* \"#utility.yul\":5082:5086   */\n      0x20\n        /* \"#utility.yul\":5077:5080   */\n      dup3\n        /* \"#utility.yul\":5073:5087   */\n      add\n        /* \"#utility.yul\":5058:5087   */\n      swap1\n      pop\n        /* \"#utility.yul\":4924:5093   */\n      swap3\n      swap2\n      pop\n      pop\n      jump\t// out\n        /* \"#utility.yul\":5099:5281   */\n    tag_85:\n        /* \"#utility.yul\":5239:5273   */\n      0x4f776e61626c653a2063616c6c6572206973206e6f7420746865206f776e6572\n        /* \"#utility.yul\":5235:5236   */\n      0x00\n        /* \"#utility.yul\":5227:5233   */\n      dup3\n        /* \"#utility.yul\":5223:5237   */\n      add\n        /* \"#utility.yul\":5216:5274   */\n      mstore\n        /* \"#utility.yul\":5099:5281   */\n      pop\n      jump\t// out\n        /* \"#utility.yul\":5287:5653   */\n    tag_86:\n        /* \"#utility.yul\":5429:5432   */\n      0x00\n        /* \"#utility.yul\":5450:5517   */\n      tag_155\n        /* \"#utility.yul\":5514:5516   */\n      0x20\n        /* \"#utility.yul\":5509:5512   */\n      dup4\n        /* \"#utility.yul\":5450:5517   */\n      tag_84\n      jump\t// in\n    tag_155:\n        /* \"#utility.yul\":5443:5517   */\n      swap2\n      pop\n        /* \"#utility.yul\":5526:5619   */\n      tag_156\n        /* \"#utility.yul\":5615:5618   */\n      dup3\n        /* \"#utility.yul\":5526:5619   */\n      tag_85\n      jump\t// in\n    tag_156:\n        /* \"#utility.yul\":5644:5646   */\n      0x20\n        /* \"#utility.yul\":5639:5642   */\n      dup3\n        /* \"#utility.yul\":5635:5647   */\n      add\n        /* \"#utility.yul\":5628:5647   */\n      swap1\n      pop\n        /* \"#utility.yul\":5287:5653   */\n      swap2\n      swap1\n      pop\n      jump\t// out\n        /* \"#utility.yul\":5659:6078   */\n    tag_33:\n        /* \"#utility.yul\":5825:5829   */\n      0x00\n        /* \"#utility.yul\":5863:5865   */\n      0x20\n        /* \"#utility.yul\":5852:5861   */\n      dup3\n        /* \"#utility.yul\":5848:5866   */\n      add\n        /* \"#utility.yul\":5840:5866   */\n      swap1\n      pop\n        /* \"#utility.yul\":5912:5921   */\n      dup2\n        /* \"#utility.yul\":5906:5910   */\n      dup2\n        /* \"#utility.yul\":5902:5922   */\n      sub\n        /* \"#utility.yul\":5898:5899   */\n      0x00\n        /* \"#utility.yul\":5887:5896   */\n      dup4\n        /* \"#utility.yul\":5883:5900   */\n      add\n        /* \"#utility.yul\":5876:5923   */\n      mstore\n        /* \"#utility.yul\":5940:6071   */\n      tag_158\n        /* \"#utility.yul\":6066:6070   */\n      dup2\n        /* \"#utility.yul\":5940:6071   */\n      tag_86\n      jump\t// in\n    tag_158:\n        /* \"#utility.yul\":5932:6071   */\n      swap1\n      pop\n        /* \"#utility.yul\":5659:6078   */\n      swap2\n      swap1\n      pop\n      jump\t// out\n        /* \"#utility.yul\":6084:6183   */\n    tag_87:\n        /* \"#utility.yul\":6136:6142   */\n      0x00\n        /* \"#utility.yul\":6170:6175   */\n      dup2\n        /* \"#utility.yul\":6164:6176   */\n      mload\n        /* \"#utility.yul\":6154:6176   */\n      swap1\n      pop\n        /* \"#utility.yul\":6084:6183   */\n      swap2\n      swap1\n      pop\n      jump\t// out\n        /* \"#utility.yul\":6189:6337   */\n    tag_88:\n        /* \"#utility.yul\":6291:6302   */\n      0x00\n        /* \"#utility.yul\":6328:6331   */\n      dup2\n        /* \"#utility.yul\":6313:6331   */\n      swap1\n      pop\n        /* \"#utility.yul\":6189:6337   */\n      swap3\n      swap2\n      pop\n      pop\n      jump\t// out\n        /* \"#utility.yul\":6343:6482   */\n    tag_89:\n        /* \"#utility.yul\":6432:6438   */\n      dup3\n        /* \"#utility.yul\":6427:6430   */\n      dup2\n        /* \"#utility.yul\":6422:6425   */\n      dup4\n        /* \"#utility.yul\":6416:6439   */\n      mcopy\n        /* \"#utility.yul\":6473:6474   */\n      0x00\n        /* \"#utility.yul\":6464:6470   */\n      dup4\n        /* \"#utility.yul\":6459:6462   */\n      dup4\n        /* \"#utility.yul\":6455:6471   */\n      add\n        /* \"#utility.yul\":6448:6475   */\n      mstore\n        /* \"#utility.yul\":6343:6482   */\n      pop\n      pop\n      pop\n      jump\t// out\n        /* \"#utility.yul\":6488:6878   */\n    tag_90:\n        /* \"#utility.yul\":6594:6597   */\n      0x00\n        /* \"#utility.yul\":6622:6661   */\n      tag_163\n        /* \"#utility.yul\":6655:6660   */\n      dup3\n        /* \"#utility.yul\":6622:6661   */\n      tag_87\n      jump\t// in\n    tag_163:\n        /* \"#utility.yul\":6677:6766   */\n      tag_164\n        /* \"#utility.yul\":6759:6765   */\n      dup2\n        /* \"#utility.yul\":6754:6757   */\n      dup6\n        /* \"#utility.yul\":6677:6766   */\n      tag_88\n      jump\t// in\n    tag_164:\n        /* \"#utility.yul\":6670:6766   */\n      swap4\n      pop\n        /* \"#utility.yul\":6775:6840   */\n      tag_165\n        /* \"#utility.yul\":6833:6839   */\n      dup2\n        /* \"#utility.yul\":6828:6831   */\n      dup6\n        /* \"#utility.yul\":6821:6825   */\n      0x20\n        /* \"#utility.yul\":6814:6819   */\n      dup7\n        /* \"#utility.yul\":6810:6826   */\n      add\n        /* \"#utility.yul\":6775:6840   */\n      tag_89\n      jump\t// in\n    tag_165:\n        /* \"#utility.yul\":6865:6871   */\n      dup1\n        /* \"#utility.yul\":6860:6863   */\n      dup5\n        /* \"#utility.yul\":6856:6872   */\n      add\n        /* \"#utility.yul\":6849:6872   */\n      swap2\n      pop\n        /* \"#utility.yul\":6598:6878   */\n      pop\n        /* \"#utility.yul\":6488:6878   */\n      swap3\n      swap2\n      pop\n      pop\n      jump\t// out\n        /* \"#utility.yul\":6884:7159   */\n    tag_47:\n        /* \"#utility.yul\":7016:7019   */\n      0x00\n        /* \"#utility.yul\":7038:7133   */\n      tag_167\n        /* \"#utility.yul\":7129:7132   */\n      dup3\n        /* \"#utility.yul\":7120:7126   */\n      dup5\n        /* \"#utility.yul\":7038:7133   */\n      tag_90\n      jump\t// in\n    tag_167:\n        /* \"#utility.yul\":7031:7133   */\n      swap2\n      pop\n        /* \"#utility.yul\":7150:7153   */\n      dup2\n        /* \"#utility.yul\":7143:7153   */\n      swap1\n      pop\n        /* \"#utility.yul\":6884:7159   */\n      swap3\n      swap2\n      pop\n      pop\n      jump\t// out\n        /* \"#utility.yul\":7165:7497   */\n    tag_49:\n        /* \"#utility.yul\":7286:7290   */\n      0x00\n        /* \"#utility.yul\":7324:7326   */\n      0x40\n        /* \"#utility.yul\":7313:7322   */\n      dup3\n        /* \"#utility.yul\":7309:7327   */\n      add\n        /* \"#utility.yul\":7301:7327   */\n      swap1\n      pop\n        /* \"#utility.yul\":7337:7408   */\n      tag_169\n        /* \"#utility.yul\":7405:7406   */\n      0x00\n        /* \"#utility.yul\":7394:7403   */\n      dup4\n        /* \"#utility.yul\":7390:7407   */\n      add\n        /* \"#utility.yul\":7381:7387   */\n      dup6\n        /* \"#utility.yul\":7337:7408   */\n      tag_68\n      jump\t// in\n    tag_169:\n        /* \"#utility.yul\":7418:7490   */\n      tag_170\n        /* \"#utility.yul\":7486:7488   */\n      0x20\n        /* \"#utility.yul\":7475:7484   */\n      dup4\n        /* \"#utility.yul\":7471:7489   */\n      add\n        /* \"#utility.yul\":7462:7468   */\n      dup5\n        /* \"#utility.yul\":7418:7490   */\n      tag_68\n      jump\t// in\n    tag_170:\n        /* \"#utility.yul\":7165:7497   */\n      swap4\n      swap3\n      pop\n      pop\n      pop\n      jump\t// out\n        /* \"#utility.yul\":7503:7728   */\n    tag_91:\n        /* \"#utility.yul\":7643:7677   */\n      0x4f776e61626c653a206e6577206f776e657220697320746865207a65726f2061\n        /* \"#utility.yul\":7639:7640   */\n      0x00\n        /* \"#utility.yul\":7631:7637   */\n      dup3\n        /* \"#utility.yul\":7627:7641   */\n      add\n        /* \"#utility.yul\":7620:7678   */\n      mstore\n        /* \"#utility.yul\":7712:7720   */\n      0x6464726573730000000000000000000000000000000000000000000000000000\n        /* \"#utility.yul\":7707:7709   */\n      0x20\n        /* \"#utility.yul\":7699:7705   */\n      dup3\n        /* \"#utility.yul\":7695:7710   */\n      add\n        /* \"#utility.yul\":7688:7721   */\n      mstore\n        /* \"#utility.yul\":7503:7728   */\n      pop\n      jump\t// out\n        /* \"#utility.yul\":7734:8100   */\n    tag_92:\n        /* \"#utility.yul\":7876:7879   */\n      0x00\n        /* \"#utility.yul\":7897:7964   */\n      tag_173\n        /* \"#utility.yul\":7961:7963   */\n      0x26\n        /* \"#utility.yul\":7956:7959   */\n      dup4\n        /* \"#utility.yul\":7897:7964   */\n      tag_84\n      jump\t// in\n    tag_173:\n        /* \"#utility.yul\":7890:7964   */\n      swap2\n      pop\n        /* \"#utility.yul\":7973:8066   */\n      tag_174\n        /* \"#utility.yul\":8062:8065   */\n      dup3\n        /* \"#utility.yul\":7973:8066   */\n      tag_91\n      jump\t// in\n    tag_174:\n        /* \"#utility.yul\":8091:8093   */\n      0x40\n        /* \"#utility.yul\":8086:8089   */\n      dup3\n        /* \"#utility.yul\":8082:8094   */\n      add\n        /* \"#utility.yul\":8075:8094   */\n      swap1\n      pop\n        /* \"#utility.yul\":7734:8100   */\n      swap2\n      swap1\n      pop\n      jump\t// out\n        /* \"#utility.yul\":8106:8525   */\n    tag_60:\n        /* \"#utility.yul\":8272:8276   */\n      0x00\n        /* \"#utility.yul\":8310:8312   */\n      0x20\n        /* \"#utility.yul\":8299:8308   */\n      dup3\n        /* \"#utility.yul\":8295:8313   */\n      add\n        /* \"#utility.yul\":8287:8313   */\n      swap1\n      pop\n        /* \"#utility.yul\":8359:8368   */\n      dup2\n        /* \"#utility.yul\":8353:8357   */\n      dup2\n        /* \"#utility.yul\":8349:8369   */\n      sub\n        /* \"#utility.yul\":8345:8346   */\n      0x00\n        /* \"#utility.yul\":8334:8343   */\n      dup4\n        /* \"#utility.yul\":8330:8347   */\n      add\n        /* \"#utility.yul\":8323:8370   */\n      mstore\n        /* \"#utility.yul\":8387:8518   */\n      tag_176\n        /* \"#utility.yul\":8513:8517   */\n      dup2\n        /* \"#utility.yul\":8387:8518   */\n      tag_92\n      jump\t// in\n    tag_176:\n        /* \"#utility.yul\":8379:8518   */\n      swap1\n      pop\n        /* \"#utility.yul\":8106:8525   */\n      swap2\n      swap1\n      pop\n      jump\t// out\n\n    auxdata: 0xa26469706673582212201ed923bea291c9a13358498af42df25eb05dd11156b85806333b9c6cdec3749564736f6c634300081a0033\n}\n",
				"bytecode": {
					"linkReferences": {},
					"object": "608060405234801561000f575f80fd5b5061002c61002161003160201b60201c565b61003860201b60201c565b6100f9565b5f33905090565b5f805f9054906101000a900473ffffffffffffffffffffffffffffffffffffffff169050815f806101000a81548173ffffffffffffffffffffffffffffffffffffffff021916908373ffffffffffffffffffffffffffffffffffffffff1602179055508173ffffffffffffffffffffffffffffffffffffffff168173ffffffffffffffffffffffffffffffffffffffff167f8be0079c531659141344cd1fd0a4f28419497f9722a3daafe3b4186f6b6457e060405160405180910390a35050565b61098b806101065f395ff3fe608060405234801561000f575f80fd5b5060043610610055575f3560e01c8063715018a6146100595780638da5cb5b146100635780639b2ea4bd14610081578063bf40fac11461009d578063f2fde38b146100cd575b5f80fd5b6100616100e9565b005b61006b610170565b6040516100789190610564565b60405180910390f35b61009b600480360381019061009691906106f4565b610197565b005b6100b760048036038101906100b2919061074e565b6102f7565b6040516100c49190610564565b60405180910390f35b6100e760048036038101906100e29190610795565b610338565b005b6100f161042e565b73ffffffffffffffffffffffffffffffffffffffff1661010f610170565b73ffffffffffffffffffffffffffffffffffffffff1614610165576040517f08c379a000000000000000000000000000000000000000000000000000000000815260040161015c9061081a565b60405180910390fd5b61016e5f610435565b565b5f805f9054906101000a900473ffffffffffffffffffffffffffffffffffffffff16905090565b61019f61042e565b73ffffffffffffffffffffffffffffffffffffffff166101bd610170565b73ffffffffffffffffffffffffffffffffffffffff1614610213576040517f08c379a000000000000000000000000000000000000000000000000000000000815260040161020a9061081a565b60405180910390fd5b5f61021d836104f6565b90505f60015f8381526020019081526020015f205f9054906101000a900473ffffffffffffffffffffffffffffffffffffffff1690508260015f8481526020019081526020015f205f6101000a81548173ffffffffffffffffffffffffffffffffffffffff021916908373ffffffffffffffffffffffffffffffffffffffff160217905550836040516102b0919061088a565b60405180910390207f9416a153a346f93d95f94b064ae3f148b6460473c6e82b3f9fc2521b873fcd6c84836040516102e99291906108a0565b60405180910390a250505050565b5f60015f610304846104f6565b81526020019081526020015f205f9054906101000a900473ffffffffffffffffffffffffffffffffffffffff169050919050565b61034061042e565b73ffffffffffffffffffffffffffffffffffffffff1661035e610170565b73ffffffffffffffffffffffffffffffffffffffff16146103b4576040517f08c379a00000000000000000000000000000000000000000000000000000000081526004016103ab9061081a565b60405180910390fd5b5f73ffffffffffffffffffffffffffffffffffffffff168173ffffffffffffffffffffffffffffffffffffffff1603610422576040517f08c379a000000000000000000000000000000000000000000000000000000000815260040161041990610937565b60405180910390fd5b61042b81610435565b50565b5f33905090565b5f805f9054906101000a900473ffffffffffffffffffffffffffffffffffffffff169050815f806101000a81548173ffffffffffffffffffffffffffffffffffffffff021916908373ffffffffffffffffffffffffffffffffffffffff1602179055508173ffffffffffffffffffffffffffffffffffffffff168173ffffffffffffffffffffffffffffffffffffffff167f8be0079c531659141344cd1fd0a4f28419497f9722a3daafe3b4186f6b6457e060405160405180910390a35050565b5f81604051602001610508919061088a565b604051602081830303815290604052805190602001209050919050565b5f73ffffffffffffffffffffffffffffffffffffffff82169050919050565b5f61054e82610525565b9050919050565b61055e81610544565b82525050565b5f6020820190506105775f830184610555565b92915050565b5f604051905090565b5f80fd5b5f80fd5b5f80fd5b5f80fd5b5f601f19601f8301169050919050565b7f4e487b71000000000000000000000000000000000000000000000000000000005f52604160045260245ffd5b6105dc82610596565b810181811067ffffffffffffffff821117156105fb576105fa6105a6565b5b80604052505050565b5f61060d61057d565b905061061982826105d3565b919050565b5f67ffffffffffffffff821115610638576106376105a6565b5b61064182610596565b9050602081019050919050565b828183375f83830152505050565b5f61066e6106698461061e565b610604565b90508281526020810184848401111561068a57610689610592565b5b61069584828561064e565b509392505050565b5f82601f8301126106b1576106b061058e565b5b81356106c184826020860161065c565b91505092915050565b6106d381610544565b81146106dd575f80fd5b50565b5f813590506106ee816106ca565b92915050565b5f806040838503121561070a57610709610586565b5b5f83013567ffffffffffffffff8111156107275761072661058a565b5b6107338582860161069d565b9250506020610744858286016106e0565b9150509250929050565b5f6020828403121561076357610762610586565b5b5f82013567ffffffffffffffff8111156107805761077f61058a565b5b61078c8482850161069d565b91505092915050565b5f602082840312156107aa576107a9610586565b5b5f6107b7848285016106e0565b91505092915050565b5f82825260208201905092915050565b7f4f776e61626c653a2063616c6c6572206973206e6f7420746865206f776e65725f82015250565b5f6108046020836107c0565b915061080f826107d0565b602082019050919050565b5f6020820190508181035f830152610831816107f8565b9050919050565b5f81519050919050565b5f81905092915050565b8281835e5f83830152505050565b5f61086482610838565b61086e8185610842565b935061087e81856020860161084c565b80840191505092915050565b5f610895828461085a565b915081905092915050565b5f6040820190506108b35f830185610555565b6108c06020830184610555565b9392505050565b7f4f776e61626c653a206e6577206f776e657220697320746865207a65726f20615f8201527f6464726573730000000000000000000000000000000000000000000000000000602082015250565b5f6109216026836107c0565b915061092c826108c7565b604082019050919050565b5f6020820190508181035f83015261094e81610915565b905091905056fea26469706673582212201ed923bea291c9a13358498af42df25eb05dd11156b85806333b9c6cdec3749564736f6c634300081a0033",
					"opcodes": "PUSH1 0x80 PUSH1 0x40 MSTORE CALLVALUE DUP1 ISZERO PUSH2 0xF JUMPI PUSH0 DUP1 REVERT JUMPDEST POP PUSH2 0x2C PUSH2 0x21 PUSH2 0x31 PUSH1 0x20 SHL PUSH1 0x20 SHR JUMP JUMPDEST PUSH2 0x38 PUSH1 0x20 SHL PUSH1 0x20 SHR JUMP JUMPDEST PUSH2 0xF9 JUMP JUMPDEST PUSH0 CALLER SWAP1 POP SWAP1 JUMP JUMPDEST PUSH0 DUP1 PUSH0 SWAP1 SLOAD SWAP1 PUSH2 0x100 EXP SWAP1 DIV PUSH20 0xFFFFFFFFFFFFFFFFFFFFFFFFFFFFFFFFFFFFFFFF AND SWAP1 POP DUP2 PUSH0 DUP1 PUSH2 0x100 EXP DUP2 SLOAD DUP2 PUSH20 0xFFFFFFFFFFFFFFFFFFFFFFFFFFFFFFFFFFFFFFFF MUL NOT AND SWAP1 DUP4 PUSH20 0xFFFFFFFFFFFFFFFFFFFFFFFFFFFFFFFFFFFFFFFF AND MUL OR SWAP1 SSTORE POP DUP2 PUSH20 0xFFFFFFFFFFFFFFFFFFFFFFFFFFFFFFFFFFFFFFFF AND DUP2 PUSH20 0xFFFFFFFFFFFFFFFFFFFFFFFFFFFFFFFFFFFFFFFF AND PUSH32 0x8BE0079C531659141344CD1FD0A4F28419497F9722A3DAAFE3B4186F6B6457E0 PUSH1 0x40 MLOAD PUSH1 0x40 MLOAD DUP1 SWAP2 SUB SWAP1 LOG3 POP POP JUMP JUMPDEST PUSH2 0x98B DUP1 PUSH2 0x106 PUSH0 CODECOPY PUSH0 RETURN INVALID PUSH1 0x80 PUSH1 0x40 MSTORE CALLVALUE DUP1 ISZERO PUSH2 0xF JUMPI PUSH0 DUP1 REVERT JUMPDEST POP PUSH1 0x4 CALLDATASIZE LT PUSH2 0x55 JUMPI PUSH0 CALLDATALOAD PUSH1 0xE0 SHR DUP1 PUSH4 0x715018A6 EQ PUSH2 0x59 JUMPI DUP1 PUSH4 0x8DA5CB5B EQ PUSH2 0x63 JUMPI DUP1 PUSH4 0x9B2EA4BD EQ PUSH2 0x81 JUMPI DUP1 PUSH4 0xBF40FAC1 EQ PUSH2 0x9D JUMPI DUP1 PUSH4 0xF2FDE38B EQ PUSH2 0xCD JUMPI JUMPDEST PUSH0 DUP1 REVERT JUMPDEST PUSH2 0x61 PUSH2 0xE9 JUMP JUMPDEST STOP JUMPDEST PUSH2 0x6B PUSH2 0x170 JUMP JUMPDEST PUSH1 0x40 MLOAD PUSH2 0x78 SWAP2 SWAP1 PUSH2 0x564 JUMP JUMPDEST PUSH1 0x40 MLOAD DUP1 SWAP2 SUB SWAP1 RETURN JUMPDEST PUSH2 0x9B PUSH1 0x4 DUP1 CALLDATASIZE SUB DUP2 ADD SWAP1 PUSH2 0x96 SWAP2 SWAP1 PUSH2 0x6F4 JUMP JUMPDEST PUSH2 0x197 JUMP JUMPDEST STOP JUMPDEST PUSH2 0xB7 PUSH1 0x4 DUP1 CALLDATASIZE SUB DUP2 ADD SWAP1 PUSH2 0xB2 SWAP2 SWAP1 PUSH2 0x74E JUMP JUMPDEST PUSH2 0x2F7 JUMP JUMPDEST PUSH1 0x40 MLOAD PUSH2 0xC4 SWAP2 SWAP1 PUSH2 0x564 JUMP JUMPDEST PUSH1 0x40 MLOAD DUP1 SWAP2 SUB SWAP1 RETURN JUMPDEST PUSH2 0xE7 PUSH1 0x4 DUP1 CALLDATASIZE SUB DUP2 ADD SWAP1 PUSH2 0xE2 SWAP2 SWAP1 PUSH2 0x795 JUMP JUMPDEST PUSH2 0x338 JUMP JUMPDEST STOP JUMPDEST PUSH2 0xF1 PUSH2 0x42E JUMP JUMPDEST PUSH20 0xFFFFFFFFFFFFFFFFFFFFFFFFFFFFFFFFFFFFFFFF AND PUSH2 0x10F PUSH2 0x170 JUMP JUMPDEST PUSH20 0xFFFFFFFFFFFFFFFFFFFFFFFFFFFFFFFFFFFFFFFF AND EQ PUSH2 0x165 JUMPI PUSH1 0x40 MLOAD PUSH32 0x8C379A000000000000000000000000000000000000000000000000000000000 DUP2 MSTORE PUSH1 0x4 ADD PUSH2 0x15C SWAP1 PUSH2 0x81A JUMP JUMPDEST PUSH1 0x40 MLOAD DUP1 SWAP2 SUB SWAP1 REVERT JUMPDEST PUSH2 0x16E PUSH0 PUSH2 0x435 JUMP JUMPDEST JUMP JUMPDEST PUSH0 DUP1 PUSH0 SWAP1 SLOAD SWAP1 PUSH2 0x100 EXP SWAP1 DIV PUSH20 0xFFFFFFFFFFFFFFFFFFFFFFFFFFFFFFFFFFFFFFFF AND SWAP1 POP SWAP1 JUMP JUMPDEST PUSH2 0x19F PUSH2 0x42E JUMP JUMPDEST PUSH20 0xFFFFFFFFFFFFFFFFFFFFFFFFFFFFFFFFFFFFFFFF AND PUSH2 0x1BD PUSH2 0x170 JUMP JUMPDEST PUSH20 0xFFFFFFFFFFFFFFFFFFFFFFFFFFFFFFFFFFFFFFFF AND EQ PUSH2 0x213 JUMPI PUSH1 0x40 MLOAD PUSH32 0x8C379A000000000000000000000000000000000000000000000000000000000 DUP2 MSTORE PUSH1 0x4 ADD PUSH2 0x20A SWAP1 PUSH2 0x81A JUMP JUMPDEST PUSH1 0x40 MLOAD DUP1 SWAP2 SUB SWAP1 REVERT JUMPDEST PUSH0 PUSH2 0x21D DUP4 PUSH2 0x4F6 JUMP JUMPDEST SWAP1 POP PUSH0 PUSH1 0x1 PUSH0 DUP4 DUP2 MSTORE PUSH1 0x20 ADD SWAP1 DUP2 MSTORE PUSH1 0x20 ADD PUSH0 KECCAK256 PUSH0 SWAP1 SLOAD SWAP1 PUSH2 0x100 EXP SWAP1 DIV PUSH20 0xFFFFFFFFFFFFFFFFFFFFFFFFFFFFFFFFFFFFFFFF AND SWAP1 POP DUP3 PUSH1 0x1 PUSH0 DUP5 DUP2 MSTORE PUSH1 0x20 ADD SWAP1 DUP2 MSTORE PUSH1 0x20 ADD PUSH0 KECCAK256 PUSH0 PUSH2 0x100 EXP DUP2 SLOAD DUP2 PUSH20 0xFFFFFFFFFFFFFFFFFFFFFFFFFFFFFFFFFFFFFFFF MUL NOT AND SWAP1 DUP4 PUSH20 0xFFFFFFFFFFFFFFFFFFFFFFFFFFFFFFFFFFFFFFFF AND MUL OR SWAP1 SSTORE POP DUP4 PUSH1 0x40 MLOAD PUSH2 0x2B0 SWAP2 SWAP1 PUSH2 0x88A JUMP JUMPDEST PUSH1 0x40 MLOAD DUP1 SWAP2 SUB SWAP1 KECCAK256 PUSH32 0x9416A153A346F93D95F94B064AE3F148B6460473C6E82B3F9FC2521B873FCD6C DUP5 DUP4 PUSH1 0x40 MLOAD PUSH2 0x2E9 SWAP3 SWAP2 SWAP1 PUSH2 0x8A0 JUMP JUMPDEST PUSH1 0x40 MLOAD DUP1 SWAP2 SUB SWAP1 LOG2 POP POP POP POP JUMP JUMPDEST PUSH0 PUSH1 0x1 PUSH0 PUSH2 0x304 DUP5 PUSH2 0x4F6 JUMP JUMPDEST DUP2 MSTORE PUSH1 0x20 ADD SWAP1 DUP2 MSTORE PUSH1 0x20 ADD PUSH0 KECCAK256 PUSH0 SWAP1 SLOAD SWAP1 PUSH2 0x100 EXP SWAP1 DIV PUSH20 0xFFFFFFFFFFFFFFFFFFFFFFFFFFFFFFFFFFFFFFFF AND SWAP1 POP SWAP2 SWAP1 POP JUMP JUMPDEST PUSH2 0x340 PUSH2 0x42E JUMP JUMPDEST PUSH20 0xFFFFFFFFFFFFFFFFFFFFFFFFFFFFFFFFFFFFFFFF AND PUSH2 0x35E PUSH2 0x170 JUMP JUMPDEST PUSH20 0xFFFFFFFFFFFFFFFFFFFFFFFFFFFFFFFFFFFFFFFF AND EQ PUSH2 0x3B4 JUMPI PUSH1 0x40 MLOAD PUSH32 0x8C379A000000000000000000000000000000000000000000000000000000000 DUP2 MSTORE PUSH1 0x4 ADD PUSH2 0x3AB SWAP1 PUSH2 0x81A JUMP JUMPDEST PUSH1 0x40 MLOAD DUP1 SWAP2 SUB SWAP1 REVERT JUMPDEST PUSH0 PUSH20 0xFFFFFFFFFFFFFFFFFFFFFFFFFFFFFFFFFFFFFFFF AND DUP2 PUSH20 0xFFFFFFFFFFFFFFFFFFFFFFFFFFFFFFFFFFFFFFFF AND SUB PUSH2 0x422 JUMPI PUSH1 0x40 MLOAD PUSH32 0x8C379A000000000000000000000000000000000000000000000000000000000 DUP2 MSTORE PUSH1 0x4 ADD PUSH2 0x419 SWAP1 PUSH2 0x937 JUMP JUMPDEST PUSH1 0x40 MLOAD DUP1 SWAP2 SUB SWAP1 REVERT JUMPDEST PUSH2 0x42B DUP2 PUSH2 0x435 JUMP JUMPDEST POP JUMP JUMPDEST PUSH0 CALLER SWAP1 POP SWAP1 JUMP JUMPDEST PUSH0 DUP1 PUSH0 SWAP1 SLOAD SWAP1 PUSH2 0x100 EXP SWAP1 DIV PUSH20 0xFFFFFFFFFFFFFFFFFFFFFFFFFFFFFFFFFFFFFFFF AND SWAP1 POP DUP2 PUSH0 DUP1 PUSH2 0x100 EXP DUP2 SLOAD DUP2 PUSH20 0xFFFFFFFFFFFFFFFFFFFFFFFFFFFFFFFFFFFFFFFF MUL NOT AND SWAP1 DUP4 PUSH20 0xFFFFFFFFFFFFFFFFFFFFFFFFFFFFFFFFFFFFFFFF AND MUL OR SWAP1 SSTORE POP DUP2 PUSH20 0xFFFFFFFFFFFFFFFFFFFFFFFFFFFFFFFFFFFFFFFF AND DUP2 PUSH20 0xFFFFFFFFFFFFFFFFFFFFFFFFFFFFFFFFFFFFFFFF AND PUSH32 0x8BE0079C531659141344CD1FD0A4F28419497F9722A3DAAFE3B4186F6B6457E0 PUSH1 0x40 MLOAD PUSH1 0x40 MLOAD DUP1 SWAP2 SUB SWAP1 LOG3 POP POP JUMP JUMPDEST PUSH0 DUP2 PUSH1 0x40 MLOAD PUSH1 0x20 ADD PUSH2 0x508 SWAP2 SWAP1 PUSH2 0x88A JUMP JUMPDEST PUSH1 0x40 MLOAD PUSH1 0x20 DUP2 DUP4 SUB SUB DUP2 MSTORE SWAP1 PUSH1 0x40 MSTORE DUP1 MLOAD SWAP1 PUSH1 0x20 ADD KECCAK256 SWAP1 POP SWAP2 SWAP1 POP JUMP JUMPDEST PUSH0 PUSH20 0xFFFFFFFFFFFFFFFFFFFFFFFFFFFFFFFFFFFFFFFF DUP3 AND SWAP1 POP SWAP2 SWAP1 POP JUMP JUMPDEST PUSH0 PUSH2 0x54E DUP3 PUSH2 0x525 JUMP JUMPDEST SWAP1 POP SWAP2 SWAP1 POP JUMP JUMPDEST PUSH2 0x55E DUP2 PUSH2 0x544 JUMP JUMPDEST DUP3 MSTORE POP POP JUMP JUMPDEST PUSH0 PUSH1 0x20 DUP3 ADD SWAP1 POP PUSH2 0x577 PUSH0 DUP4 ADD DUP5 PUSH2 0x555 JUMP JUMPDEST SWAP3 SWAP2 POP POP JUMP JUMPDEST PUSH0 PUSH1 0x40 MLOAD SWAP1 POP SWAP1 JUMP JUMPDEST PUSH0 DUP1 REVERT JUMPDEST PUSH0 DUP1 REVERT JUMPDEST PUSH0 DUP1 REVERT JUMPDEST PUSH0 DUP1 REVERT JUMPDEST PUSH0 PUSH1 0x1F NOT PUSH1 0x1F DUP4 ADD AND SWAP1 POP SWAP2 SWAP1 POP JUMP JUMPDEST PUSH32 0x4E487B7100000000000000000000000000000000000000000000000000000000 PUSH0 MSTORE PUSH1 0x41 PUSH1 0x4 MSTORE PUSH1 0x24 PUSH0 REVERT JUMPDEST PUSH2 0x5DC DUP3 PUSH2 0x596 JUMP JUMPDEST DUP2 ADD DUP2 DUP2 LT PUSH8 0xFFFFFFFFFFFFFFFF DUP3 GT OR ISZERO PUSH2 0x5FB JUMPI PUSH2 0x5FA PUSH2 0x5A6 JUMP JUMPDEST JUMPDEST DUP1 PUSH1 0x40 MSTORE POP POP POP JUMP JUMPDEST PUSH0 PUSH2 0x60D PUSH2 0x57D JUMP JUMPDEST SWAP1 POP PUSH2 0x619 DUP3 DUP3 PUSH2 0x5D3 JUMP JUMPDEST SWAP2 SWAP1 POP JUMP JUMPDEST PUSH0 PUSH8 0xFFFFFFFFFFFFFFFF DUP3 GT ISZERO PUSH2 0x638 JUMPI PUSH2 0x637 PUSH2 0x5A6 JUMP JUMPDEST JUMPDEST PUSH2 0x641 DUP3 PUSH2 0x596 JUMP JUMPDEST SWAP1 POP PUSH1 0x20 DUP2 ADD SWAP1 POP SWAP2 SWAP1 POP JUMP JUMPDEST DUP3 DUP2 DUP4 CALLDATACOPY PUSH0 DUP4 DUP4 ADD MSTORE POP POP POP JUMP JUMPDEST PUSH0 PUSH2 0x66E PUSH2 0x669 DUP5 PUSH2 0x61E JUMP JUMPDEST PUSH2 0x604 JUMP JUMPDEST SWAP1 POP DUP3 DUP2 MSTORE PUSH1 0x20 DUP2 ADD DUP5 DUP5 DUP5 ADD GT ISZERO PUSH2 0x68A JUMPI PUSH2 0x689 PUSH2 0x592 JUMP JUMPDEST JUMPDEST PUSH2 0x695 DUP5 DUP3 DUP6 PUSH2 0x64E JUMP JUMPDEST POP SWAP4 SWAP3 POP POP POP JUMP JUMPDEST PUSH0 DUP3 PUSH1 0x1F DUP4 ADD SLT PUSH2 0x6B1 JUMPI PUSH2 0x6B0 PUSH2 0x58E JUMP JUMPDEST JUMPDEST DUP2 CALLDATALOAD PUSH2 0x6C1 DUP5 DUP3 PUSH1 0x20 DUP7 ADD PUSH2 0x65C JUMP JUMPDEST SWAP2 POP POP SWAP3 SWAP2 POP POP JUMP JUMPDEST PUSH2 0x6D3 DUP2 PUSH2 0x544 JUMP JUMPDEST DUP2 EQ PUSH2 0x6DD JUMPI PUSH0 DUP1 REVERT JUMPDEST POP JUMP JUMPDEST PUSH0 DUP2 CALLDATALOAD SWAP1 POP PUSH2 0x6EE DUP2 PUSH2 0x6CA JUMP JUMPDEST SWAP3 SWAP2 POP POP JUMP JUMPDEST PUSH0 DUP1 PUSH1 0x40 DUP4 DUP6 SUB SLT ISZERO PUSH2 0x70A JUMPI PUSH2 0x709 PUSH2 0x586 JUMP JUMPDEST JUMPDEST PUSH0 DUP4 ADD CALLDATALOAD PUSH8 0xFFFFFFFFFFFFFFFF DUP2 GT ISZERO PUSH2 0x727 JUMPI PUSH2 0x726 PUSH2 0x58A JUMP JUMPDEST JUMPDEST PUSH2 0x733 DUP6 DUP3 DUP7 ADD PUSH2 0x69D JUMP JUMPDEST SWAP3 POP POP PUSH1 0x20 PUSH2 0x744 DUP6 DUP3 DUP7 ADD PUSH2 0x6E0 JUMP JUMPDEST SWAP2 POP POP SWAP3 POP SWAP3 SWAP1 POP JUMP JUMPDEST PUSH0 PUSH1 0x20 DUP3 DUP5 SUB SLT ISZERO PUSH2 0x763 JUMPI PUSH2 0x762 PUSH2 0x586 JUMP JUMPDEST JUMPDEST PUSH0 DUP3 ADD CALLDATALOAD PUSH8 0xFFFFFFFFFFFFFFFF DUP2 GT ISZERO PUSH2 0x780 JUMPI PUSH2 0x77F PUSH2 0x58A JUMP JUMPDEST JUMPDEST PUSH2 0x78C DUP5 DUP3 DUP6 ADD PUSH2 0x69D JUMP JUMPDEST SWAP2 POP POP SWAP3 SWAP2 POP POP JUMP JUMPDEST PUSH0 PUSH1 0x20 DUP3 DUP5 SUB SLT ISZERO PUSH2 0x7AA JUMPI PUSH2 0x7A9 PUSH2 0x586 JUMP JUMPDEST JUMPDEST PUSH0 PUSH2 0x7B7 DUP5 DUP3 DUP6 ADD PUSH2 0x6E0 JUMP JUMPDEST SWAP2 POP POP SWAP3 SWAP2 POP POP JUMP JUMPDEST PUSH0 DUP3 DUP3 MSTORE PUSH1 0x20 DUP3 ADD SWAP1 POP SWAP3 SWAP2 POP POP JUMP JUMPDEST PUSH32 0x4F776E61626C653A2063616C6C6572206973206E6F7420746865206F776E6572 PUSH0 DUP3 ADD MSTORE POP JUMP JUMPDEST PUSH0 PUSH2 0x804 PUSH1 0x20 DUP4 PUSH2 0x7C0 JUMP JUMPDEST SWAP2 POP PUSH2 0x80F DUP3 PUSH2 0x7D0 JUMP JUMPDEST PUSH1 0x20 DUP3 ADD SWAP1 POP SWAP2 SWAP1 POP JUMP JUMPDEST PUSH0 PUSH1 0x20 DUP3 ADD SWAP1 POP DUP2 DUP2 SUB PUSH0 DUP4 ADD MSTORE PUSH2 0x831 DUP2 PUSH2 0x7F8 JUMP JUMPDEST SWAP1 POP SWAP2 SWAP1 POP JUMP JUMPDEST PUSH0 DUP2 MLOAD SWAP1 POP SWAP2 SWAP1 POP JUMP JUMPDEST PUSH0 DUP2 SWAP1 POP SWAP3 SWAP2 POP POP JUMP JUMPDEST DUP3 DUP2 DUP4 MCOPY PUSH0 DUP4 DUP4 ADD MSTORE POP POP POP JUMP JUMPDEST PUSH0 PUSH2 0x864 DUP3 PUSH2 0x838 JUMP JUMPDEST PUSH2 0x86E DUP2 DUP6 PUSH2 0x842 JUMP JUMPDEST SWAP4 POP PUSH2 0x87E DUP2 DUP6 PUSH1 0x20 DUP7 ADD PUSH2 0x84C JUMP JUMPDEST DUP1 DUP5 ADD SWAP2 POP POP SWAP3 SWAP2 POP POP JUMP JUMPDEST PUSH0 PUSH2 0x895 DUP3 DUP5 PUSH2 0x85A JUMP JUMPDEST SWAP2 POP DUP2 SWAP1 POP SWAP3 SWAP2 POP POP JUMP JUMPDEST PUSH0 PUSH1 0x40 DUP3 ADD SWAP1 POP PUSH2 0x8B3 PUSH0 DUP4 ADD DUP6 PUSH2 0x555 JUMP JUMPDEST PUSH2 0x8C0 PUSH1 0x20 DUP4 ADD DUP5 PUSH2 0x555 JUMP JUMPDEST SWAP4 SWAP3 POP POP POP JUMP JUMPDEST PUSH32 0x4F776E61626C653A206E6577206F776E657220697320746865207A65726F2061 PUSH0 DUP3 ADD MSTORE PUSH32 0x6464726573730000000000000000000000000000000000000000000000000000 PUSH1 0x20 DUP3 ADD MSTORE POP JUMP JUMPDEST PUSH0 PUSH2 0x921 PUSH1 0x26 DUP4 PUSH2 0x7C0 JUMP JUMPDEST SWAP2 POP PUSH2 0x92C DUP3 PUSH2 0x8C7 JUMP JUMPDEST PUSH1 0x40 DUP3 ADD SWAP1 POP SWAP2 SWAP1 POP JUMP JUMPDEST PUSH0 PUSH1 0x20 DUP3 ADD SWAP1 POP DUP2 DUP2 SUB PUSH0 DUP4 ADD MSTORE PUSH2 0x94E DUP2 PUSH2 0x915 JUMP JUMPDEST SWAP1 POP SWAP2 SWAP1 POP JUMP INVALID LOG2 PUSH5 0x6970667358 0x22 SLT KECCAK256 0x1E 0xD9 0x23 0xBE LOG2 SWAP2 0xC9 LOG1 CALLER PC BLOBHASH DUP11 DELEGATECALL 0x2D CALLCODE MCOPY 0xB0 TSTORE 0xD1 GT JUMP 0xB8 PC MOD CALLER EXTCODESIZE SWAP13 PUSH13 0xDEC3749564736F6C634300081A STOP CALLER "
				},
				"gasEstimates": {
					"creation": {
						"codeDepositCost": "488600",
						"executionCost": "infinite",
						"totalCost": "infinite"
					},
					"external": {
						"getAddress(string)": "infinite",
						"owner()": "2515",
						"renounceOwnership()": "30344",
						"setAddress(string,address)": "infinite",
						"transferOwnership(address)": "30773"
					},
					"internal": {
						"_getNameHash(string memory)": "infinite"
					}
				},
				"methodIdentifiers": {
					"getAddress(string)": "bf40fac1",
					"owner()": "8da5cb5b",
					"renounceOwnership()": "715018a6",
					"setAddress(string,address)": "9b2ea4bd",
					"transferOwnership(address)": "f2fde38b"
				}
			},
			"storageLayout": {
				"storage": [
					{
						"astId": 289,
						"contract": "contracts/Lib_AddressManager.sol:Lib_AddressManager",
						"label": "_owner",
						"offset": 0,
						"slot": "0",
						"type": "t_address"
					},
					{
						"astId": 178,
						"contract": "contracts/Lib_AddressManager.sol:Lib_AddressManager",
						"label": "addresses",
						"offset": 0,
						"slot": "1",
						"type": "t_mapping(t_bytes32,t_address)"
					}
				],
				"types": {
					"t_address": {
						"encoding": "inplace",
						"label": "address",
						"numberOfBytes": "20"
					},
					"t_bytes32": {
						"encoding": "inplace",
						"label": "bytes32",
						"numberOfBytes": "32"
					},
					"t_mapping(t_bytes32,t_address)": {
						"encoding": "mapping",
						"key": "t_bytes32",
						"label": "mapping(bytes32 => address)",
						"numberOfBytes": "32",
						"value": "t_address"
					}
				}
			},
			"userdoc": {
				"kind": "user",
				"methods": {
					"getAddress(string)": {
						"notice": "Retrieves the address associated with a given name."
					},
					"setAddress(string,address)": {
						"notice": "Changes the address associated with a particular name."
					}
				},
				"version": 1
			}
		}
	}
}