{
	"data": {
		"bytecode": {
			"linkReferences": {},
			"object": "6080604052348015600e575f80fd5b505f805f806101000a81548173ffffffffffffffffffffffffffffffffffffffff021916908373ffffffffffffffffffffffffffffffffffffffff1602179055505060018081905550613af9806100645f395ff3fe608060405260043610610129575f3560e01c80638b4c40b0116100aa578063a9f9e6751161006e578063a9f9e6751461033f578063b1a1a88214610367578063e597455414610383578063ef808be2146103ad578063f4a13814146103c9578063f8c8765e1461040557610129565b80638b4c40b0146102ab57806390a40a76146102b557806391c49bf8146102dd5780639a2ac6d514610307578063a396a59c1461032357610129565b806358a997f6116100f157806358a997f6146101ed5780635bbbb7ed146102155780636cebdc451461023f578063838b25201461026757806384e930f01461028f57610129565b80630546aaa91461012d5780631532ec3414610155578063153928f41461017d578063200997b3146101a75780633cb747bf146101c3575b5f80fd5b348015610138575f80fd5b50610153600480360381019061014e91906127c9565b61042d565b005b348015610160575f80fd5b5061017b6004803603810190610176919061285f565b610710565b005b348015610188575f80fd5b506101916109f4565b60405161019e91906128f2565b60405180910390f35b6101c160048036038101906101bc9190612944565b610a19565b005b3480156101ce575f80fd5b506101d7610a80565b6040516101e491906128f2565b60405180910390f35b3480156101f8575f80fd5b50610213600480360381019061020e91906129c8565b610aa3565b005b348015610220575f80fd5b50610229610b17565b6040516102369190612a6d565b60405180910390f35b34801561024a575f80fd5b5061026560048036038101906102609190612a86565b610b1d565b005b348015610272575f80fd5b5061028d60048036038101906102889190612b43565b610cb0565b005b6102a960048036038101906102a49190612bed565b610cdc565b005b6102b3610d8b565b005b3480156102c0575f80fd5b506102db60048036038101906102d691906127c9565b610d9d565b005b3480156102e8575f80fd5b506102f1610f63565b6040516102fe91906128f2565b60405180910390f35b610321600480360381019061031c9190612c5e565b610f88565b005b61033d60048036038101906103389190612ccf565b610fed565b005b34801561034a575f80fd5b5061036560048036038101906103609190612d79565b611060565b005b610381600480360381019061037c9190612e23565b6111f4565b005b34801561038e575f80fd5b506103976112a1565b6040516103a491906128f2565b60405180910390f35b6103c760048036038101906103c29190612e80565b6112c6565b005b3480156103d4575f80fd5b506103ef60048036038101906103ea9190612f3d565b6112f1565b6040516103fc9190612a6d565b60405180910390f35b348015610410575f80fd5b5061042b60048036038101906104269190612f8d565b61131c565b005b60025f9054906101000a900473ffffffffffffffffffffffffffffffffffffffff166104576114ae565b73ffffffffffffffffffffffffffffffffffffffff163373ffffffffffffffffffffffffffffffffffffffff16146104c4576040517f08c379a00000000000000000000000000000000000000000000000000000000081526004016104bb90613071565b60405180910390fd5b8073ffffffffffffffffffffffffffffffffffffffff166104e36114ae565b73ffffffffffffffffffffffffffffffffffffffff16636e296e456040518163ffffffff1660e01b8152600401602060405180830381865afa15801561052b573d5f803e3d5ffd5b505050506040513d601f19601f8201168201806040525081019061054f91906130a3565b73ffffffffffffffffffffffffffffffffffffffff16146105a5576040517f08c379a000000000000000000000000000000000000000000000000000000000815260040161059c9061313e565b60405180910390fd5b5f8573ffffffffffffffffffffffffffffffffffffffff16855f67ffffffffffffffff8111156105d8576105d761315c565b5b6040519080825280601f01601f19166020018201604052801561060a5781602001600182028036833780820191505090505b5060405161061891906131db565b5f6040518083038185875af1925050503d805f8114610652576040519150601f19603f3d011682016040523d82523d5f602084013e610657565b606091505b505090508061069b576040517f08c379a000000000000000000000000000000000000000000000000000000000815260040161069290613261565b60405180910390fd5b8573ffffffffffffffffffffffffffffffffffffffff168773ffffffffffffffffffffffffffffffffffffffff167f727233b1ab656a027266fdc255d394b9aa8a2db3b7ff0fd6150dc3a8686f30cb8787878d6040516106fe94939291906132d9565b60405180910390a35050505050505050565b60025f9054906101000a900473ffffffffffffffffffffffffffffffffffffffff1661073a6114ae565b73ffffffffffffffffffffffffffffffffffffffff163373ffffffffffffffffffffffffffffffffffffffff16146107a7576040517f08c379a000000000000000000000000000000000000000000000000000000000815260040161079e90613071565b60405180910390fd5b8073ffffffffffffffffffffffffffffffffffffffff166107c66114ae565b73ffffffffffffffffffffffffffffffffffffffff16636e296e456040518163ffffffff1660e01b8152600401602060405180830381865afa15801561080e573d5f803e3d5ffd5b505050506040513d601f19601f8201168201806040525081019061083291906130a3565b73ffffffffffffffffffffffffffffffffffffffff1614610888576040517f08c379a000000000000000000000000000000000000000000000000000000000815260040161087f9061313e565b60405180910390fd5b5f8573ffffffffffffffffffffffffffffffffffffffff16855f67ffffffffffffffff8111156108bb576108ba61315c565b5b6040519080825280601f01601f1916602001820160405280156108ed5781602001600182028036833780820191505090505b506040516108fb91906131db565b5f6040518083038185875af1925050503d805f8114610935576040519150601f19603f3d011682016040523d82523d5f602084013e61093a565b606091505b505090508061097e576040517f08c379a000000000000000000000000000000000000000000000000000000000815260040161097590613261565b60405180910390fd5b8573ffffffffffffffffffffffffffffffffffffffff168773ffffffffffffffffffffffffffffffffffffffff167f727233b1ab656a027266fdc255d394b9aa8a2db3b7ff0fd6150dc3a8686f30cb8787876104406040516109e394939291906132d9565b60405180910390a350505050505050565b60045f9054906101000a900473ffffffffffffffffffffffffffffffffffffffff1681565b610a216114d5565b610a718533868686868080601f0160208091040260200160405190810160405280939291908181526020018383808284375f81840152601f19601f82011690508083019250505050505050611524565b610a79611889565b5050505050565b5f8054906101000a900473ffffffffffffffffffffffffffffffffffffffff1681565b610aac33611892565b15610aec576040517f08c379a0000000000000000000000000000000000000000000000000000000008152600401610ae390613361565b60405180910390fd5b610af46114d5565b610b0761044087873333898989896118a3565b610b0f611889565b505050505050565b61044081565b60025f9054906101000a900473ffffffffffffffffffffffffffffffffffffffff16610b476114ae565b73ffffffffffffffffffffffffffffffffffffffff163373ffffffffffffffffffffffffffffffffffffffff1614610bb4576040517f08c379a0000000000000000000000000000000000000000000000000000000008152600401610bab90613071565b60405180910390fd5b8073ffffffffffffffffffffffffffffffffffffffff16610bd36114ae565b73ffffffffffffffffffffffffffffffffffffffff16636e296e456040518163ffffffff1660e01b8152600401602060405180830381865afa158015610c1b573d5f803e3d5ffd5b505050506040513d601f19601f82011682018060405250810190610c3f91906130a3565b73ffffffffffffffffffffffffffffffffffffffff1614610c95576040517f08c379a0000000000000000000000000000000000000000000000000000000008152600401610c8c9061313e565b60405180910390fd5b610ca58989898989898989611f63565b505050505050505050565b610cb86114d5565b610ccb61044088883389898989896118a3565b610cd3611889565b50505050505050565b610ce533611892565b15610d25576040517f08c379a0000000000000000000000000000000000000000000000000000000008152600401610d1c90613361565b60405180910390fd5b610d2d6114d5565b610d7d8433338686868080601f0160208091040260200160405190810160405280939291908181526020018383808284375f81840152601f19601f82011690508083019250505050505050611524565b610d85611889565b50505050565b610d936114d5565b610d9b611889565b565b60025f9054906101000a900473ffffffffffffffffffffffffffffffffffffffff16610dc76114ae565b73ffffffffffffffffffffffffffffffffffffffff163373ffffffffffffffffffffffffffffffffffffffff1614610e34576040517f08c379a0000000000000000000000000000000000000000000000000000000008152600401610e2b90613071565b60405180910390fd5b8073ffffffffffffffffffffffffffffffffffffffff16610e536114ae565b73ffffffffffffffffffffffffffffffffffffffff16636e296e456040518163ffffffff1660e01b8152600401602060405180830381865afa158015610e9b573d5f803e3d5ffd5b505050506040513d601f19601f82011682018060405250810190610ebf91906130a3565b73ffffffffffffffffffffffffffffffffffffffff1614610f15576040517f08c379a0000000000000000000000000000000000000000000000000000000008152600401610f0c9061313e565b60405180910390fd5b610f5a8760035f9054906101000a900473ffffffffffffffffffffffffffffffffffffffff1673deaddeaddeaddeaddeaddeaddeaddeaddead00008989898989611f63565b50505050505050565b60025f9054906101000a900473ffffffffffffffffffffffffffffffffffffffff1681565b610f906114d5565b610fdf33858585858080601f0160208091040260200160405190810160405280939291908181526020018383808284375f81840152601f19601f8201169050808301925050505050505061216f565b610fe7611889565b50505050565b610ff633611892565b15611036576040517f08c379a000000000000000000000000000000000000000000000000000000000815260040161102d90613361565b60405180910390fd5b61103e6114d5565b61104f8787873333898989896118a3565b611057611889565b50505050505050565b60025f9054906101000a900473ffffffffffffffffffffffffffffffffffffffff1661108a6114ae565b73ffffffffffffffffffffffffffffffffffffffff163373ffffffffffffffffffffffffffffffffffffffff16146110f7576040517f08c379a00000000000000000000000000000000000000000000000000000000081526004016110ee90613071565b60405180910390fd5b8073ffffffffffffffffffffffffffffffffffffffff166111166114ae565b73ffffffffffffffffffffffffffffffffffffffff16636e296e456040518163ffffffff1660e01b8152600401602060405180830381865afa15801561115e573d5f803e3d5ffd5b505050506040513d601f19601f8201168201806040525081019061118291906130a3565b73ffffffffffffffffffffffffffffffffffffffff16146111d8576040517f08c379a00000000000000000000000000000000000000000000000000000000081526004016111cf9061313e565b60405180910390fd5b6111ea61044089898989898989611f63565b5050505050505050565b6111fd33611892565b1561123d576040517f08c379a000000000000000000000000000000000000000000000000000000000815260040161123490613361565b60405180910390fd5b6112456114d5565b61129433338585858080601f0160208091040260200160405190810160405280939291908181526020018383808284375f81840152601f19601f8201169050808301925050505050505061216f565b61129c611889565b505050565b60035f9054906101000a900473ffffffffffffffffffffffffffffffffffffffff1681565b6112ce6114d5565b6112df8888883389898989896118a3565b6112e7611889565b5050505050505050565b6005602052825f5260405f20602052815f5260405f20602052805f5260405f205f9250925050505481565b5f73ffffffffffffffffffffffffffffffffffffffff165f8054906101000a900473ffffffffffffffffffffffffffffffffffffffff1673ffffffffffffffffffffffffffffffffffffffff16146113a9576040517f08c379a00000000000000000000000000000000000000000000000000000000081526004016113a0906133ef565b60405180910390fd5b835f806101000a81548173ffffffffffffffffffffffffffffffffffffffff021916908373ffffffffffffffffffffffffffffffffffffffff1602179055508260025f6101000a81548173ffffffffffffffffffffffffffffffffffffffff021916908373ffffffffffffffffffffffffffffffffffffffff1602179055508160035f6101000a81548173ffffffffffffffffffffffffffffffffffffffff021916908373ffffffffffffffffffffffffffffffffffffffff1602179055508060045f6101000a81548173ffffffffffffffffffffffffffffffffffffffff021916908373ffffffffffffffffffffffffffffffffffffffff16021790555050505050565b5f805f9054906101000a900473ffffffffffffffffffffffffffffffffffffffff16905090565b60026001540361151a576040517f08c379a000000000000000000000000000000000000000000000000000000000815260040161151190613457565b60405180910390fd5b6002600181905550565b61152c6114d5565b5f60045f9054906101000a900473ffffffffffffffffffffffffffffffffffffffff1673ffffffffffffffffffffffffffffffffffffffff1663bf40fac16040518163ffffffff1660e01b8152600401611585906134bf565b602060405180830381865afa1580156115a0573d5f803e3d5ffd5b505050506040513d601f19601f820116820180604052508101906115c491906130a3565b90505f8173ffffffffffffffffffffffffffffffffffffffff1663bf53926e6040518163ffffffff1660e01b8152600401602060405180830381865afa158015611610573d5f803e3d5ffd5b505050506040513d601f19601f8201168201806040525081019061163491906134f1565b90508063ffffffff168463ffffffff16101561164e578093505b5f8273ffffffffffffffffffffffffffffffffffffffff1663d137874b6040518163ffffffff1660e01b8152600401602060405180830381865afa158015611698573d5f803e3d5ffd5b505050506040513d601f19601f820116820180604052508101906116bc91906134f1565b8563ffffffff166116cd9190613549565b9050348111156116dc82612194565b6040516020016116ec919061363e565b6040516020818303038152906040529061173c576040517f08c379a00000000000000000000000000000000000000000000000000000000081526004016117339190613697565b60405180910390fd5b505f63662a633a60e01b5f73420000000000000000000000000000000000000a8a8a863461176a91906136b7565b8a60405160240161178096959493929190613722565b604051602081830303815290604052907bffffffffffffffffffffffffffffffffffffffffffffffffffffffff19166020820180517bffffffffffffffffffffffffffffffffffffffffffffffffffffffff8381831617835250505050905061180d8960025f9054906101000a900473ffffffffffffffffffffffffffffffffffffffff16888486612312565b8673ffffffffffffffffffffffffffffffffffffffff168873ffffffffffffffffffffffffffffffffffffffff167f742461272f8da1cbe655542d3257acb1f1d5f4e6eaa79692ac5609b0f89cb64434888d60405161186e93929190613788565b60405180910390a350505050611882611889565b5050505050565b60018081905550565b5f80823b90505f8111915050919050565b5f60045f9054906101000a900473ffffffffffffffffffffffffffffffffffffffff1673ffffffffffffffffffffffffffffffffffffffff1663bf40fac16040518163ffffffff1660e01b81526004016118fc906134bf565b602060405180830381865afa158015611917573d5f803e3d5ffd5b505050506040513d601f19601f8201168201806040525081019061193b91906130a3565b90508073ffffffffffffffffffffffffffffffffffffffff1663bf53926e6040518163ffffffff1660e01b8152600401602060405180830381865afa158015611986573d5f803e3d5ffd5b505050506040513d601f19601f820116820180604052508101906119aa91906134f1565b63ffffffff168463ffffffff161015611a2d578073ffffffffffffffffffffffffffffffffffffffff1663bf53926e6040518163ffffffff1660e01b8152600401602060405180830381865afa158015611a06573d5f803e3d5ffd5b505050506040513d601f19601f82011682018060405250810190611a2a91906134f1565b93505b348173ffffffffffffffffffffffffffffffffffffffff1663d137874b6040518163ffffffff1660e01b8152600401602060405180830381865afa158015611a77573d5f803e3d5ffd5b505050506040513d601f19601f82011682018060405250810190611a9b91906134f1565b8563ffffffff16611aac9190613549565b1115611b348273ffffffffffffffffffffffffffffffffffffffff1663d137874b6040518163ffffffff1660e01b8152600401602060405180830381865afa158015611afa573d5f803e3d5ffd5b505050506040513d601f19601f82011682018060405250810190611b1e91906134f1565b8663ffffffff16611b2f9190613549565b612194565b604051602001611b44919061363e565b60405160208183030381529060405290611b94576040517f08c379a0000000000000000000000000000000000000000000000000000000008152600401611b8b9190613697565b60405180910390fd5b50611bc28730878c73ffffffffffffffffffffffffffffffffffffffff1661238e909392919063ffffffff16565b606060035f9054906101000a900473ffffffffffffffffffffffffffffffffffffffff1673ffffffffffffffffffffffffffffffffffffffff168a73ffffffffffffffffffffffffffffffffffffffff1603611ccc5773deaddeaddeaddeaddeaddeaddeaddeaddead0000985063662a633a60e01b5f73deaddeaddeaddeaddeaddeaddeaddeaddead00008a8a8a8989604051602401611c6897969594939291906137c4565b604051602081830303815290604052907bffffffffffffffffffffffffffffffffffffffffffffffffffffffff19166020820180517bffffffffffffffffffffffffffffffffffffffffffffffffffffffff83818316178352505050509050611d51565b63662a633a60e01b8a8a8a8a8a8989604051602401611cf197969594939291906137c4565b604051602081830303815290604052907bffffffffffffffffffffffffffffffffffffffffffffffffffffffff19166020820180517bffffffffffffffffffffffffffffffffffffffffffffffffffffffff838183161783525050505090505b611d7f8b60025f9054906101000a900473ffffffffffffffffffffffffffffffffffffffff16878434612312565b8560055f8c73ffffffffffffffffffffffffffffffffffffffff1673ffffffffffffffffffffffffffffffffffffffff1681526020019081526020015f205f8d81526020019081526020015f205f8b73ffffffffffffffffffffffffffffffffffffffff1673ffffffffffffffffffffffffffffffffffffffff1681526020019081526020015f2054611e12919061382c565b60055f8c73ffffffffffffffffffffffffffffffffffffffff1673ffffffffffffffffffffffffffffffffffffffff1681526020019081526020015f205f8d81526020019081526020015f205f8b73ffffffffffffffffffffffffffffffffffffffff1673ffffffffffffffffffffffffffffffffffffffff1681526020019081526020015f20819055507fc333b5c3e71358b85edbb94334230ac00644c26af29851f9034a7105eb84b0778b604051611ecc9190612a6d565b60405180910390a18773ffffffffffffffffffffffffffffffffffffffff168973ffffffffffffffffffffffffffffffffffffffff168b73ffffffffffffffffffffffffffffffffffffffff167f718594027abd4eaed59f95162563e0cc6d0e8d5b86b1c7be8b1b0ac3343d03968a8a8989604051611f4e949392919061385f565b60405180910390a45050505050505050505050565b8260055f8973ffffffffffffffffffffffffffffffffffffffff1673ffffffffffffffffffffffffffffffffffffffff1681526020019081526020015f205f8a81526020019081526020015f205f8873ffffffffffffffffffffffffffffffffffffffff1673ffffffffffffffffffffffffffffffffffffffff1681526020019081526020015f2054611ff691906136b7565b60055f8973ffffffffffffffffffffffffffffffffffffffff1673ffffffffffffffffffffffffffffffffffffffff1681526020019081526020015f205f8a81526020019081526020015f205f8873ffffffffffffffffffffffffffffffffffffffff1673ffffffffffffffffffffffffffffffffffffffff1681526020019081526020015f20819055506120ac84848973ffffffffffffffffffffffffffffffffffffffff166124109092919063ffffffff16565b7fc333b5c3e71358b85edbb94334230ac00644c26af29851f9034a7105eb84b077886040516120db9190612a6d565b60405180910390a18473ffffffffffffffffffffffffffffffffffffffff168673ffffffffffffffffffffffffffffffffffffffff168873ffffffffffffffffffffffffffffffffffffffff167f3ceee06c1e37648fcbb6ed52e17b3e1f275a1f8c7b22a84b2b84732431e046b38787878760405161215d949392919061385f565b60405180910390a45050505050505050565b6121776114d5565b61218661044085858585611524565b61218e611889565b50505050565b60605f82036121da576040518060400160405280600181526020017f3000000000000000000000000000000000000000000000000000000000000000815250905061230d565b5f8290505f5b5f82146122095780806121f29061389d565b915050600a826122029190613911565b91506121e0565b5f8167ffffffffffffffff8111156122245761222361315c565b5b6040519080825280601f01601f1916602001820160405280156122565781602001600182028036833780820191505090505b5090505f8290505b5f86146123055760018161227291906136b7565b90505f600a80886122839190613911565b61228d9190613549565b8761229891906136b7565b60306122a4919061394d565b90505f8160f81b9050808484815181106122c1576122c0613981565b5b60200101907effffffffffffffffffffffffffffffffffffffffffffffffffffffffffffff191690815f1a905350600a886122fc9190613911565b9750505061225e565b819450505050505b919050565b61231a6114ae565b73ffffffffffffffffffffffffffffffffffffffff166344dd5ed682878786886040518663ffffffff1660e01b815260040161235994939291906139bd565b5f604051808303818588803b158015612370575f80fd5b505af1158015612382573d5f803e3d5ffd5b50505050505050505050565b61240a848573ffffffffffffffffffffffffffffffffffffffff166323b872dd8686866040516024016123c393929190613a07565b604051602081830303815290604052915060e01b6020820180517bffffffffffffffffffffffffffffffffffffffffffffffffffffffff838183161783525050505061248f565b50505050565b61248a838473ffffffffffffffffffffffffffffffffffffffff1663a9059cbb8585604051602401612443929190613a3c565b604051602081830303815290604052915060e01b6020820180517bffffffffffffffffffffffffffffffffffffffffffffffffffffffff838183161783525050505061248f565b505050565b5f6124b9828473ffffffffffffffffffffffffffffffffffffffff1661252490919063ffffffff16565b90505f8151141580156124dd5750808060200190518101906124db9190613a98565b155b1561251f57826040517f5274afe700000000000000000000000000000000000000000000000000000000815260040161251691906128f2565b60405180910390fd5b505050565b606061253183835f612539565b905092915050565b60608147101561258057306040517fcd78605900000000000000000000000000000000000000000000000000000000815260040161257791906128f2565b60405180910390fd5b5f808573ffffffffffffffffffffffffffffffffffffffff1684866040516125a891906131db565b5f6040518083038185875af1925050503d805f81146125e2576040519150601f19603f3d011682016040523d82523d5f602084013e6125e7565b606091505b50915091506125f7868383612602565b925050509392505050565b606082612617576126128261268f565b612687565b5f825114801561263d57505f8473ffffffffffffffffffffffffffffffffffffffff163b145b1561267f57836040517f9996b31500000000000000000000000000000000000000000000000000000000815260040161267691906128f2565b60405180910390fd5b819050612688565b5b9392505050565b5f815111156126a15780518082602001fd5b6040517f1425ea4200000000000000000000000000000000000000000000000000000000815260040160405180910390fd5b5f80fd5b5f80fd5b5f819050919050565b6126ed816126db565b81146126f7575f80fd5b50565b5f81359050612708816126e4565b92915050565b5f73ffffffffffffffffffffffffffffffffffffffff82169050919050565b5f6127378261270e565b9050919050565b6127478161272d565b8114612751575f80fd5b50565b5f813590506127628161273e565b92915050565b5f80fd5b5f80fd5b5f80fd5b5f8083601f84011261278957612788612768565b5b8235905067ffffffffffffffff8111156127a6576127a561276c565b5b6020830191508360018202830111156127c2576127c1612770565b5b9250929050565b5f805f805f8060a087890312156127e3576127e26126d3565b5b5f6127f089828a016126fa565b965050602061280189828a01612754565b955050604061281289828a01612754565b945050606061282389828a016126fa565b935050608087013567ffffffffffffffff811115612844576128436126d7565b5b61285089828a01612774565b92509250509295509295509295565b5f805f805f60808688031215612878576128776126d3565b5b5f61288588828901612754565b955050602061289688828901612754565b94505060406128a7888289016126fa565b935050606086013567ffffffffffffffff8111156128c8576128c76126d7565b5b6128d488828901612774565b92509250509295509295909350565b6128ec8161272d565b82525050565b5f6020820190506129055f8301846128e3565b92915050565b5f63ffffffff82169050919050565b6129238161290b565b811461292d575f80fd5b50565b5f8135905061293e8161291a565b92915050565b5f805f805f6080868803121561295d5761295c6126d3565b5b5f61296a888289016126fa565b955050602061297b88828901612754565b945050604061298c88828901612930565b935050606086013567ffffffffffffffff8111156129ad576129ac6126d7565b5b6129b988828901612774565b92509250509295509295909350565b5f805f805f8060a087890312156129e2576129e16126d3565b5b5f6129ef89828a01612754565b9650506020612a0089828a01612754565b9550506040612a1189828a016126fa565b9450506060612a2289828a01612930565b935050608087013567ffffffffffffffff811115612a4357612a426126d7565b5b612a4f89828a01612774565b92509250509295509295509295565b612a67816126db565b82525050565b5f602082019050612a805f830184612a5e565b92915050565b5f805f805f805f8060e0898b031215612aa257612aa16126d3565b5b5f612aaf8b828c016126fa565b9850506020612ac08b828c01612754565b9750506040612ad18b828c01612754565b9650506060612ae28b828c01612754565b9550506080612af38b828c01612754565b94505060a0612b048b828c016126fa565b93505060c089013567ffffffffffffffff811115612b2557612b246126d7565b5b612b318b828c01612774565b92509250509295985092959890939650565b5f805f805f805f60c0888a031215612b5e57612b5d6126d3565b5b5f612b6b8a828b01612754565b9750506020612b7c8a828b01612754565b9650506040612b8d8a828b01612754565b9550506060612b9e8a828b016126fa565b9450506080612baf8a828b01612930565b93505060a088013567ffffffffffffffff811115612bd057612bcf6126d7565b5b612bdc8a828b01612774565b925092505092959891949750929550565b5f805f8060608587031215612c0557612c046126d3565b5b5f612c12878288016126fa565b9450506020612c2387828801612930565b935050604085013567ffffffffffffffff811115612c4457612c436126d7565b5b612c5087828801612774565b925092505092959194509250565b5f805f8060608587031215612c7657612c756126d3565b5b5f612c8387828801612754565b9450506020612c9487828801612930565b935050604085013567ffffffffffffffff811115612cb557612cb46126d7565b5b612cc187828801612774565b925092505092959194509250565b5f805f805f805f60c0888a031215612cea57612ce96126d3565b5b5f612cf78a828b016126fa565b9750506020612d088a828b01612754565b9650506040612d198a828b01612754565b9550506060612d2a8a828b016126fa565b9450506080612d3b8a828b01612930565b93505060a088013567ffffffffffffffff811115612d5c57612d5b6126d7565b5b612d688a828b01612774565b925092505092959891949750929550565b5f805f805f805f60c0888a031215612d9457612d936126d3565b5b5f612da18a828b01612754565b9750506020612db28a828b01612754565b9650506040612dc38a828b01612754565b9550506060612dd48a828b01612754565b9450506080612de58a828b016126fa565b93505060a088013567ffffffffffffffff811115612e0657612e056126d7565b5b612e128a828b01612774565b925092505092959891949750929550565b5f805f60408486031215612e3a57612e396126d3565b5b5f612e4786828701612930565b935050602084013567ffffffffffffffff811115612e6857612e676126d7565b5b612e7486828701612774565b92509250509250925092565b5f805f805f805f8060e0898b031215612e9c57612e9b6126d3565b5b5f612ea98b828c016126fa565b9850506020612eba8b828c01612754565b9750506040612ecb8b828c01612754565b9650506060612edc8b828c01612754565b9550506080612eed8b828c016126fa565b94505060a0612efe8b828c01612930565b93505060c089013567ffffffffffffffff811115612f1f57612f1e6126d7565b5b612f2b8b828c01612774565b92509250509295985092959890939650565b5f805f60608486031215612f5457612f536126d3565b5b5f612f6186828701612754565b9350506020612f72868287016126fa565b9250506040612f8386828701612754565b9150509250925092565b5f805f8060808587031215612fa557612fa46126d3565b5b5f612fb287828801612754565b9450506020612fc387828801612754565b9350506040612fd487828801612754565b9250506060612fe587828801612754565b91505092959194509250565b5f82825260208201905092915050565b7f4f564d5f58434841494e3a206d657373656e67657220636f6e747261637420755f8201527f6e61757468656e74696361746564000000000000000000000000000000000000602082015250565b5f61305b602e83612ff1565b915061306682613001565b604082019050919050565b5f6020820190508181035f8301526130888161304f565b9050919050565b5f8151905061309d8161273e565b92915050565b5f602082840312156130b8576130b76126d3565b5b5f6130c58482850161308f565b91505092915050565b7f4f564d5f58434841494e3a2077726f6e672073656e646572206f662063726f735f8201527f732d646f6d61696e206d65737361676500000000000000000000000000000000602082015250565b5f613128603083612ff1565b9150613133826130ce565b604082019050919050565b5f6020820190508181035f8301526131558161311c565b9050919050565b7f4e487b71000000000000000000000000000000000000000000000000000000005f52604160045260245ffd5b5f81519050919050565b5f81905092915050565b8281835e5f83830152505050565b5f6131b582613189565b6131bf8185613193565b93506131cf81856020860161319d565b80840191505092915050565b5f6131e682846131ab565b915081905092915050565b7f5472616e7366657248656c7065723a3a736166655472616e736665724554483a5f8201527f20455448207472616e73666572206661696c6564000000000000000000000000602082015250565b5f61324b603483612ff1565b9150613256826131f1565b604082019050919050565b5f6020820190508181035f8301526132788161323f565b9050919050565b5f82825260208201905092915050565b828183375f83830152505050565b5f601f19601f8301169050919050565b5f6132b8838561327f565b93506132c583858461328f565b6132ce8361329d565b840190509392505050565b5f6060820190506132ec5f830187612a5e565b81810360208301526132ff8185876132ad565b905061330e6040830184612a5e565b95945050505050565b7f4163636f756e74206e6f7420454f4100000000000000000000000000000000005f82015250565b5f61334b600f83612ff1565b915061335682613317565b602082019050919050565b5f6020820190508181035f8301526133788161333f565b9050919050565b7f436f6e74726163742068617320616c7265616479206265656e20696e697469615f8201527f6c697a65642e0000000000000000000000000000000000000000000000000000602082015250565b5f6133d9602683612ff1565b91506133e48261337f565b604082019050919050565b5f6020820190508181035f830152613406816133cd565b9050919050565b7f5265656e7472616e637947756172643a207265656e7472616e742063616c6c005f82015250565b5f613441601f83612ff1565b915061344c8261340d565b602082019050919050565b5f6020820190508181035f83015261346e81613435565b9050919050565b7f4d564d5f446973636f756e744f7261636c6500000000000000000000000000005f82015250565b5f6134a9601283612ff1565b91506134b482613475565b602082019050919050565b5f6020820190508181035f8301526134d68161349d565b9050919050565b5f815190506134eb816126e4565b92915050565b5f60208284031215613506576135056126d3565b5b5f613513848285016134dd565b91505092915050565b7f4e487b71000000000000000000000000000000000000000000000000000000005f52601160045260245ffd5b5f613553826126db565b915061355e836126db565b925082820261356c816126db565b915082820484148315176135835761358261351c565b5b5092915050565b5f81905092915050565b7f696e73756666696369656e742066656520737570706c6965642e2073656e64205f8201527f6174206c65617374200000000000000000000000000000000000000000000000602082015250565b5f6135ee60298361358a565b91506135f982613594565b602982019050919050565b5f81519050919050565b5f61361882613604565b613622818561358a565b935061363281856020860161319d565b80840191505092915050565b5f613648826135e2565b9150613654828461360e565b915081905092915050565b5f61366982613604565b6136738185612ff1565b935061368381856020860161319d565b61368c8161329d565b840191505092915050565b5f6020820190508181035f8301526136af818461365f565b905092915050565b5f6136c1826126db565b91506136cc836126db565b92508282039050818111156136e4576136e361351c565b5b92915050565b5f6136f482613189565b6136fe818561327f565b935061370e81856020860161319d565b6137178161329d565b840191505092915050565b5f60c0820190506137355f8301896128e3565b61374260208301886128e3565b61374f60408301876128e3565b61375c60608301866128e3565b6137696080830185612a5e565b81810360a083015261377b81846136ea565b9050979650505050505050565b5f60608201905061379b5f830186612a5e565b81810360208301526137ad81856136ea565b90506137bc6040830184612a5e565b949350505050565b5f60c0820190506137d75f83018a6128e3565b6137e460208301896128e3565b6137f160408301886128e3565b6137fe60608301876128e3565b61380b6080830186612a5e565b81810360a083015261381e8184866132ad565b905098975050505050505050565b5f613836826126db565b9150613841836126db565b92508282019050808211156138595761385861351c565b5b92915050565b5f6060820190506138725f8301876128e3565b61387f6020830186612a5e565b81810360408301526138928184866132ad565b905095945050505050565b5f6138a7826126db565b91507fffffffffffffffffffffffffffffffffffffffffffffffffffffffffffffffff82036138d9576138d861351c565b5b600182019050919050565b7f4e487b71000000000000000000000000000000000000000000000000000000005f52601260045260245ffd5b5f61391b826126db565b9150613926836126db565b925082613936576139356138e4565b5b828204905092915050565b5f60ff82169050919050565b5f61395782613941565b915061396283613941565b9250828201905060ff81111561397b5761397a61351c565b5b92915050565b7f4e487b71000000000000000000000000000000000000000000000000000000005f52603260045260245ffd5b6139b78161290b565b82525050565b5f6080820190506139d05f830187612a5e565b6139dd60208301866128e3565b81810360408301526139ef81856136ea565b90506139fe60608301846139ae565b95945050505050565b5f606082019050613a1a5f8301866128e3565b613a2760208301856128e3565b613a346040830184612a5e565b949350505050565b5f604082019050613a4f5f8301856128e3565b613a5c6020830184612a5e565b9392505050565b5f8115159050919050565b613a7781613a63565b8114613a81575f80fd5b50565b5f81519050613a9281613a6e565b92915050565b5f60208284031215613aad57613aac6126d3565b5b5f613aba84828501613a84565b9150509291505056fea26469706673582212206591cbe90773b37ad83f467cf45daef32e2ea1af18b8a6a59fd178d58731988e64736f6c634300081a0033",
			"opcodes": "PUSH1 0x80 PUSH1 0x40 MSTORE CALLVALUE DUP1 ISZERO PUSH1 0xE JUMPI PUSH0 DUP1 REVERT JUMPDEST POP PUSH0 DUP1 PUSH0 DUP1 PUSH2 0x100 EXP DUP2 SLOAD DUP2 PUSH20 0xFFFFFFFFFFFFFFFFFFFFFFFFFFFFFFFFFFFFFFFF MUL NOT AND SWAP1 DUP4 PUSH20 0xFFFFFFFFFFFFFFFFFFFFFFFFFFFFFFFFFFFFFFFF AND MUL OR SWAP1 SSTORE POP POP PUSH1 0x1 DUP1 DUP2 SWAP1 SSTORE POP PUSH2 0x3AF9 DUP1 PUSH2 0x64 PUSH0 CODECOPY PUSH0 RETURN INVALID PUSH1 0x80 PUSH1 0x40 MSTORE PUSH1 0x4 CALLDATASIZE LT PUSH2 0x129 JUMPI PUSH0 CALLDATALOAD PUSH1 0xE0 SHR DUP1 PUSH4 0x8B4C40B0 GT PUSH2 0xAA JUMPI DUP1 PUSH4 0xA9F9E675 GT PUSH2 0x6E JUMPI DUP1 PUSH4 0xA9F9E675 EQ PUSH2 0x33F JUMPI DUP1 PUSH4 0xB1A1A882 EQ PUSH2 0x367 JUMPI DUP1 PUSH4 0xE5974554 EQ PUSH2 0x383 JUMPI DUP1 PUSH4 0xEF808BE2 EQ PUSH2 0x3AD JUMPI DUP1 PUSH4 0xF4A13814 EQ PUSH2 0x3C9 JUMPI DUP1 PUSH4 0xF8C8765E EQ PUSH2 0x405 JUMPI PUSH2 0x129 JUMP JUMPDEST DUP1 PUSH4 0x8B4C40B0 EQ PUSH2 0x2AB JUMPI DUP1 PUSH4 0x90A40A76 EQ PUSH2 0x2B5 JUMPI DUP1 PUSH4 0x91C49BF8 EQ PUSH2 0x2DD JUMPI DUP1 PUSH4 0x9A2AC6D5 EQ PUSH2 0x307 JUMPI DUP1 PUSH4 0xA396A59C EQ PUSH2 0x323 JUMPI PUSH2 0x129 JUMP JUMPDEST DUP1 PUSH4 0x58A997F6 GT PUSH2 0xF1 JUMPI DUP1 PUSH4 0x58A997F6 EQ PUSH2 0x1ED JUMPI DUP1 PUSH4 0x5BBBB7ED EQ PUSH2 0x215 JUMPI DUP1 PUSH4 0x6CEBDC45 EQ PUSH2 0x23F JUMPI DUP1 PUSH4 0x838B2520 EQ PUSH2 0x267 JUMPI DUP1 PUSH4 0x84E930F0 EQ PUSH2 0x28F JUMPI PUSH2 0x129 JUMP JUMPDEST DUP1 PUSH4 0x546AAA9 EQ PUSH2 0x12D JUMPI DUP1 PUSH4 0x1532EC34 EQ PUSH2 0x155 JUMPI DUP1 PUSH4 0x153928F4 EQ PUSH2 0x17D JUMPI DUP1 PUSH4 0x200997B3 EQ PUSH2 0x1A7 JUMPI DUP1 PUSH4 0x3CB747BF EQ PUSH2 0x1C3 JUMPI JUMPDEST PUSH0 DUP1 REVERT JUMPDEST CALLVALUE DUP1 ISZERO PUSH2 0x138 JUMPI PUSH0 DUP1 REVERT JUMPDEST POP PUSH2 0x153 PUSH1 0x4 DUP1 CALLDATASIZE SUB DUP2 ADD SWAP1 PUSH2 0x14E SWAP2 SWAP1 PUSH2 0x27C9 JUMP JUMPDEST PUSH2 0x42D JUMP JUMPDEST STOP JUMPDEST CALLVALUE DUP1 ISZERO PUSH2 0x160 JUMPI PUSH0 DUP1 REVERT JUMPDEST POP PUSH2 0x17B PUSH1 0x4 DUP1 CALLDATASIZE SUB DUP2 ADD SWAP1 PUSH2 0x176 SWAP2 SWAP1 PUSH2 0x285F JUMP JUMPDEST PUSH2 0x710 JUMP JUMPDEST STOP JUMPDEST CALLVALUE DUP1 ISZERO PUSH2 0x188 JUMPI PUSH0 DUP1 REVERT JUMPDEST POP PUSH2 0x191 PUSH2 0x9F4 JUMP JUMPDEST PUSH1 0x40 MLOAD PUSH2 0x19E SWAP2 SWAP1 PUSH2 0x28F2 JUMP JUMPDEST PUSH1 0x40 MLOAD DUP1 SWAP2 SUB SWAP1 RETURN JUMPDEST PUSH2 0x1C1 PUSH1 0x4 DUP1 CALLDATASIZE SUB DUP2 ADD SWAP1 PUSH2 0x1BC SWAP2 SWAP1 PUSH2 0x2944 JUMP JUMPDEST PUSH2 0xA19 JUMP JUMPDEST STOP JUMPDEST CALLVALUE DUP1 ISZERO PUSH2 0x1CE JUMPI PUSH0 DUP1 REVERT JUMPDEST POP PUSH2 0x1D7 PUSH2 0xA80 JUMP JUMPDEST PUSH1 0x40 MLOAD PUSH2 0x1E4 SWAP2 SWAP1 PUSH2 0x28F2 JUMP JUMPDEST PUSH1 0x40 MLOAD DUP1 SWAP2 SUB SWAP1 RETURN JUMPDEST CALLVALUE DUP1 ISZERO PUSH2 0x1F8 JUMPI PUSH0 DUP1 REVERT JUMPDEST POP PUSH2 0x213 PUSH1 0x4 DUP1 CALLDATASIZE SUB DUP2 ADD SWAP1 PUSH2 0x20E SWAP2 SWAP1 PUSH2 0x29C8 JUMP JUMPDEST PUSH2 0xAA3 JUMP JUMPDEST STOP JUMPDEST CALLVALUE DUP1 ISZERO PUSH2 0x220 JUMPI PUSH0 DUP1 REVERT JUMPDEST POP PUSH2 0x229 PUSH2 0xB17 JUMP JUMPDEST PUSH1 0x40 MLOAD PUSH2 0x236 SWAP2 SWAP1 PUSH2 0x2A6D JUMP JUMPDEST PUSH1 0x40 MLOAD DUP1 SWAP2 SUB SWAP1 RETURN JUMPDEST CALLVALUE DUP1 ISZERO PUSH2 0x24A JUMPI PUSH0 DUP1 REVERT JUMPDEST POP PUSH2 0x265 PUSH1 0x4 DUP1 CALLDATASIZE SUB DUP2 ADD SWAP1 PUSH2 0x260 SWAP2 SWAP1 PUSH2 0x2A86 JUMP JUMPDEST PUSH2 0xB1D JUMP JUMPDEST STOP JUMPDEST CALLVALUE DUP1 ISZERO PUSH2 0x272 JUMPI PUSH0 DUP1 REVERT JUMPDEST POP PUSH2 0x28D PUSH1 0x4 DUP1 CALLDATASIZE SUB DUP2 ADD SWAP1 PUSH2 0x288 SWAP2 SWAP1 PUSH2 0x2B43 JUMP JUMPDEST PUSH2 0xCB0 JUMP JUMPDEST STOP JUMPDEST PUSH2 0x2A9 PUSH1 0x4 DUP1 CALLDATASIZE SUB DUP2 ADD SWAP1 PUSH2 0x2A4 SWAP2 SWAP1 PUSH2 0x2BED JUMP JUMPDEST PUSH2 0xCDC JUMP JUMPDEST STOP JUMPDEST PUSH2 0x2B3 PUSH2 0xD8B JUMP JUMPDEST STOP JUMPDEST CALLVALUE DUP1 ISZERO PUSH2 0x2C0 JUMPI PUSH0 DUP1 REVERT JUMPDEST POP PUSH2 0x2DB PUSH1 0x4 DUP1 CALLDATASIZE SUB DUP2 ADD SWAP1 PUSH2 0x2D6 SWAP2 SWAP1 PUSH2 0x27C9 JUMP JUMPDEST PUSH2 0xD9D JUMP JUMPDEST STOP JUMPDEST CALLVALUE DUP1 ISZERO PUSH2 0x2E8 JUMPI PUSH0 DUP1 REVERT JUMPDEST POP PUSH2 0x2F1 PUSH2 0xF63 JUMP JUMPDEST PUSH1 0x40 MLOAD PUSH2 0x2FE SWAP2 SWAP1 PUSH2 0x28F2 JUMP JUMPDEST PUSH1 0x40 MLOAD DUP1 SWAP2 SUB SWAP1 RETURN JUMPDEST PUSH2 0x321 PUSH1 0x4 DUP1 CALLDATASIZE SUB DUP2 ADD SWAP1 PUSH2 0x31C SWAP2 SWAP1 PUSH2 0x2C5E JUMP JUMPDEST PUSH2 0xF88 JUMP JUMPDEST STOP JUMPDEST PUSH2 0x33D PUSH1 0x4 DUP1 CALLDATASIZE SUB DUP2 ADD SWAP1 PUSH2 0x338 SWAP2 SWAP1 PUSH2 0x2CCF JUMP JUMPDEST PUSH2 0xFED JUMP JUMPDEST STOP JUMPDEST CALLVALUE DUP1 ISZERO PUSH2 0x34A JUMPI PUSH0 DUP1 REVERT JUMPDEST POP PUSH2 0x365 PUSH1 0x4 DUP1 CALLDATASIZE SUB DUP2 ADD SWAP1 PUSH2 0x360 SWAP2 SWAP1 PUSH2 0x2D79 JUMP JUMPDEST PUSH2 0x1060 JUMP JUMPDEST STOP JUMPDEST PUSH2 0x381 PUSH1 0x4 DUP1 CALLDATASIZE SUB DUP2 ADD SWAP1 PUSH2 0x37C SWAP2 SWAP1 PUSH2 0x2E23 JUMP JUMPDEST PUSH2 0x11F4 JUMP JUMPDEST STOP JUMPDEST CALLVALUE DUP1 ISZERO PUSH2 0x38E JUMPI PUSH0 DUP1 REVERT JUMPDEST POP PUSH2 0x397 PUSH2 0x12A1 JUMP JUMPDEST PUSH1 0x40 MLOAD PUSH2 0x3A4 SWAP2 SWAP1 PUSH2 0x28F2 JUMP JUMPDEST PUSH1 0x40 MLOAD DUP1 SWAP2 SUB SWAP1 RETURN JUMPDEST PUSH2 0x3C7 PUSH1 0x4 DUP1 CALLDATASIZE SUB DUP2 ADD SWAP1 PUSH2 0x3C2 SWAP2 SWAP1 PUSH2 0x2E80 JUMP JUMPDEST PUSH2 0x12C6 JUMP JUMPDEST STOP JUMPDEST CALLVALUE DUP1 ISZERO PUSH2 0x3D4 JUMPI PUSH0 DUP1 REVERT JUMPDEST POP PUSH2 0x3EF PUSH1 0x4 DUP1 CALLDATASIZE SUB DUP2 ADD SWAP1 PUSH2 0x3EA SWAP2 SWAP1 PUSH2 0x2F3D JUMP JUMPDEST PUSH2 0x12F1 JUMP JUMPDEST PUSH1 0x40 MLOAD PUSH2 0x3FC SWAP2 SWAP1 PUSH2 0x2A6D JUMP JUMPDEST PUSH1 0x40 MLOAD DUP1 SWAP2 SUB SWAP1 RETURN JUMPDEST CALLVALUE DUP1 ISZERO PUSH2 0x410 JUMPI PUSH0 DUP1 REVERT JUMPDEST POP PUSH2 0x42B PUSH1 0x4 DUP1 CALLDATASIZE SUB DUP2 ADD SWAP1 PUSH2 0x426 SWAP2 SWAP1 PUSH2 0x2F8D JUMP JUMPDEST PUSH2 0x131C JUMP JUMPDEST STOP JUMPDEST PUSH1 0x2 PUSH0 SWAP1 SLOAD SWAP1 PUSH2 0x100 EXP SWAP1 DIV PUSH20 0xFFFFFFFFFFFFFFFFFFFFFFFFFFFFFFFFFFFFFFFF AND PUSH2 0x457 PUSH2 0x14AE JUMP JUMPDEST PUSH20 0xFFFFFFFFFFFFFFFFFFFFFFFFFFFFFFFFFFFFFFFF AND CALLER PUSH20 0xFFFFFFFFFFFFFFFFFFFFFFFFFFFFFFFFFFFFFFFF AND EQ PUSH2 0x4C4 JUMPI PUSH1 0x40 MLOAD PUSH32 0x8C379A000000000000000000000000000000000000000000000000000000000 DUP2 MSTORE PUSH1 0x4 ADD PUSH2 0x4BB SWAP1 PUSH2 0x3071 JUMP JUMPDEST PUSH1 0x40 MLOAD DUP1 SWAP2 SUB SWAP1 REVERT JUMPDEST DUP1 PUSH20 0xFFFFFFFFFFFFFFFFFFFFFFFFFFFFFFFFFFFFFFFF AND PUSH2 0x4E3 PUSH2 0x14AE JUMP JUMPDEST PUSH20 0xFFFFFFFFFFFFFFFFFFFFFFFFFFFFFFFFFFFFFFFF AND PUSH4 0x6E296E45 PUSH1 0x40 MLOAD DUP2 PUSH4 0xFFFFFFFF AND PUSH1 0xE0 SHL DUP2 MSTORE PUSH1 0x4 ADD PUSH1 0x20 PUSH1 0x40 MLOAD DUP1 DUP4 SUB DUP2 DUP7 GAS STATICCALL ISZERO DUP1 ISZERO PUSH2 0x52B JUMPI RETURNDATASIZE PUSH0 DUP1 RETURNDATACOPY RETURNDATASIZE PUSH0 REVERT JUMPDEST POP POP POP POP PUSH1 0x40 MLOAD RETURNDATASIZE PUSH1 0x1F NOT PUSH1 0x1F DUP3 ADD AND DUP3 ADD DUP1 PUSH1 0x40 MSTORE POP DUP2 ADD SWAP1 PUSH2 0x54F SWAP2 SWAP1 PUSH2 0x30A3 JUMP JUMPDEST PUSH20 0xFFFFFFFFFFFFFFFFFFFFFFFFFFFFFFFFFFFFFFFF AND EQ PUSH2 0x5A5 JUMPI PUSH1 0x40 MLOAD PUSH32 0x8C379A000000000000000000000000000000000000000000000000000000000 DUP2 MSTORE PUSH1 0x4 ADD PUSH2 0x59C SWAP1 PUSH2 0x313E JUMP JUMPDEST PUSH1 0x40 MLOAD DUP1 SWAP2 SUB SWAP1 REVERT JUMPDEST PUSH0 DUP6 PUSH20 0xFFFFFFFFFFFFFFFFFFFFFFFFFFFFFFFFFFFFFFFF AND DUP6 PUSH0 PUSH8 0xFFFFFFFFFFFFFFFF DUP2 GT ISZERO PUSH2 0x5D8 JUMPI PUSH2 0x5D7 PUSH2 0x315C JUMP JUMPDEST JUMPDEST PUSH1 0x40 MLOAD SWAP1 DUP1 DUP3 MSTORE DUP1 PUSH1 0x1F ADD PUSH1 0x1F NOT AND PUSH1 0x20 ADD DUP3 ADD PUSH1 0x40 MSTORE DUP1 ISZERO PUSH2 0x60A JUMPI DUP2 PUSH1 0x20 ADD PUSH1 0x1 DUP3 MUL DUP1 CALLDATASIZE DUP4 CALLDATACOPY DUP1 DUP3 ADD SWAP2 POP POP SWAP1 POP JUMPDEST POP PUSH1 0x40 MLOAD PUSH2 0x618 SWAP2 SWAP1 PUSH2 0x31DB JUMP JUMPDEST PUSH0 PUSH1 0x40 MLOAD DUP1 DUP4 SUB DUP2 DUP6 DUP8 GAS CALL SWAP3 POP POP POP RETURNDATASIZE DUP1 PUSH0 DUP2 EQ PUSH2 0x652 JUMPI PUSH1 0x40 MLOAD SWAP2 POP PUSH1 0x1F NOT PUSH1 0x3F RETURNDATASIZE ADD AND DUP3 ADD PUSH1 0x40 MSTORE RETURNDATASIZE DUP3 MSTORE RETURNDATASIZE PUSH0 PUSH1 0x20 DUP5 ADD RETURNDATACOPY PUSH2 0x657 JUMP JUMPDEST PUSH1 0x60 SWAP2 POP JUMPDEST POP POP SWAP1 POP DUP1 PUSH2 0x69B JUMPI PUSH1 0x40 MLOAD PUSH32 0x8C379A000000000000000000000000000000000000000000000000000000000 DUP2 MSTORE PUSH1 0x4 ADD PUSH2 0x692 SWAP1 PUSH2 0x3261 JUMP JUMPDEST PUSH1 0x40 MLOAD DUP1 SWAP2 SUB SWAP1 REVERT JUMPDEST DUP6 PUSH20 0xFFFFFFFFFFFFFFFFFFFFFFFFFFFFFFFFFFFFFFFF AND DUP8 PUSH20 0xFFFFFFFFFFFFFFFFFFFFFFFFFFFFFFFFFFFFFFFF AND PUSH32 0x727233B1AB656A027266FDC255D394B9AA8A2DB3B7FF0FD6150DC3A8686F30CB DUP8 DUP8 DUP8 DUP14 PUSH1 0x40 MLOAD PUSH2 0x6FE SWAP5 SWAP4 SWAP3 SWAP2 SWAP1 PUSH2 0x32D9 JUMP JUMPDEST PUSH1 0x40 MLOAD DUP1 SWAP2 SUB SWAP1 LOG3 POP POP POP POP POP POP POP POP JUMP JUMPDEST PUSH1 0x2 PUSH0 SWAP1 SLOAD SWAP1 PUSH2 0x100 EXP SWAP1 DIV PUSH20 0xFFFFFFFFFFFFFFFFFFFFFFFFFFFFFFFFFFFFFFFF AND PUSH2 0x73A PUSH2 0x14AE JUMP JUMPDEST PUSH20 0xFFFFFFFFFFFFFFFFFFFFFFFFFFFFFFFFFFFFFFFF AND CALLER PUSH20 0xFFFFFFFFFFFFFFFFFFFFFFFFFFFFFFFFFFFFFFFF AND EQ PUSH2 0x7A7 JUMPI PUSH1 0x40 MLOAD PUSH32 0x8C379A000000000000000000000000000000000000000000000000000000000 DUP2 MSTORE PUSH1 0x4 ADD PUSH2 0x79E SWAP1 PUSH2 0x3071 JUMP JUMPDEST PUSH1 0x40 MLOAD DUP1 SWAP2 SUB SWAP1 REVERT JUMPDEST DUP1 PUSH20 0xFFFFFFFFFFFFFFFFFFFFFFFFFFFFFFFFFFFFFFFF AND PUSH2 0x7C6 PUSH2 0x14AE JUMP JUMPDEST PUSH20 0xFFFFFFFFFFFFFFFFFFFFFFFFFFFFFFFFFFFFFFFF AND PUSH4 0x6E296E45 PUSH1 0x40 MLOAD DUP2 PUSH4 0xFFFFFFFF AND PUSH1 0xE0 SHL DUP2 MSTORE PUSH1 0x4 ADD PUSH1 0x20 PUSH1 0x40 MLOAD DUP1 DUP4 SUB DUP2 DUP7 GAS STATICCALL ISZERO DUP1 ISZERO PUSH2 0x80E JUMPI RETURNDATASIZE PUSH0 DUP1 RETURNDATACOPY RETURNDATASIZE PUSH0 REVERT JUMPDEST POP POP POP POP PUSH1 0x40 MLOAD RETURNDATASIZE PUSH1 0x1F NOT PUSH1 0x1F DUP3 ADD AND DUP3 ADD DUP1 PUSH1 0x40 MSTORE POP DUP2 ADD SWAP1 PUSH2 0x832 SWAP2 SWAP1 PUSH2 0x30A3 JUMP JUMPDEST PUSH20 0xFFFFFFFFFFFFFFFFFFFFFFFFFFFFFFFFFFFFFFFF AND EQ PUSH2 0x888 JUMPI PUSH1 0x40 MLOAD PUSH32 0x8C379A000000000000000000000000000000000000000000000000000000000 DUP2 MSTORE PUSH1 0x4 ADD PUSH2 0x87F SWAP1 PUSH2 0x313E JUMP JUMPDEST PUSH1 0x40 MLOAD DUP1 SWAP2 SUB SWAP1 REVERT JUMPDEST PUSH0 DUP6 PUSH20 0xFFFFFFFFFFFFFFFFFFFFFFFFFFFFFFFFFFFFFFFF AND DUP6 PUSH0 PUSH8 0xFFFFFFFFFFFFFFFF DUP2 GT ISZERO PUSH2 0x8BB JUMPI PUSH2 0x8BA PUSH2 0x315C JUMP JUMPDEST JUMPDEST PUSH1 0x40 MLOAD SWAP1 DUP1 DUP3 MSTORE DUP1 PUSH1 0x1F ADD PUSH1 0x1F NOT AND PUSH1 0x20 ADD DUP3 ADD PUSH1 0x40 MSTORE DUP1 ISZERO PUSH2 0x8ED JUMPI DUP2 PUSH1 0x20 ADD PUSH1 0x1 DUP3 MUL DUP1 CALLDATASIZE DUP4 CALLDATACOPY DUP1 DUP3 ADD SWAP2 POP POP SWAP1 POP JUMPDEST POP PUSH1 0x40 MLOAD PUSH2 0x8FB SWAP2 SWAP1 PUSH2 0x31DB JUMP JUMPDEST PUSH0 PUSH1 0x40 MLOAD DUP1 DUP4 SUB DUP2 DUP6 DUP8 GAS CALL SWAP3 POP POP POP RETURNDATASIZE DUP1 PUSH0 DUP2 EQ PUSH2 0x935 JUMPI PUSH1 0x40 MLOAD SWAP2 POP PUSH1 0x1F NOT PUSH1 0x3F RETURNDATASIZE ADD AND DUP3 ADD PUSH1 0x40 MSTORE RETURNDATASIZE DUP3 MSTORE RETURNDATASIZE PUSH0 PUSH1 0x20 DUP5 ADD RETURNDATACOPY PUSH2 0x93A JUMP JUMPDEST PUSH1 0x60 SWAP2 POP JUMPDEST POP POP SWAP1 POP DUP1 PUSH2 0x97E JUMPI PUSH1 0x40 MLOAD PUSH32 0x8C379A000000000000000000000000000000000000000000000000000000000 DUP2 MSTORE PUSH1 0x4 ADD PUSH2 0x975 SWAP1 PUSH2 0x3261 JUMP JUMPDEST PUSH1 0x40 MLOAD DUP1 SWAP2 SUB SWAP1 REVERT JUMPDEST DUP6 PUSH20 0xFFFFFFFFFFFFFFFFFFFFFFFFFFFFFFFFFFFFFFFF AND DUP8 PUSH20 0xFFFFFFFFFFFFFFFFFFFFFFFFFFFFFFFFFFFFFFFF AND PUSH32 0x727233B1AB656A027266FDC255D394B9AA8A2DB3B7FF0FD6150DC3A8686F30CB DUP8 DUP8 DUP8 PUSH2 0x440 PUSH1 0x40 MLOAD PUSH2 0x9E3 SWAP5 SWAP4 SWAP3 SWAP2 SWAP1 PUSH2 0x32D9 JUMP JUMPDEST PUSH1 0x40 MLOAD DUP1 SWAP2 SUB SWAP1 LOG3 POP POP POP POP POP POP POP JUMP JUMPDEST PUSH1 0x4 PUSH0 SWAP1 SLOAD SWAP1 PUSH2 0x100 EXP SWAP1 DIV PUSH20 0xFFFFFFFFFFFFFFFFFFFFFFFFFFFFFFFFFFFFFFFF AND DUP2 JUMP JUMPDEST PUSH2 0xA21 PUSH2 0x14D5 JUMP JUMPDEST PUSH2 0xA71 DUP6 CALLER DUP7 DUP7 DUP7 DUP7 DUP1 DUP1 PUSH1 0x1F ADD PUSH1 0x20 DUP1 SWAP2 DIV MUL PUSH1 0x20 ADD PUSH1 0x40 MLOAD SWAP1 DUP2 ADD PUSH1 0x40 MSTORE DUP1 SWAP4 SWAP3 SWAP2 SWAP1 DUP2 DUP2 MSTORE PUSH1 0x20 ADD DUP4 DUP4 DUP1 DUP3 DUP5 CALLDATACOPY PUSH0 DUP2 DUP5 ADD MSTORE PUSH1 0x1F NOT PUSH1 0x1F DUP3 ADD AND SWAP1 POP DUP1 DUP4 ADD SWAP3 POP POP POP POP POP POP POP PUSH2 0x1524 JUMP JUMPDEST PUSH2 0xA79 PUSH2 0x1889 JUMP JUMPDEST POP POP POP POP POP JUMP JUMPDEST PUSH0 DUP1 SLOAD SWAP1 PUSH2 0x100 EXP SWAP1 DIV PUSH20 0xFFFFFFFFFFFFFFFFFFFFFFFFFFFFFFFFFFFFFFFF AND DUP2 JUMP JUMPDEST PUSH2 0xAAC CALLER PUSH2 0x1892 JUMP JUMPDEST ISZERO PUSH2 0xAEC JUMPI PUSH1 0x40 MLOAD PUSH32 0x8C379A000000000000000000000000000000000000000000000000000000000 DUP2 MSTORE PUSH1 0x4 ADD PUSH2 0xAE3 SWAP1 PUSH2 0x3361 JUMP JUMPDEST PUSH1 0x40 MLOAD DUP1 SWAP2 SUB SWAP1 REVERT JUMPDEST PUSH2 0xAF4 PUSH2 0x14D5 JUMP JUMPDEST PUSH2 0xB07 PUSH2 0x440 DUP8 DUP8 CALLER CALLER DUP10 DUP10 DUP10 DUP10 PUSH2 0x18A3 JUMP JUMPDEST PUSH2 0xB0F PUSH2 0x1889 JUMP JUMPDEST POP POP POP POP POP POP JUMP JUMPDEST PUSH2 0x440 DUP2 JUMP JUMPDEST PUSH1 0x2 PUSH0 SWAP1 SLOAD SWAP1 PUSH2 0x100 EXP SWAP1 DIV PUSH20 0xFFFFFFFFFFFFFFFFFFFFFFFFFFFFFFFFFFFFFFFF AND PUSH2 0xB47 PUSH2 0x14AE JUMP JUMPDEST PUSH20 0xFFFFFFFFFFFFFFFFFFFFFFFFFFFFFFFFFFFFFFFF AND CALLER PUSH20 0xFFFFFFFFFFFFFFFFFFFFFFFFFFFFFFFFFFFFFFFF AND EQ PUSH2 0xBB4 JUMPI PUSH1 0x40 MLOAD PUSH32 0x8C379A000000000000000000000000000000000000000000000000000000000 DUP2 MSTORE PUSH1 0x4 ADD PUSH2 0xBAB SWAP1 PUSH2 0x3071 JUMP JUMPDEST PUSH1 0x40 MLOAD DUP1 SWAP2 SUB SWAP1 REVERT JUMPDEST DUP1 PUSH20 0xFFFFFFFFFFFFFFFFFFFFFFFFFFFFFFFFFFFFFFFF AND PUSH2 0xBD3 PUSH2 0x14AE JUMP JUMPDEST PUSH20 0xFFFFFFFFFFFFFFFFFFFFFFFFFFFFFFFFFFFFFFFF AND PUSH4 0x6E296E45 PUSH1 0x40 MLOAD DUP2 PUSH4 0xFFFFFFFF AND PUSH1 0xE0 SHL DUP2 MSTORE PUSH1 0x4 ADD PUSH1 0x20 PUSH1 0x40 MLOAD DUP1 DUP4 SUB DUP2 DUP7 GAS STATICCALL ISZERO DUP1 ISZERO PUSH2 0xC1B JUMPI RETURNDATASIZE PUSH0 DUP1 RETURNDATACOPY RETURNDATASIZE PUSH0 REVERT JUMPDEST POP POP POP POP PUSH1 0x40 MLOAD RETURNDATASIZE PUSH1 0x1F NOT PUSH1 0x1F DUP3 ADD AND DUP3 ADD DUP1 PUSH1 0x40 MSTORE POP DUP2 ADD SWAP1 PUSH2 0xC3F SWAP2 SWAP1 PUSH2 0x30A3 JUMP JUMPDEST PUSH20 0xFFFFFFFFFFFFFFFFFFFFFFFFFFFFFFFFFFFFFFFF AND EQ PUSH2 0xC95 JUMPI PUSH1 0x40 MLOAD PUSH32 0x8C379A000000000000000000000000000000000000000000000000000000000 DUP2 MSTORE PUSH1 0x4 ADD PUSH2 0xC8C SWAP1 PUSH2 0x313E JUMP JUMPDEST PUSH1 0x40 MLOAD DUP1 SWAP2 SUB SWAP1 REVERT JUMPDEST PUSH2 0xCA5 DUP10 DUP10 DUP10 DUP10 DUP10 DUP10 DUP10 DUP10 PUSH2 0x1F63 JUMP JUMPDEST POP POP POP POP POP POP POP POP POP JUMP JUMPDEST PUSH2 0xCB8 PUSH2 0x14D5 JUMP JUMPDEST PUSH2 0xCCB PUSH2 0x440 DUP9 DUP9 CALLER DUP10 DUP10 DUP10 DUP10 DUP10 PUSH2 0x18A3 JUMP JUMPDEST PUSH2 0xCD3 PUSH2 0x1889 JUMP JUMPDEST POP POP POP POP POP POP POP JUMP JUMPDEST PUSH2 0xCE5 CALLER PUSH2 0x1892 JUMP JUMPDEST ISZERO PUSH2 0xD25 JUMPI PUSH1 0x40 MLOAD PUSH32 0x8C379A000000000000000000000000000000000000000000000000000000000 DUP2 MSTORE PUSH1 0x4 ADD PUSH2 0xD1C SWAP1 PUSH2 0x3361 JUMP JUMPDEST PUSH1 0x40 MLOAD DUP1 SWAP2 SUB SWAP1 REVERT JUMPDEST PUSH2 0xD2D PUSH2 0x14D5 JUMP JUMPDEST PUSH2 0xD7D DUP5 CALLER CALLER DUP7 DUP7 DUP7 DUP1 DUP1 PUSH1 0x1F ADD PUSH1 0x20 DUP1 SWAP2 DIV MUL PUSH1 0x20 ADD PUSH1 0x40 MLOAD SWAP1 DUP2 ADD PUSH1 0x40 MSTORE DUP1 SWAP4 SWAP3 SWAP2 SWAP1 DUP2 DUP2 MSTORE PUSH1 0x20 ADD DUP4 DUP4 DUP1 DUP3 DUP5 CALLDATACOPY PUSH0 DUP2 DUP5 ADD MSTORE PUSH1 0x1F NOT PUSH1 0x1F DUP3 ADD AND SWAP1 POP DUP1 DUP4 ADD SWAP3 POP POP POP POP POP POP POP PUSH2 0x1524 JUMP JUMPDEST PUSH2 0xD85 PUSH2 0x1889 JUMP JUMPDEST POP POP POP POP JUMP JUMPDEST PUSH2 0xD93 PUSH2 0x14D5 JUMP JUMPDEST PUSH2 0xD9B PUSH2 0x1889 JUMP JUMPDEST JUMP JUMPDEST PUSH1 0x2 PUSH0 SWAP1 SLOAD SWAP1 PUSH2 0x100 EXP SWAP1 DIV PUSH20 0xFFFFFFFFFFFFFFFFFFFFFFFFFFFFFFFFFFFFFFFF AND PUSH2 0xDC7 PUSH2 0x14AE JUMP JUMPDEST PUSH20 0xFFFFFFFFFFFFFFFFFFFFFFFFFFFFFFFFFFFFFFFF AND CALLER PUSH20 0xFFFFFFFFFFFFFFFFFFFFFFFFFFFFFFFFFFFFFFFF AND EQ PUSH2 0xE34 JUMPI PUSH1 0x40 MLOAD PUSH32 0x8C379A000000000000000000000000000000000000000000000000000000000 DUP2 MSTORE PUSH1 0x4 ADD PUSH2 0xE2B SWAP1 PUSH2 0x3071 JUMP JUMPDEST PUSH1 0x40 MLOAD DUP1 SWAP2 SUB SWAP1 REVERT JUMPDEST DUP1 PUSH20 0xFFFFFFFFFFFFFFFFFFFFFFFFFFFFFFFFFFFFFFFF AND PUSH2 0xE53 PUSH2 0x14AE JUMP JUMPDEST PUSH20 0xFFFFFFFFFFFFFFFFFFFFFFFFFFFFFFFFFFFFFFFF AND PUSH4 0x6E296E45 PUSH1 0x40 MLOAD DUP2 PUSH4 0xFFFFFFFF AND PUSH1 0xE0 SHL DUP2 MSTORE PUSH1 0x4 ADD PUSH1 0x20 PUSH1 0x40 MLOAD DUP1 DUP4 SUB DUP2 DUP7 GAS STATICCALL ISZERO DUP1 ISZERO PUSH2 0xE9B JUMPI RETURNDATASIZE PUSH0 DUP1 RETURNDATACOPY RETURNDATASIZE PUSH0 REVERT JUMPDEST POP POP POP POP PUSH1 0x40 MLOAD RETURNDATASIZE PUSH1 0x1F NOT PUSH1 0x1F DUP3 ADD AND DUP3 ADD DUP1 PUSH1 0x40 MSTORE POP DUP2 ADD SWAP1 PUSH2 0xEBF SWAP2 SWAP1 PUSH2 0x30A3 JUMP JUMPDEST PUSH20 0xFFFFFFFFFFFFFFFFFFFFFFFFFFFFFFFFFFFFFFFF AND EQ PUSH2 0xF15 JUMPI PUSH1 0x40 MLOAD PUSH32 0x8C379A000000000000000000000000000000000000000000000000000000000 DUP2 MSTORE PUSH1 0x4 ADD PUSH2 0xF0C SWAP1 PUSH2 0x313E JUMP JUMPDEST PUSH1 0x40 MLOAD DUP1 SWAP2 SUB SWAP1 REVERT JUMPDEST PUSH2 0xF5A DUP8 PUSH1 0x3 PUSH0 SWAP1 SLOAD SWAP1 PUSH2 0x100 EXP SWAP1 DIV PUSH20 0xFFFFFFFFFFFFFFFFFFFFFFFFFFFFFFFFFFFFFFFF AND PUSH20 0xDEADDEADDEADDEADDEADDEADDEADDEADDEAD0000 DUP10 DUP10 DUP10 DUP10 DUP10 PUSH2 0x1F63 JUMP JUMPDEST POP POP POP POP POP POP POP JUMP JUMPDEST PUSH1 0x2 PUSH0 SWAP1 SLOAD SWAP1 PUSH2 0x100 EXP SWAP1 DIV PUSH20 0xFFFFFFFFFFFFFFFFFFFFFFFFFFFFFFFFFFFFFFFF AND DUP2 JUMP JUMPDEST PUSH2 0xF90 PUSH2 0x14D5 JUMP JUMPDEST PUSH2 0xFDF CALLER DUP6 DUP6 DUP6 DUP6 DUP1 DUP1 PUSH1 0x1F ADD PUSH1 0x20 DUP1 SWAP2 DIV MUL PUSH1 0x20 ADD PUSH1 0x40 MLOAD SWAP1 DUP2 ADD PUSH1 0x40 MSTORE DUP1 SWAP4 SWAP3 SWAP2 SWAP1 DUP2 DUP2 MSTORE PUSH1 0x20 ADD DUP4 DUP4 DUP1 DUP3 DUP5 CALLDATACOPY PUSH0 DUP2 DUP5 ADD MSTORE PUSH1 0x1F NOT PUSH1 0x1F DUP3 ADD AND SWAP1 POP DUP1 DUP4 ADD SWAP3 POP POP POP POP POP POP POP PUSH2 0x216F JUMP JUMPDEST PUSH2 0xFE7 PUSH2 0x1889 JUMP JUMPDEST POP POP POP POP JUMP JUMPDEST PUSH2 0xFF6 CALLER PUSH2 0x1892 JUMP JUMPDEST ISZERO PUSH2 0x1036 JUMPI PUSH1 0x40 MLOAD PUSH32 0x8C379A000000000000000000000000000000000000000000000000000000000 DUP2 MSTORE PUSH1 0x4 ADD PUSH2 0x102D SWAP1 PUSH2 0x3361 JUMP JUMPDEST PUSH1 0x40 MLOAD DUP1 SWAP2 SUB SWAP1 REVERT JUMPDEST PUSH2 0x103E PUSH2 0x14D5 JUMP JUMPDEST PUSH2 0x104F DUP8 DUP8 DUP8 CALLER CALLER DUP10 DUP10 DUP10 DUP10 PUSH2 0x18A3 JUMP JUMPDEST PUSH2 0x1057 PUSH2 0x1889 JUMP JUMPDEST POP POP POP POP POP POP POP JUMP JUMPDEST PUSH1 0x2 PUSH0 SWAP1 SLOAD SWAP1 PUSH2 0x100 EXP SWAP1 DIV PUSH20 0xFFFFFFFFFFFFFFFFFFFFFFFFFFFFFFFFFFFFFFFF AND PUSH2 0x108A PUSH2 0x14AE JUMP JUMPDEST PUSH20 0xFFFFFFFFFFFFFFFFFFFFFFFFFFFFFFFFFFFFFFFF AND CALLER PUSH20 0xFFFFFFFFFFFFFFFFFFFFFFFFFFFFFFFFFFFFFFFF AND EQ PUSH2 0x10F7 JUMPI PUSH1 0x40 MLOAD PUSH32 0x8C379A000000000000000000000000000000000000000000000000000000000 DUP2 MSTORE PUSH1 0x4 ADD PUSH2 0x10EE SWAP1 PUSH2 0x3071 JUMP JUMPDEST PUSH1 0x40 MLOAD DUP1 SWAP2 SUB SWAP1 REVERT JUMPDEST DUP1 PUSH20 0xFFFFFFFFFFFFFFFFFFFFFFFFFFFFFFFFFFFFFFFF AND PUSH2 0x1116 PUSH2 0x14AE JUMP JUMPDEST PUSH20 0xFFFFFFFFFFFFFFFFFFFFFFFFFFFFFFFFFFFFFFFF AND PUSH4 0x6E296E45 PUSH1 0x40 MLOAD DUP2 PUSH4 0xFFFFFFFF AND PUSH1 0xE0 SHL DUP2 MSTORE PUSH1 0x4 ADD PUSH1 0x20 PUSH1 0x40 MLOAD DUP1 DUP4 SUB DUP2 DUP7 GAS STATICCALL ISZERO DUP1 ISZERO PUSH2 0x115E JUMPI RETURNDATASIZE PUSH0 DUP1 RETURNDATACOPY RETURNDATASIZE PUSH0 REVERT JUMPDEST POP POP POP POP PUSH1 0x40 MLOAD RETURNDATASIZE PUSH1 0x1F NOT PUSH1 0x1F DUP3 ADD AND DUP3 ADD DUP1 PUSH1 0x40 MSTORE POP DUP2 ADD SWAP1 PUSH2 0x1182 SWAP2 SWAP1 PUSH2 0x30A3 JUMP JUMPDEST PUSH20 0xFFFFFFFFFFFFFFFFFFFFFFFFFFFFFFFFFFFFFFFF AND EQ PUSH2 0x11D8 JUMPI PUSH1 0x40 MLOAD PUSH32 0x8C379A000000000000000000000000000000000000000000000000000000000 DUP2 MSTORE PUSH1 0x4 ADD PUSH2 0x11CF SWAP1 PUSH2 0x313E JUMP JUMPDEST PUSH1 0x40 MLOAD DUP1 SWAP2 SUB SWAP1 REVERT JUMPDEST PUSH2 0x11EA PUSH2 0x440 DUP10 DUP10 DUP10 DUP10 DUP10 DUP10 DUP10 PUSH2 0x1F63 JUMP JUMPDEST POP POP POP POP POP POP POP POP JUMP JUMPDEST PUSH2 0x11FD CALLER PUSH2 0x1892 JUMP JUMPDEST ISZERO PUSH2 0x123D JUMPI PUSH1 0x40 MLOAD PUSH32 0x8C379A000000000000000000000000000000000000000000000000000000000 DUP2 MSTORE PUSH1 0x4 ADD PUSH2 0x1234 SWAP1 PUSH2 0x3361 JUMP JUMPDEST PUSH1 0x40 MLOAD DUP1 SWAP2 SUB SWAP1 REVERT JUMPDEST PUSH2 0x1245 PUSH2 0x14D5 JUMP JUMPDEST PUSH2 0x1294 CALLER CALLER DUP6 DUP6 DUP6 DUP1 DUP1 PUSH1 0x1F ADD PUSH1 0x20 DUP1 SWAP2 DIV MUL PUSH1 0x20 ADD PUSH1 0x40 MLOAD SWAP1 DUP2 ADD PUSH1 0x40 MSTORE DUP1 SWAP4 SWAP3 SWAP2 SWAP1 DUP2 DUP2 MSTORE PUSH1 0x20 ADD DUP4 DUP4 DUP1 DUP3 DUP5 CALLDATACOPY PUSH0 DUP2 DUP5 ADD MSTORE PUSH1 0x1F NOT PUSH1 0x1F DUP3 ADD AND SWAP1 POP DUP1 DUP4 ADD SWAP3 POP POP POP POP POP POP POP PUSH2 0x216F JUMP JUMPDEST PUSH2 0x129C PUSH2 0x1889 JUMP JUMPDEST POP POP POP JUMP JUMPDEST PUSH1 0x3 PUSH0 SWAP1 SLOAD SWAP1 PUSH2 0x100 EXP SWAP1 DIV PUSH20 0xFFFFFFFFFFFFFFFFFFFFFFFFFFFFFFFFFFFFFFFF AND DUP2 JUMP JUMPDEST PUSH2 0x12CE PUSH2 0x14D5 JUMP JUMPDEST PUSH2 0x12DF DUP9 DUP9 DUP9 CALLER DUP10 DUP10 DUP10 DUP10 DUP10 PUSH2 0x18A3 JUMP JUMPDEST PUSH2 0x12E7 PUSH2 0x1889 JUMP JUMPDEST POP POP POP POP POP POP POP POP JUMP JUMPDEST PUSH1 0x5 PUSH1 0x20 MSTORE DUP3 PUSH0 MSTORE PUSH1 0x40 PUSH0 KECCAK256 PUSH1 0x20 MSTORE DUP2 PUSH0 MSTORE PUSH1 0x40 PUSH0 KECCAK256 PUSH1 0x20 MSTORE DUP1 PUSH0 MSTORE PUSH1 0x40 PUSH0 KECCAK256 PUSH0 SWAP3 POP SWAP3 POP POP POP SLOAD DUP2 JUMP JUMPDEST PUSH0 PUSH20 0xFFFFFFFFFFFFFFFFFFFFFFFFFFFFFFFFFFFFFFFF AND PUSH0 DUP1 SLOAD SWAP1 PUSH2 0x100 EXP SWAP1 DIV PUSH20 0xFFFFFFFFFFFFFFFFFFFFFFFFFFFFFFFFFFFFFFFF AND PUSH20 0xFFFFFFFFFFFFFFFFFFFFFFFFFFFFFFFFFFFFFFFF AND EQ PUSH2 0x13A9 JUMPI PUSH1 0x40 MLOAD PUSH32 0x8C379A000000000000000000000000000000000000000000000000000000000 DUP2 MSTORE PUSH1 0x4 ADD PUSH2 0x13A0 SWAP1 PUSH2 0x33EF JUMP JUMPDEST PUSH1 0x40 MLOAD DUP1 SWAP2 SUB SWAP1 REVERT JUMPDEST DUP4 PUSH0 DUP1 PUSH2 0x100 EXP DUP2 SLOAD DUP2 PUSH20 0xFFFFFFFFFFFFFFFFFFFFFFFFFFFFFFFFFFFFFFFF MUL NOT AND SWAP1 DUP4 PUSH20 0xFFFFFFFFFFFFFFFFFFFFFFFFFFFFFFFFFFFFFFFF AND MUL OR SWAP1 SSTORE POP DUP3 PUSH1 0x2 PUSH0 PUSH2 0x100 EXP DUP2 SLOAD DUP2 PUSH20 0xFFFFFFFFFFFFFFFFFFFFFFFFFFFFFFFFFFFFFFFF MUL NOT AND SWAP1 DUP4 PUSH20 0xFFFFFFFFFFFFFFFFFFFFFFFFFFFFFFFFFFFFFFFF AND MUL OR SWAP1 SSTORE POP DUP2 PUSH1 0x3 PUSH0 PUSH2 0x100 EXP DUP2 SLOAD DUP2 PUSH20 0xFFFFFFFFFFFFFFFFFFFFFFFFFFFFFFFFFFFFFFFF MUL NOT AND SWAP1 DUP4 PUSH20 0xFFFFFFFFFFFFFFFFFFFFFFFFFFFFFFFFFFFFFFFF AND MUL OR SWAP1 SSTORE POP DUP1 PUSH1 0x4 PUSH0 PUSH2 0x100 EXP DUP2 SLOAD DUP2 PUSH20 0xFFFFFFFFFFFFFFFFFFFFFFFFFFFFFFFFFFFFFFFF MUL NOT AND SWAP1 DUP4 PUSH20 0xFFFFFFFFFFFFFFFFFFFFFFFFFFFFFFFFFFFFFFFF AND MUL OR SWAP1 SSTORE POP POP POP POP POP JUMP JUMPDEST PUSH0 DUP1 PUSH0 SWAP1 SLOAD SWAP1 PUSH2 0x100 EXP SWAP1 DIV PUSH20 0xFFFFFFFFFFFFFFFFFFFFFFFFFFFFFFFFFFFFFFFF AND SWAP1 POP SWAP1 JUMP JUMPDEST PUSH1 0x2 PUSH1 0x1 SLOAD SUB PUSH2 0x151A JUMPI PUSH1 0x40 MLOAD PUSH32 0x8C379A000000000000000000000000000000000000000000000000000000000 DUP2 MSTORE PUSH1 0x4 ADD PUSH2 0x1511 SWAP1 PUSH2 0x3457 JUMP JUMPDEST PUSH1 0x40 MLOAD DUP1 SWAP2 SUB SWAP1 REVERT JUMPDEST PUSH1 0x2 PUSH1 0x1 DUP2 SWAP1 SSTORE POP JUMP JUMPDEST PUSH2 0x152C PUSH2 0x14D5 JUMP JUMPDEST PUSH0 PUSH1 0x4 PUSH0 SWAP1 SLOAD SWAP1 PUSH2 0x100 EXP SWAP1 DIV PUSH20 0xFFFFFFFFFFFFFFFFFFFFFFFFFFFFFFFFFFFFFFFF AND PUSH20 0xFFFFFFFFFFFFFFFFFFFFFFFFFFFFFFFFFFFFFFFF AND PUSH4 0xBF40FAC1 PUSH1 0x40 MLOAD DUP2 PUSH4 0xFFFFFFFF AND PUSH1 0xE0 SHL DUP2 MSTORE PUSH1 0x4 ADD PUSH2 0x1585 SWAP1 PUSH2 0x34BF JUMP JUMPDEST PUSH1 0x20 PUSH1 0x40 MLOAD DUP1 DUP4 SUB DUP2 DUP7 GAS STATICCALL ISZERO DUP1 ISZERO PUSH2 0x15A0 JUMPI RETURNDATASIZE PUSH0 DUP1 RETURNDATACOPY RETURNDATASIZE PUSH0 REVERT JUMPDEST POP POP POP POP PUSH1 0x40 MLOAD RETURNDATASIZE PUSH1 0x1F NOT PUSH1 0x1F DUP3 ADD AND DUP3 ADD DUP1 PUSH1 0x40 MSTORE POP DUP2 ADD SWAP1 PUSH2 0x15C4 SWAP2 SWAP1 PUSH2 0x30A3 JUMP JUMPDEST SWAP1 POP PUSH0 DUP2 PUSH20 0xFFFFFFFFFFFFFFFFFFFFFFFFFFFFFFFFFFFFFFFF AND PUSH4 0xBF53926E PUSH1 0x40 MLOAD DUP2 PUSH4 0xFFFFFFFF AND PUSH1 0xE0 SHL DUP2 MSTORE PUSH1 0x4 ADD PUSH1 0x20 PUSH1 0x40 MLOAD DUP1 DUP4 SUB DUP2 DUP7 GAS STATICCALL ISZERO DUP1 ISZERO PUSH2 0x1610 JUMPI RETURNDATASIZE PUSH0 DUP1 RETURNDATACOPY RETURNDATASIZE PUSH0 REVERT JUMPDEST POP POP POP POP PUSH1 0x40 MLOAD RETURNDATASIZE PUSH1 0x1F NOT PUSH1 0x1F DUP3 ADD AND DUP3 ADD DUP1 PUSH1 0x40 MSTORE POP DUP2 ADD SWAP1 PUSH2 0x1634 SWAP2 SWAP1 PUSH2 0x34F1 JUMP JUMPDEST SWAP1 POP DUP1 PUSH4 0xFFFFFFFF AND DUP5 PUSH4 0xFFFFFFFF AND LT ISZERO PUSH2 0x164E JUMPI DUP1 SWAP4 POP JUMPDEST PUSH0 DUP3 PUSH20 0xFFFFFFFFFFFFFFFFFFFFFFFFFFFFFFFFFFFFFFFF AND PUSH4 0xD137874B PUSH1 0x40 MLOAD DUP2 PUSH4 0xFFFFFFFF AND PUSH1 0xE0 SHL DUP2 MSTORE PUSH1 0x4 ADD PUSH1 0x20 PUSH1 0x40 MLOAD DUP1 DUP4 SUB DUP2 DUP7 GAS STATICCALL ISZERO DUP1 ISZERO PUSH2 0x1698 JUMPI RETURNDATASIZE PUSH0 DUP1 RETURNDATACOPY RETURNDATASIZE PUSH0 REVERT JUMPDEST POP POP POP POP PUSH1 0x40 MLOAD RETURNDATASIZE PUSH1 0x1F NOT PUSH1 0x1F DUP3 ADD AND DUP3 ADD DUP1 PUSH1 0x40 MSTORE POP DUP2 ADD SWAP1 PUSH2 0x16BC SWAP2 SWAP1 PUSH2 0x34F1 JUMP JUMPDEST DUP6 PUSH4 0xFFFFFFFF AND PUSH2 0x16CD SWAP2 SWAP1 PUSH2 0x3549 JUMP JUMPDEST SWAP1 POP CALLVALUE DUP2 GT ISZERO PUSH2 0x16DC DUP3 PUSH2 0x2194 JUMP JUMPDEST PUSH1 0x40 MLOAD PUSH1 0x20 ADD PUSH2 0x16EC SWAP2 SWAP1 PUSH2 0x363E JUMP JUMPDEST PUSH1 0x40 MLOAD PUSH1 0x20 DUP2 DUP4 SUB SUB DUP2 MSTORE SWAP1 PUSH1 0x40 MSTORE SWAP1 PUSH2 0x173C JUMPI PUSH1 0x40 MLOAD PUSH32 0x8C379A000000000000000000000000000000000000000000000000000000000 DUP2 MSTORE PUSH1 0x4 ADD PUSH2 0x1733 SWAP2 SWAP1 PUSH2 0x3697 JUMP JUMPDEST PUSH1 0x40 MLOAD DUP1 SWAP2 SUB SWAP1 REVERT JUMPDEST POP PUSH0 PUSH4 0x662A633A PUSH1 0xE0 SHL PUSH0 PUSH20 0x420000000000000000000000000000000000000A DUP11 DUP11 DUP7 CALLVALUE PUSH2 0x176A SWAP2 SWAP1 PUSH2 0x36B7 JUMP JUMPDEST DUP11 PUSH1 0x40 MLOAD PUSH1 0x24 ADD PUSH2 0x1780 SWAP7 SWAP6 SWAP5 SWAP4 SWAP3 SWAP2 SWAP1 PUSH2 0x3722 JUMP JUMPDEST PUSH1 0x40 MLOAD PUSH1 0x20 DUP2 DUP4 SUB SUB DUP2 MSTORE SWAP1 PUSH1 0x40 MSTORE SWAP1 PUSH28 0xFFFFFFFFFFFFFFFFFFFFFFFFFFFFFFFFFFFFFFFFFFFFFFFFFFFFFFFF NOT AND PUSH1 0x20 DUP3 ADD DUP1 MLOAD PUSH28 0xFFFFFFFFFFFFFFFFFFFFFFFFFFFFFFFFFFFFFFFFFFFFFFFFFFFFFFFF DUP4 DUP2 DUP4 AND OR DUP4 MSTORE POP POP POP POP SWAP1 POP PUSH2 0x180D DUP10 PUSH1 0x2 PUSH0 SWAP1 SLOAD SWAP1 PUSH2 0x100 EXP SWAP1 DIV PUSH20 0xFFFFFFFFFFFFFFFFFFFFFFFFFFFFFFFFFFFFFFFF AND DUP9 DUP5 DUP7 PUSH2 0x2312 JUMP JUMPDEST DUP7 PUSH20 0xFFFFFFFFFFFFFFFFFFFFFFFFFFFFFFFFFFFFFFFF AND DUP9 PUSH20 0xFFFFFFFFFFFFFFFFFFFFFFFFFFFFFFFFFFFFFFFF AND PUSH32 0x742461272F8DA1CBE655542D3257ACB1F1D5F4E6EAA79692AC5609B0F89CB644 CALLVALUE DUP9 DUP14 PUSH1 0x40 MLOAD PUSH2 0x186E SWAP4 SWAP3 SWAP2 SWAP1 PUSH2 0x3788 JUMP JUMPDEST PUSH1 0x40 MLOAD DUP1 SWAP2 SUB SWAP1 LOG3 POP POP POP POP PUSH2 0x1882 PUSH2 0x1889 JUMP JUMPDEST POP POP POP POP POP JUMP JUMPDEST PUSH1 0x1 DUP1 DUP2 SWAP1 SSTORE POP JUMP JUMPDEST PUSH0 DUP1 DUP3 EXTCODESIZE SWAP1 POP PUSH0 DUP2 GT SWAP2 POP POP SWAP2 SWAP1 POP JUMP JUMPDEST PUSH0 PUSH1 0x4 PUSH0 SWAP1 SLOAD SWAP1 PUSH2 0x100 EXP SWAP1 DIV PUSH20 0xFFFFFFFFFFFFFFFFFFFFFFFFFFFFFFFFFFFFFFFF AND PUSH20 0xFFFFFFFFFFFFFFFFFFFFFFFFFFFFFFFFFFFFFFFF AND PUSH4 0xBF40FAC1 PUSH1 0x40 MLOAD DUP2 PUSH4 0xFFFFFFFF AND PUSH1 0xE0 SHL DUP2 MSTORE PUSH1 0x4 ADD PUSH2 0x18FC SWAP1 PUSH2 0x34BF JUMP JUMPDEST PUSH1 0x20 PUSH1 0x40 MLOAD DUP1 DUP4 SUB DUP2 DUP7 GAS STATICCALL ISZERO DUP1 ISZERO PUSH2 0x1917 JUMPI RETURNDATASIZE PUSH0 DUP1 RETURNDATACOPY RETURNDATASIZE PUSH0 REVERT JUMPDEST POP POP POP POP PUSH1 0x40 MLOAD RETURNDATASIZE PUSH1 0x1F NOT PUSH1 0x1F DUP3 ADD AND DUP3 ADD DUP1 PUSH1 0x40 MSTORE POP DUP2 ADD SWAP1 PUSH2 0x193B SWAP2 SWAP1 PUSH2 0x30A3 JUMP JUMPDEST SWAP1 POP DUP1 PUSH20 0xFFFFFFFFFFFFFFFFFFFFFFFFFFFFFFFFFFFFFFFF AND PUSH4 0xBF53926E PUSH1 0x40 MLOAD DUP2 PUSH4 0xFFFFFFFF AND PUSH1 0xE0 SHL DUP2 MSTORE PUSH1 0x4 ADD PUSH1 0x20 PUSH1 0x40 MLOAD DUP1 DUP4 SUB DUP2 DUP7 GAS STATICCALL ISZERO DUP1 ISZERO PUSH2 0x1986 JUMPI RETURNDATASIZE PUSH0 DUP1 RETURNDATACOPY RETURNDATASIZE PUSH0 REVERT JUMPDEST POP POP POP POP PUSH1 0x40 MLOAD RETURNDATASIZE PUSH1 0x1F NOT PUSH1 0x1F DUP3 ADD AND DUP3 ADD DUP1 PUSH1 0x40 MSTORE POP DUP2 ADD SWAP1 PUSH2 0x19AA SWAP2 SWAP1 PUSH2 0x34F1 JUMP JUMPDEST PUSH4 0xFFFFFFFF AND DUP5 PUSH4 0xFFFFFFFF AND LT ISZERO PUSH2 0x1A2D JUMPI DUP1 PUSH20 0xFFFFFFFFFFFFFFFFFFFFFFFFFFFFFFFFFFFFFFFF AND PUSH4 0xBF53926E PUSH1 0x40 MLOAD DUP2 PUSH4 0xFFFFFFFF AND PUSH1 0xE0 SHL DUP2 MSTORE PUSH1 0x4 ADD PUSH1 0x20 PUSH1 0x40 MLOAD DUP1 DUP4 SUB DUP2 DUP7 GAS STATICCALL ISZERO DUP1 ISZERO PUSH2 0x1A06 JUMPI RETURNDATASIZE PUSH0 DUP1 RETURNDATACOPY RETURNDATASIZE PUSH0 REVERT JUMPDEST POP POP POP POP PUSH1 0x40 MLOAD RETURNDATASIZE PUSH1 0x1F NOT PUSH1 0x1F DUP3 ADD AND DUP3 ADD DUP1 PUSH1 0x40 MSTORE POP DUP2 ADD SWAP1 PUSH2 0x1A2A SWAP2 SWAP1 PUSH2 0x34F1 JUMP JUMPDEST SWAP4 POP JUMPDEST CALLVALUE DUP2 PUSH20 0xFFFFFFFFFFFFFFFFFFFFFFFFFFFFFFFFFFFFFFFF AND PUSH4 0xD137874B PUSH1 0x40 MLOAD DUP2 PUSH4 0xFFFFFFFF AND PUSH1 0xE0 SHL DUP2 MSTORE PUSH1 0x4 ADD PUSH1 0x20 PUSH1 0x40 MLOAD DUP1 DUP4 SUB DUP2 DUP7 GAS STATICCALL ISZERO DUP1 ISZERO PUSH2 0x1A77 JUMPI RETURNDATASIZE PUSH0 DUP1 RETURNDATACOPY RETURNDATASIZE PUSH0 REVERT JUMPDEST POP POP POP POP PUSH1 0x40 MLOAD RETURNDATASIZE PUSH1 0x1F NOT PUSH1 0x1F DUP3 ADD AND DUP3 ADD DUP1 PUSH1 0x40 MSTORE POP DUP2 ADD SWAP1 PUSH2 0x1A9B SWAP2 SWAP1 PUSH2 0x34F1 JUMP JUMPDEST DUP6 PUSH4 0xFFFFFFFF AND PUSH2 0x1AAC SWAP2 SWAP1 PUSH2 0x3549 JUMP JUMPDEST GT ISZERO PUSH2 0x1B34 DUP3 PUSH20 0xFFFFFFFFFFFFFFFFFFFFFFFFFFFFFFFFFFFFFFFF AND PUSH4 0xD137874B PUSH1 0x40 MLOAD DUP2 PUSH4 0xFFFFFFFF AND PUSH1 0xE0 SHL DUP2 MSTORE PUSH1 0x4 ADD PUSH1 0x20 PUSH1 0x40 MLOAD DUP1 DUP4 SUB DUP2 DUP7 GAS STATICCALL ISZERO DUP1 ISZERO PUSH2 0x1AFA JUMPI RETURNDATASIZE PUSH0 DUP1 RETURNDATACOPY RETURNDATASIZE PUSH0 REVERT JUMPDEST POP POP POP POP PUSH1 0x40 MLOAD RETURNDATASIZE PUSH1 0x1F NOT PUSH1 0x1F DUP3 ADD AND DUP3 ADD DUP1 PUSH1 0x40 MSTORE POP DUP2 ADD SWAP1 PUSH2 0x1B1E SWAP2 SWAP1 PUSH2 0x34F1 JUMP JUMPDEST DUP7 PUSH4 0xFFFFFFFF AND PUSH2 0x1B2F SWAP2 SWAP1 PUSH2 0x3549 JUMP JUMPDEST PUSH2 0x2194 JUMP JUMPDEST PUSH1 0x40 MLOAD PUSH1 0x20 ADD PUSH2 0x1B44 SWAP2 SWAP1 PUSH2 0x363E JUMP JUMPDEST PUSH1 0x40 MLOAD PUSH1 0x20 DUP2 DUP4 SUB SUB DUP2 MSTORE SWAP1 PUSH1 0x40 MSTORE SWAP1 PUSH2 0x1B94 JUMPI PUSH1 0x40 MLOAD PUSH32 0x8C379A000000000000000000000000000000000000000000000000000000000 DUP2 MSTORE PUSH1 0x4 ADD PUSH2 0x1B8B SWAP2 SWAP1 PUSH2 0x3697 JUMP JUMPDEST PUSH1 0x40 MLOAD DUP1 SWAP2 SUB SWAP1 REVERT JUMPDEST POP PUSH2 0x1BC2 DUP8 ADDRESS DUP8 DUP13 PUSH20 0xFFFFFFFFFFFFFFFFFFFFFFFFFFFFFFFFFFFFFFFF AND PUSH2 0x238E SWAP1 SWAP4 SWAP3 SWAP2 SWAP1 PUSH4 0xFFFFFFFF AND JUMP JUMPDEST PUSH1 0x60 PUSH1 0x3 PUSH0 SWAP1 SLOAD SWAP1 PUSH2 0x100 EXP SWAP1 DIV PUSH20 0xFFFFFFFFFFFFFFFFFFFFFFFFFFFFFFFFFFFFFFFF AND PUSH20 0xFFFFFFFFFFFFFFFFFFFFFFFFFFFFFFFFFFFFFFFF AND DUP11 PUSH20 0xFFFFFFFFFFFFFFFFFFFFFFFFFFFFFFFFFFFFFFFF AND SUB PUSH2 0x1CCC JUMPI PUSH20 0xDEADDEADDEADDEADDEADDEADDEADDEADDEAD0000 SWAP9 POP PUSH4 0x662A633A PUSH1 0xE0 SHL PUSH0 PUSH20 0xDEADDEADDEADDEADDEADDEADDEADDEADDEAD0000 DUP11 DUP11 DUP11 DUP10 DUP10 PUSH1 0x40 MLOAD PUSH1 0x24 ADD PUSH2 0x1C68 SWAP8 SWAP7 SWAP6 SWAP5 SWAP4 SWAP3 SWAP2 SWAP1 PUSH2 0x37C4 JUMP JUMPDEST PUSH1 0x40 MLOAD PUSH1 0x20 DUP2 DUP4 SUB SUB DUP2 MSTORE SWAP1 PUSH1 0x40 MSTORE SWAP1 PUSH28 0xFFFFFFFFFFFFFFFFFFFFFFFFFFFFFFFFFFFFFFFFFFFFFFFFFFFFFFFF NOT AND PUSH1 0x20 DUP3 ADD DUP1 MLOAD PUSH28 0xFFFFFFFFFFFFFFFFFFFFFFFFFFFFFFFFFFFFFFFFFFFFFFFFFFFFFFFF DUP4 DUP2 DUP4 AND OR DUP4 MSTORE POP POP POP POP SWAP1 POP PUSH2 0x1D51 JUMP JUMPDEST PUSH4 0x662A633A PUSH1 0xE0 SHL DUP11 DUP11 DUP11 DUP11 DUP11 DUP10 DUP10 PUSH1 0x40 MLOAD PUSH1 0x24 ADD PUSH2 0x1CF1 SWAP8 SWAP7 SWAP6 SWAP5 SWAP4 SWAP3 SWAP2 SWAP1 PUSH2 0x37C4 JUMP JUMPDEST PUSH1 0x40 MLOAD PUSH1 0x20 DUP2 DUP4 SUB SUB DUP2 MSTORE SWAP1 PUSH1 0x40 MSTORE SWAP1 PUSH28 0xFFFFFFFFFFFFFFFFFFFFFFFFFFFFFFFFFFFFFFFFFFFFFFFFFFFFFFFF NOT AND PUSH1 0x20 DUP3 ADD DUP1 MLOAD PUSH28 0xFFFFFFFFFFFFFFFFFFFFFFFFFFFFFFFFFFFFFFFFFFFFFFFFFFFFFFFF DUP4 DUP2 DUP4 AND OR DUP4 MSTORE POP POP POP POP SWAP1 POP JUMPDEST PUSH2 0x1D7F DUP12 PUSH1 0x2 PUSH0 SWAP1 SLOAD SWAP1 PUSH2 0x100 EXP SWAP1 DIV PUSH20 0xFFFFFFFFFFFFFFFFFFFFFFFFFFFFFFFFFFFFFFFF AND DUP8 DUP5 CALLVALUE PUSH2 0x2312 JUMP JUMPDEST DUP6 PUSH1 0x5 PUSH0 DUP13 PUSH20 0xFFFFFFFFFFFFFFFFFFFFFFFFFFFFFFFFFFFFFFFF AND PUSH20 0xFFFFFFFFFFFFFFFFFFFFFFFFFFFFFFFFFFFFFFFF AND DUP2 MSTORE PUSH1 0x20 ADD SWAP1 DUP2 MSTORE PUSH1 0x20 ADD PUSH0 KECCAK256 PUSH0 DUP14 DUP2 MSTORE PUSH1 0x20 ADD SWAP1 DUP2 MSTORE PUSH1 0x20 ADD PUSH0 KECCAK256 PUSH0 DUP12 PUSH20 0xFFFFFFFFFFFFFFFFFFFFFFFFFFFFFFFFFFFFFFFF AND PUSH20 0xFFFFFFFFFFFFFFFFFFFFFFFFFFFFFFFFFFFFFFFF AND DUP2 MSTORE PUSH1 0x20 ADD SWAP1 DUP2 MSTORE PUSH1 0x20 ADD PUSH0 KECCAK256 SLOAD PUSH2 0x1E12 SWAP2 SWAP1 PUSH2 0x382C JUMP JUMPDEST PUSH1 0x5 PUSH0 DUP13 PUSH20 0xFFFFFFFFFFFFFFFFFFFFFFFFFFFFFFFFFFFFFFFF AND PUSH20 0xFFFFFFFFFFFFFFFFFFFFFFFFFFFFFFFFFFFFFFFF AND DUP2 MSTORE PUSH1 0x20 ADD SWAP1 DUP2 MSTORE PUSH1 0x20 ADD PUSH0 KECCAK256 PUSH0 DUP14 DUP2 MSTORE PUSH1 0x20 ADD SWAP1 DUP2 MSTORE PUSH1 0x20 ADD PUSH0 KECCAK256 PUSH0 DUP12 PUSH20 0xFFFFFFFFFFFFFFFFFFFFFFFFFFFFFFFFFFFFFFFF AND PUSH20 0xFFFFFFFFFFFFFFFFFFFFFFFFFFFFFFFFFFFFFFFF AND DUP2 MSTORE PUSH1 0x20 ADD SWAP1 DUP2 MSTORE PUSH1 0x20 ADD PUSH0 KECCAK256 DUP2 SWAP1 SSTORE POP PUSH32 0xC333B5C3E71358B85EDBB94334230AC00644C26AF29851F9034A7105EB84B077 DUP12 PUSH1 0x40 MLOAD PUSH2 0x1ECC SWAP2 SWAP1 PUSH2 0x2A6D JUMP JUMPDEST PUSH1 0x40 MLOAD DUP1 SWAP2 SUB SWAP1 LOG1 DUP8 PUSH20 0xFFFFFFFFFFFFFFFFFFFFFFFFFFFFFFFFFFFFFFFF AND DUP10 PUSH20 0xFFFFFFFFFFFFFFFFFFFFFFFFFFFFFFFFFFFFFFFF AND DUP12 PUSH20 0xFFFFFFFFFFFFFFFFFFFFFFFFFFFFFFFFFFFFFFFF AND PUSH32 0x718594027ABD4EAED59F95162563E0CC6D0E8D5B86B1C7BE8B1B0AC3343D0396 DUP11 DUP11 DUP10 DUP10 PUSH1 0x40 MLOAD PUSH2 0x1F4E SWAP5 SWAP4 SWAP3 SWAP2 SWAP1 PUSH2 0x385F JUMP JUMPDEST PUSH1 0x40 MLOAD DUP1 SWAP2 SUB SWAP1 LOG4 POP POP POP POP POP POP POP POP POP POP POP JUMP JUMPDEST DUP3 PUSH1 0x5 PUSH0 DUP10 PUSH20 0xFFFFFFFFFFFFFFFFFFFFFFFFFFFFFFFFFFFFFFFF AND PUSH20 0xFFFFFFFFFFFFFFFFFFFFFFFFFFFFFFFFFFFFFFFF AND DUP2 MSTORE PUSH1 0x20 ADD SWAP1 DUP2 MSTORE PUSH1 0x20 ADD PUSH0 KECCAK256 PUSH0 DUP11 DUP2 MSTORE PUSH1 0x20 ADD SWAP1 DUP2 MSTORE PUSH1 0x20 ADD PUSH0 KECCAK256 PUSH0 DUP9 PUSH20 0xFFFFFFFFFFFFFFFFFFFFFFFFFFFFFFFFFFFFFFFF AND PUSH20 0xFFFFFFFFFFFFFFFFFFFFFFFFFFFFFFFFFFFFFFFF AND DUP2 MSTORE PUSH1 0x20 ADD SWAP1 DUP2 MSTORE PUSH1 0x20 ADD PUSH0 KECCAK256 SLOAD PUSH2 0x1FF6 SWAP2 SWAP1 PUSH2 0x36B7 JUMP JUMPDEST PUSH1 0x5 PUSH0 DUP10 PUSH20 0xFFFFFFFFFFFFFFFFFFFFFFFFFFFFFFFFFFFFFFFF AND PUSH20 0xFFFFFFFFFFFFFFFFFFFFFFFFFFFFFFFFFFFFFFFF AND DUP2 MSTORE PUSH1 0x20 ADD SWAP1 DUP2 MSTORE PUSH1 0x20 ADD PUSH0 KECCAK256 PUSH0 DUP11 DUP2 MSTORE PUSH1 0x20 ADD SWAP1 DUP2 MSTORE PUSH1 0x20 ADD PUSH0 KECCAK256 PUSH0 DUP9 PUSH20 0xFFFFFFFFFFFFFFFFFFFFFFFFFFFFFFFFFFFFFFFF AND PUSH20 0xFFFFFFFFFFFFFFFFFFFFFFFFFFFFFFFFFFFFFFFF AND DUP2 MSTORE PUSH1 0x20 ADD SWAP1 DUP2 MSTORE PUSH1 0x20 ADD PUSH0 KECCAK256 DUP2 SWAP1 SSTORE POP PUSH2 0x20AC DUP5 DUP5 DUP10 PUSH20 0xFFFFFFFFFFFFFFFFFFFFFFFFFFFFFFFFFFFFFFFF AND PUSH2 0x2410 SWAP1 SWAP3 SWAP2 SWAP1 PUSH4 0xFFFFFFFF AND JUMP JUMPDEST PUSH32 0xC333B5C3E71358B85EDBB94334230AC00644C26AF29851F9034A7105EB84B077 DUP9 PUSH1 0x40 MLOAD PUSH2 0x20DB SWAP2 SWAP1 PUSH2 0x2A6D JUMP JUMPDEST PUSH1 0x40 MLOAD DUP1 SWAP2 SUB SWAP1 LOG1 DUP5 PUSH20 0xFFFFFFFFFFFFFFFFFFFFFFFFFFFFFFFFFFFFFFFF AND DUP7 PUSH20 0xFFFFFFFFFFFFFFFFFFFFFFFFFFFFFFFFFFFFFFFF AND DUP9 PUSH20 0xFFFFFFFFFFFFFFFFFFFFFFFFFFFFFFFFFFFFFFFF AND PUSH32 0x3CEEE06C1E37648FCBB6ED52E17B3E1F275A1F8C7B22A84B2B84732431E046B3 DUP8 DUP8 DUP8 DUP8 PUSH1 0x40 MLOAD PUSH2 0x215D SWAP5 SWAP4 SWAP3 SWAP2 SWAP1 PUSH2 0x385F JUMP JUMPDEST PUSH1 0x40 MLOAD DUP1 SWAP2 SUB SWAP1 LOG4 POP POP POP POP POP POP POP POP JUMP JUMPDEST PUSH2 0x2177 PUSH2 0x14D5 JUMP JUMPDEST PUSH2 0x2186 PUSH2 0x440 DUP6 DUP6 DUP6 DUP6 PUSH2 0x1524 JUMP JUMPDEST PUSH2 0x218E PUSH2 0x1889 JUMP JUMPDEST POP POP POP POP JUMP JUMPDEST PUSH1 0x60 PUSH0 DUP3 SUB PUSH2 0x21DA JUMPI PUSH1 0x40 MLOAD DUP1 PUSH1 0x40 ADD PUSH1 0x40 MSTORE DUP1 PUSH1 0x1 DUP2 MSTORE PUSH1 0x20 ADD PUSH32 0x3000000000000000000000000000000000000000000000000000000000000000 DUP2 MSTORE POP SWAP1 POP PUSH2 0x230D JUMP JUMPDEST PUSH0 DUP3 SWAP1 POP PUSH0 JUMPDEST PUSH0 DUP3 EQ PUSH2 0x2209 JUMPI DUP1 DUP1 PUSH2 0x21F2 SWAP1 PUSH2 0x389D JUMP JUMPDEST SWAP2 POP POP PUSH1 0xA DUP3 PUSH2 0x2202 SWAP2 SWAP1 PUSH2 0x3911 JUMP JUMPDEST SWAP2 POP PUSH2 0x21E0 JUMP JUMPDEST PUSH0 DUP2 PUSH8 0xFFFFFFFFFFFFFFFF DUP2 GT ISZERO PUSH2 0x2224 JUMPI PUSH2 0x2223 PUSH2 0x315C JUMP JUMPDEST JUMPDEST PUSH1 0x40 MLOAD SWAP1 DUP1 DUP3 MSTORE DUP1 PUSH1 0x1F ADD PUSH1 0x1F NOT AND PUSH1 0x20 ADD DUP3 ADD PUSH1 0x40 MSTORE DUP1 ISZERO PUSH2 0x2256 JUMPI DUP2 PUSH1 0x20 ADD PUSH1 0x1 DUP3 MUL DUP1 CALLDATASIZE DUP4 CALLDATACOPY DUP1 DUP3 ADD SWAP2 POP POP SWAP1 POP JUMPDEST POP SWAP1 POP PUSH0 DUP3 SWAP1 POP JUMPDEST PUSH0 DUP7 EQ PUSH2 0x2305 JUMPI PUSH1 0x1 DUP2 PUSH2 0x2272 SWAP2 SWAP1 PUSH2 0x36B7 JUMP JUMPDEST SWAP1 POP PUSH0 PUSH1 0xA DUP1 DUP9 PUSH2 0x2283 SWAP2 SWAP1 PUSH2 0x3911 JUMP JUMPDEST PUSH2 0x228D SWAP2 SWAP1 PUSH2 0x3549 JUMP JUMPDEST DUP8 PUSH2 0x2298 SWAP2 SWAP1 PUSH2 0x36B7 JUMP JUMPDEST PUSH1 0x30 PUSH2 0x22A4 SWAP2 SWAP1 PUSH2 0x394D JUMP JUMPDEST SWAP1 POP PUSH0 DUP2 PUSH1 0xF8 SHL SWAP1 POP DUP1 DUP5 DUP5 DUP2 MLOAD DUP2 LT PUSH2 0x22C1 JUMPI PUSH2 0x22C0 PUSH2 0x3981 JUMP JUMPDEST JUMPDEST PUSH1 0x20 ADD ADD SWAP1 PUSH31 0xFFFFFFFFFFFFFFFFFFFFFFFFFFFFFFFFFFFFFFFFFFFFFFFFFFFFFFFFFFFFFF NOT AND SWAP1 DUP2 PUSH0 BYTE SWAP1 MSTORE8 POP PUSH1 0xA DUP9 PUSH2 0x22FC SWAP2 SWAP1 PUSH2 0x3911 JUMP JUMPDEST SWAP8 POP POP POP PUSH2 0x225E JUMP JUMPDEST DUP2 SWAP5 POP POP POP POP POP JUMPDEST SWAP2 SWAP1 POP JUMP JUMPDEST PUSH2 0x231A PUSH2 0x14AE JUMP JUMPDEST PUSH20 0xFFFFFFFFFFFFFFFFFFFFFFFFFFFFFFFFFFFFFFFF AND PUSH4 0x44DD5ED6 DUP3 DUP8 DUP8 DUP7 DUP9 PUSH1 0x40 MLOAD DUP7 PUSH4 0xFFFFFFFF AND PUSH1 0xE0 SHL DUP2 MSTORE PUSH1 0x4 ADD PUSH2 0x2359 SWAP5 SWAP4 SWAP3 SWAP2 SWAP1 PUSH2 0x39BD JUMP JUMPDEST PUSH0 PUSH1 0x40 MLOAD DUP1 DUP4 SUB DUP2 DUP6 DUP9 DUP1 EXTCODESIZE ISZERO DUP1 ISZERO PUSH2 0x2370 JUMPI PUSH0 DUP1 REVERT JUMPDEST POP GAS CALL ISZERO DUP1 ISZERO PUSH2 0x2382 JUMPI RETURNDATASIZE PUSH0 DUP1 RETURNDATACOPY RETURNDATASIZE PUSH0 REVERT JUMPDEST POP POP POP POP POP POP POP POP POP POP JUMP JUMPDEST PUSH2 0x240A DUP5 DUP6 PUSH20 0xFFFFFFFFFFFFFFFFFFFFFFFFFFFFFFFFFFFFFFFF AND PUSH4 0x23B872DD DUP7 DUP7 DUP7 PUSH1 0x40 MLOAD PUSH1 0x24 ADD PUSH2 0x23C3 SWAP4 SWAP3 SWAP2 SWAP1 PUSH2 0x3A07 JUMP JUMPDEST PUSH1 0x40 MLOAD PUSH1 0x20 DUP2 DUP4 SUB SUB DUP2 MSTORE SWAP1 PUSH1 0x40 MSTORE SWAP2 POP PUSH1 0xE0 SHL PUSH1 0x20 DUP3 ADD DUP1 MLOAD PUSH28 0xFFFFFFFFFFFFFFFFFFFFFFFFFFFFFFFFFFFFFFFFFFFFFFFFFFFFFFFF DUP4 DUP2 DUP4 AND OR DUP4 MSTORE POP POP POP POP PUSH2 0x248F JUMP JUMPDEST POP POP POP POP JUMP JUMPDEST PUSH2 0x248A DUP4 DUP5 PUSH20 0xFFFFFFFFFFFFFFFFFFFFFFFFFFFFFFFFFFFFFFFF AND PUSH4 0xA9059CBB DUP6 DUP6 PUSH1 0x40 MLOAD PUSH1 0x24 ADD PUSH2 0x2443 SWAP3 SWAP2 SWAP1 PUSH2 0x3A3C JUMP JUMPDEST PUSH1 0x40 MLOAD PUSH1 0x20 DUP2 DUP4 SUB SUB DUP2 MSTORE SWAP1 PUSH1 0x40 MSTORE SWAP2 POP PUSH1 0xE0 SHL PUSH1 0x20 DUP3 ADD DUP1 MLOAD PUSH28 0xFFFFFFFFFFFFFFFFFFFFFFFFFFFFFFFFFFFFFFFFFFFFFFFFFFFFFFFF DUP4 DUP2 DUP4 AND OR DUP4 MSTORE POP POP POP POP PUSH2 0x248F JUMP JUMPDEST POP POP POP JUMP JUMPDEST PUSH0 PUSH2 0x24B9 DUP3 DUP5 PUSH20 0xFFFFFFFFFFFFFFFFFFFFFFFFFFFFFFFFFFFFFFFF AND PUSH2 0x2524 SWAP1 SWAP2 SWAP1 PUSH4 0xFFFFFFFF AND JUMP JUMPDEST SWAP1 POP PUSH0 DUP2 MLOAD EQ ISZERO DUP1 ISZERO PUSH2 0x24DD JUMPI POP DUP1 DUP1 PUSH1 0x20 ADD SWAP1 MLOAD DUP2 ADD SWAP1 PUSH2 0x24DB SWAP2 SWAP1 PUSH2 0x3A98 JUMP JUMPDEST ISZERO JUMPDEST ISZERO PUSH2 0x251F JUMPI DUP3 PUSH1 0x40 MLOAD PUSH32 0x5274AFE700000000000000000000000000000000000000000000000000000000 DUP2 MSTORE PUSH1 0x4 ADD PUSH2 0x2516 SWAP2 SWAP1 PUSH2 0x28F2 JUMP JUMPDEST PUSH1 0x40 MLOAD DUP1 SWAP2 SUB SWAP1 REVERT JUMPDEST POP POP POP JUMP JUMPDEST PUSH1 0x60 PUSH2 0x2531 DUP4 DUP4 PUSH0 PUSH2 0x2539 JUMP JUMPDEST SWAP1 POP SWAP3 SWAP2 POP POP JUMP JUMPDEST PUSH1 0x60 DUP2 SELFBALANCE LT ISZERO PUSH2 0x2580 JUMPI ADDRESS PUSH1 0x40 MLOAD PUSH32 0xCD78605900000000000000000000000000000000000000000000000000000000 DUP2 MSTORE PUSH1 0x4 ADD PUSH2 0x2577 SWAP2 SWAP1 PUSH2 0x28F2 JUMP JUMPDEST PUSH1 0x40 MLOAD DUP1 SWAP2 SUB SWAP1 REVERT JUMPDEST PUSH0 DUP1 DUP6 PUSH20 0xFFFFFFFFFFFFFFFFFFFFFFFFFFFFFFFFFFFFFFFF AND DUP5 DUP7 PUSH1 0x40 MLOAD PUSH2 0x25A8 SWAP2 SWAP1 PUSH2 0x31DB JUMP JUMPDEST PUSH0 PUSH1 0x40 MLOAD DUP1 DUP4 SUB DUP2 DUP6 DUP8 GAS CALL SWAP3 POP POP POP RETURNDATASIZE DUP1 PUSH0 DUP2 EQ PUSH2 0x25E2 JUMPI PUSH1 0x40 MLOAD SWAP2 POP PUSH1 0x1F NOT PUSH1 0x3F RETURNDATASIZE ADD AND DUP3 ADD PUSH1 0x40 MSTORE RETURNDATASIZE DUP3 MSTORE RETURNDATASIZE PUSH0 PUSH1 0x20 DUP5 ADD RETURNDATACOPY PUSH2 0x25E7 JUMP JUMPDEST PUSH1 0x60 SWAP2 POP JUMPDEST POP SWAP2 POP SWAP2 POP PUSH2 0x25F7 DUP7 DUP4 DUP4 PUSH2 0x2602 JUMP JUMPDEST SWAP3 POP POP POP SWAP4 SWAP3 POP POP POP JUMP JUMPDEST PUSH1 0x60 DUP3 PUSH2 0x2617 JUMPI PUSH2 0x2612 DUP3 PUSH2 0x268F JUMP JUMPDEST PUSH2 0x2687 JUMP JUMPDEST PUSH0 DUP3 MLOAD EQ DUP1 ISZERO PUSH2 0x263D JUMPI POP PUSH0 DUP5 PUSH20 0xFFFFFFFFFFFFFFFFFFFFFFFFFFFFFFFFFFFFFFFF AND EXTCODESIZE EQ JUMPDEST ISZERO PUSH2 0x267F JUMPI DUP4 PUSH1 0x40 MLOAD PUSH32 0x9996B31500000000000000000000000000000000000000000000000000000000 DUP2 MSTORE PUSH1 0x4 ADD PUSH2 0x2676 SWAP2 SWAP1 PUSH2 0x28F2 JUMP JUMPDEST PUSH1 0x40 MLOAD DUP1 SWAP2 SUB SWAP1 REVERT JUMPDEST DUP2 SWAP1 POP PUSH2 0x2688 JUMP JUMPDEST JUMPDEST SWAP4 SWAP3 POP POP POP JUMP JUMPDEST PUSH0 DUP2 MLOAD GT ISZERO PUSH2 0x26A1 JUMPI DUP1 MLOAD DUP1 DUP3 PUSH1 0x20 ADD REVERT JUMPDEST PUSH1 0x40 MLOAD PUSH32 0x1425EA4200000000000000000000000000000000000000000000000000000000 DUP2 MSTORE PUSH1 0x4 ADD PUSH1 0x40 MLOAD DUP1 SWAP2 SUB SWAP1 REVERT JUMPDEST PUSH0 DUP1 REVERT JUMPDEST PUSH0 DUP1 REVERT JUMPDEST PUSH0 DUP2 SWAP1 POP SWAP2 SWAP1 POP JUMP JUMPDEST PUSH2 0x26ED DUP2 PUSH2 0x26DB JUMP JUMPDEST DUP2 EQ PUSH2 0x26F7 JUMPI PUSH0 DUP1 REVERT JUMPDEST POP JUMP JUMPDEST PUSH0 DUP2 CALLDATALOAD SWAP1 POP PUSH2 0x2708 DUP2 PUSH2 0x26E4 JUMP JUMPDEST SWAP3 SWAP2 POP POP JUMP JUMPDEST PUSH0 PUSH20 0xFFFFFFFFFFFFFFFFFFFFFFFFFFFFFFFFFFFFFFFF DUP3 AND SWAP1 POP SWAP2 SWAP1 POP JUMP JUMPDEST PUSH0 PUSH2 0x2737 DUP3 PUSH2 0x270E JUMP JUMPDEST SWAP1 POP SWAP2 SWAP1 POP JUMP JUMPDEST PUSH2 0x2747 DUP2 PUSH2 0x272D JUMP JUMPDEST DUP2 EQ PUSH2 0x2751 JUMPI PUSH0 DUP1 REVERT JUMPDEST POP JUMP JUMPDEST PUSH0 DUP2 CALLDATALOAD SWAP1 POP PUSH2 0x2762 DUP2 PUSH2 0x273E JUMP JUMPDEST SWAP3 SWAP2 POP POP JUMP JUMPDEST PUSH0 DUP1 REVERT JUMPDEST PUSH0 DUP1 REVERT JUMPDEST PUSH0 DUP1 REVERT JUMPDEST PUSH0 DUP1 DUP4 PUSH1 0x1F DUP5 ADD SLT PUSH2 0x2789 JUMPI PUSH2 0x2788 PUSH2 0x2768 JUMP JUMPDEST JUMPDEST DUP3 CALLDATALOAD SWAP1 POP PUSH8 0xFFFFFFFFFFFFFFFF DUP2 GT ISZERO PUSH2 0x27A6 JUMPI PUSH2 0x27A5 PUSH2 0x276C JUMP JUMPDEST JUMPDEST PUSH1 0x20 DUP4 ADD SWAP2 POP DUP4 PUSH1 0x1 DUP3 MUL DUP4 ADD GT ISZERO PUSH2 0x27C2 JUMPI PUSH2 0x27C1 PUSH2 0x2770 JUMP JUMPDEST JUMPDEST SWAP3 POP SWAP3 SWAP1 POP JUMP JUMPDEST PUSH0 DUP1 PUSH0 DUP1 PUSH0 DUP1 PUSH1 0xA0 DUP8 DUP10 SUB SLT ISZERO PUSH2 0x27E3 JUMPI PUSH2 0x27E2 PUSH2 0x26D3 JUMP JUMPDEST JUMPDEST PUSH0 PUSH2 0x27F0 DUP10 DUP3 DUP11 ADD PUSH2 0x26FA JUMP JUMPDEST SWAP7 POP POP PUSH1 0x20 PUSH2 0x2801 DUP10 DUP3 DUP11 ADD PUSH2 0x2754 JUMP JUMPDEST SWAP6 POP POP PUSH1 0x40 PUSH2 0x2812 DUP10 DUP3 DUP11 ADD PUSH2 0x2754 JUMP JUMPDEST SWAP5 POP POP PUSH1 0x60 PUSH2 0x2823 DUP10 DUP3 DUP11 ADD PUSH2 0x26FA JUMP JUMPDEST SWAP4 POP POP PUSH1 0x80 DUP8 ADD CALLDATALOAD PUSH8 0xFFFFFFFFFFFFFFFF DUP2 GT ISZERO PUSH2 0x2844 JUMPI PUSH2 0x2843 PUSH2 0x26D7 JUMP JUMPDEST JUMPDEST PUSH2 0x2850 DUP10 DUP3 DUP11 ADD PUSH2 0x2774 JUMP JUMPDEST SWAP3 POP SWAP3 POP POP SWAP3 SWAP6 POP SWAP3 SWAP6 POP SWAP3 SWAP6 JUMP JUMPDEST PUSH0 DUP1 PUSH0 DUP1 PUSH0 PUSH1 0x80 DUP7 DUP9 SUB SLT ISZERO PUSH2 0x2878 JUMPI PUSH2 0x2877 PUSH2 0x26D3 JUMP JUMPDEST JUMPDEST PUSH0 PUSH2 0x2885 DUP9 DUP3 DUP10 ADD PUSH2 0x2754 JUMP JUMPDEST SWAP6 POP POP PUSH1 0x20 PUSH2 0x2896 DUP9 DUP3 DUP10 ADD PUSH2 0x2754 JUMP JUMPDEST SWAP5 POP POP PUSH1 0x40 PUSH2 0x28A7 DUP9 DUP3 DUP10 ADD PUSH2 0x26FA JUMP JUMPDEST SWAP4 POP POP PUSH1 0x60 DUP7 ADD CALLDATALOAD PUSH8 0xFFFFFFFFFFFFFFFF DUP2 GT ISZERO PUSH2 0x28C8 JUMPI PUSH2 0x28C7 PUSH2 0x26D7 JUMP JUMPDEST JUMPDEST PUSH2 0x28D4 DUP9 DUP3 DUP10 ADD PUSH2 0x2774 JUMP JUMPDEST SWAP3 POP SWAP3 POP POP SWAP3 SWAP6 POP SWAP3 SWAP6 SWAP1 SWAP4 POP JUMP JUMPDEST PUSH2 0x28EC DUP2 PUSH2 0x272D JUMP JUMPDEST DUP3 MSTORE POP POP JUMP JUMPDEST PUSH0 PUSH1 0x20 DUP3 ADD SWAP1 POP PUSH2 0x2905 PUSH0 DUP4 ADD DUP5 PUSH2 0x28E3 JUMP JUMPDEST SWAP3 SWAP2 POP POP JUMP JUMPDEST PUSH0 PUSH4 0xFFFFFFFF DUP3 AND SWAP1 POP SWAP2 SWAP1 POP JUMP JUMPDEST PUSH2 0x2923 DUP2 PUSH2 0x290B JUMP JUMPDEST DUP2 EQ PUSH2 0x292D JUMPI PUSH0 DUP1 REVERT JUMPDEST POP JUMP JUMPDEST PUSH0 DUP2 CALLDATALOAD SWAP1 POP PUSH2 0x293E DUP2 PUSH2 0x291A JUMP JUMPDEST SWAP3 SWAP2 POP POP JUMP JUMPDEST PUSH0 DUP1 PUSH0 DUP1 PUSH0 PUSH1 0x80 DUP7 DUP9 SUB SLT ISZERO PUSH2 0x295D JUMPI PUSH2 0x295C PUSH2 0x26D3 JUMP JUMPDEST JUMPDEST PUSH0 PUSH2 0x296A DUP9 DUP3 DUP10 ADD PUSH2 0x26FA JUMP JUMPDEST SWAP6 POP POP PUSH1 0x20 PUSH2 0x297B DUP9 DUP3 DUP10 ADD PUSH2 0x2754 JUMP JUMPDEST SWAP5 POP POP PUSH1 0x40 PUSH2 0x298C DUP9 DUP3 DUP10 ADD PUSH2 0x2930 JUMP JUMPDEST SWAP4 POP POP PUSH1 0x60 DUP7 ADD CALLDATALOAD PUSH8 0xFFFFFFFFFFFFFFFF DUP2 GT ISZERO PUSH2 0x29AD JUMPI PUSH2 0x29AC PUSH2 0x26D7 JUMP JUMPDEST JUMPDEST PUSH2 0x29B9 DUP9 DUP3 DUP10 ADD PUSH2 0x2774 JUMP JUMPDEST SWAP3 POP SWAP3 POP POP SWAP3 SWAP6 POP SWAP3 SWAP6 SWAP1 SWAP4 POP JUMP JUMPDEST PUSH0 DUP1 PUSH0 DUP1 PUSH0 DUP1 PUSH1 0xA0 DUP8 DUP10 SUB SLT ISZERO PUSH2 0x29E2 JUMPI PUSH2 0x29E1 PUSH2 0x26D3 JUMP JUMPDEST JUMPDEST PUSH0 PUSH2 0x29EF DUP10 DUP3 DUP11 ADD PUSH2 0x2754 JUMP JUMPDEST SWAP7 POP POP PUSH1 0x20 PUSH2 0x2A00 DUP10 DUP3 DUP11 ADD PUSH2 0x2754 JUMP JUMPDEST SWAP6 POP POP PUSH1 0x40 PUSH2 0x2A11 DUP10 DUP3 DUP11 ADD PUSH2 0x26FA JUMP JUMPDEST SWAP5 POP POP PUSH1 0x60 PUSH2 0x2A22 DUP10 DUP3 DUP11 ADD PUSH2 0x2930 JUMP JUMPDEST SWAP4 POP POP PUSH1 0x80 DUP8 ADD CALLDATALOAD PUSH8 0xFFFFFFFFFFFFFFFF DUP2 GT ISZERO PUSH2 0x2A43 JUMPI PUSH2 0x2A42 PUSH2 0x26D7 JUMP JUMPDEST JUMPDEST PUSH2 0x2A4F DUP10 DUP3 DUP11 ADD PUSH2 0x2774 JUMP JUMPDEST SWAP3 POP SWAP3 POP POP SWAP3 SWAP6 POP SWAP3 SWAP6 POP SWAP3 SWAP6 JUMP JUMPDEST PUSH2 0x2A67 DUP2 PUSH2 0x26DB JUMP JUMPDEST DUP3 MSTORE POP POP JUMP JUMPDEST PUSH0 PUSH1 0x20 DUP3 ADD SWAP1 POP PUSH2 0x2A80 PUSH0 DUP4 ADD DUP5 PUSH2 0x2A5E JUMP JUMPDEST SWAP3 SWAP2 POP POP JUMP JUMPDEST PUSH0 DUP1 PUSH0 DUP1 PUSH0 DUP1 PUSH0 DUP1 PUSH1 0xE0 DUP10 DUP12 SUB SLT ISZERO PUSH2 0x2AA2 JUMPI PUSH2 0x2AA1 PUSH2 0x26D3 JUMP JUMPDEST JUMPDEST PUSH0 PUSH2 0x2AAF DUP12 DUP3 DUP13 ADD PUSH2 0x26FA JUMP JUMPDEST SWAP9 POP POP PUSH1 0x20 PUSH2 0x2AC0 DUP12 DUP3 DUP13 ADD PUSH2 0x2754 JUMP JUMPDEST SWAP8 POP POP PUSH1 0x40 PUSH2 0x2AD1 DUP12 DUP3 DUP13 ADD PUSH2 0x2754 JUMP JUMPDEST SWAP7 POP POP PUSH1 0x60 PUSH2 0x2AE2 DUP12 DUP3 DUP13 ADD PUSH2 0x2754 JUMP JUMPDEST SWAP6 POP POP PUSH1 0x80 PUSH2 0x2AF3 DUP12 DUP3 DUP13 ADD PUSH2 0x2754 JUMP JUMPDEST SWAP5 POP POP PUSH1 0xA0 PUSH2 0x2B04 DUP12 DUP3 DUP13 ADD PUSH2 0x26FA JUMP JUMPDEST SWAP4 POP POP PUSH1 0xC0 DUP10 ADD CALLDATALOAD PUSH8 0xFFFFFFFFFFFFFFFF DUP2 GT ISZERO PUSH2 0x2B25 JUMPI PUSH2 0x2B24 PUSH2 0x26D7 JUMP JUMPDEST JUMPDEST PUSH2 0x2B31 DUP12 DUP3 DUP13 ADD PUSH2 0x2774 JUMP JUMPDEST SWAP3 POP SWAP3 POP POP SWAP3 SWAP6 SWAP9 POP SWAP3 SWAP6 SWAP9 SWAP1 SWAP4 SWAP7 POP JUMP JUMPDEST PUSH0 DUP1 PUSH0 DUP1 PUSH0 DUP1 PUSH0 PUSH1 0xC0 DUP9 DUP11 SUB SLT ISZERO PUSH2 0x2B5E JUMPI PUSH2 0x2B5D PUSH2 0x26D3 JUMP JUMPDEST JUMPDEST PUSH0 PUSH2 0x2B6B DUP11 DUP3 DUP12 ADD PUSH2 0x2754 JUMP JUMPDEST SWAP8 POP POP PUSH1 0x20 PUSH2 0x2B7C DUP11 DUP3 DUP12 ADD PUSH2 0x2754 JUMP JUMPDEST SWAP7 POP POP PUSH1 0x40 PUSH2 0x2B8D DUP11 DUP3 DUP12 ADD PUSH2 0x2754 JUMP JUMPDEST SWAP6 POP POP PUSH1 0x60 PUSH2 0x2B9E DUP11 DUP3 DUP12 ADD PUSH2 0x26FA JUMP JUMPDEST SWAP5 POP POP PUSH1 0x80 PUSH2 0x2BAF DUP11 DUP3 DUP12 ADD PUSH2 0x2930 JUMP JUMPDEST SWAP4 POP POP PUSH1 0xA0 DUP9 ADD CALLDATALOAD PUSH8 0xFFFFFFFFFFFFFFFF DUP2 GT ISZERO PUSH2 0x2BD0 JUMPI PUSH2 0x2BCF PUSH2 0x26D7 JUMP JUMPDEST JUMPDEST PUSH2 0x2BDC DUP11 DUP3 DUP12 ADD PUSH2 0x2774 JUMP JUMPDEST SWAP3 POP SWAP3 POP POP SWAP3 SWAP6 SWAP9 SWAP2 SWAP5 SWAP8 POP SWAP3 SWAP6 POP JUMP JUMPDEST PUSH0 DUP1 PUSH0 DUP1 PUSH1 0x60 DUP6 DUP8 SUB SLT ISZERO PUSH2 0x2C05 JUMPI PUSH2 0x2C04 PUSH2 0x26D3 JUMP JUMPDEST JUMPDEST PUSH0 PUSH2 0x2C12 DUP8 DUP3 DUP9 ADD PUSH2 0x26FA JUMP JUMPDEST SWAP5 POP POP PUSH1 0x20 PUSH2 0x2C23 DUP8 DUP3 DUP9 ADD PUSH2 0x2930 JUMP JUMPDEST SWAP4 POP POP PUSH1 0x40 DUP6 ADD CALLDATALOAD PUSH8 0xFFFFFFFFFFFFFFFF DUP2 GT ISZERO PUSH2 0x2C44 JUMPI PUSH2 0x2C43 PUSH2 0x26D7 JUMP JUMPDEST JUMPDEST PUSH2 0x2C50 DUP8 DUP3 DUP9 ADD PUSH2 0x2774 JUMP JUMPDEST SWAP3 POP SWAP3 POP POP SWAP3 SWAP6 SWAP2 SWAP5 POP SWAP3 POP JUMP JUMPDEST PUSH0 DUP1 PUSH0 DUP1 PUSH1 0x60 DUP6 DUP8 SUB SLT ISZERO PUSH2 0x2C76 JUMPI PUSH2 0x2C75 PUSH2 0x26D3 JUMP JUMPDEST JUMPDEST PUSH0 PUSH2 0x2C83 DUP8 DUP3 DUP9 ADD PUSH2 0x2754 JUMP JUMPDEST SWAP5 POP POP PUSH1 0x20 PUSH2 0x2C94 DUP8 DUP3 DUP9 ADD PUSH2 0x2930 JUMP JUMPDEST SWAP4 POP POP PUSH1 0x40 DUP6 ADD CALLDATALOAD PUSH8 0xFFFFFFFFFFFFFFFF DUP2 GT ISZERO PUSH2 0x2CB5 JUMPI PUSH2 0x2CB4 PUSH2 0x26D7 JUMP JUMPDEST JUMPDEST PUSH2 0x2CC1 DUP8 DUP3 DUP9 ADD PUSH2 0x2774 JUMP JUMPDEST SWAP3 POP SWAP3 POP POP SWAP3 SWAP6 SWAP2 SWAP5 POP SWAP3 POP JUMP JUMPDEST PUSH0 DUP1 PUSH0 DUP1 PUSH0 DUP1 PUSH0 PUSH1 0xC0 DUP9 DUP11 SUB SLT ISZERO PUSH2 0x2CEA JUMPI PUSH2 0x2CE9 PUSH2 0x26D3 JUMP JUMPDEST JUMPDEST PUSH0 PUSH2 0x2CF7 DUP11 DUP3 DUP12 ADD PUSH2 0x26FA JUMP JUMPDEST SWAP8 POP POP PUSH1 0x20 PUSH2 0x2D08 DUP11 DUP3 DUP12 ADD PUSH2 0x2754 JUMP JUMPDEST SWAP7 POP POP PUSH1 0x40 PUSH2 0x2D19 DUP11 DUP3 DUP12 ADD PUSH2 0x2754 JUMP JUMPDEST SWAP6 POP POP PUSH1 0x60 PUSH2 0x2D2A DUP11 DUP3 DUP12 ADD PUSH2 0x26FA JUMP JUMPDEST SWAP5 POP POP PUSH1 0x80 PUSH2 0x2D3B DUP11 DUP3 DUP12 ADD PUSH2 0x2930 JUMP JUMPDEST SWAP4 POP POP PUSH1 0xA0 DUP9 ADD CALLDATALOAD PUSH8 0xFFFFFFFFFFFFFFFF DUP2 GT ISZERO PUSH2 0x2D5C JUMPI PUSH2 0x2D5B PUSH2 0x26D7 JUMP JUMPDEST JUMPDEST PUSH2 0x2D68 DUP11 DUP3 DUP12 ADD PUSH2 0x2774 JUMP JUMPDEST SWAP3 POP SWAP3 POP POP SWAP3 SWAP6 SWAP9 SWAP2 SWAP5 SWAP8 POP SWAP3 SWAP6 POP JUMP JUMPDEST PUSH0 DUP1 PUSH0 DUP1 PUSH0 DUP1 PUSH0 PUSH1 0xC0 DUP9 DUP11 SUB SLT ISZERO PUSH2 0x2D94 JUMPI PUSH2 0x2D93 PUSH2 0x26D3 JUMP JUMPDEST JUMPDEST PUSH0 PUSH2 0x2DA1 DUP11 DUP3 DUP12 ADD PUSH2 0x2754 JUMP JUMPDEST SWAP8 POP POP PUSH1 0x20 PUSH2 0x2DB2 DUP11 DUP3 DUP12 ADD PUSH2 0x2754 JUMP JUMPDEST SWAP7 POP POP PUSH1 0x40 PUSH2 0x2DC3 DUP11 DUP3 DUP12 ADD PUSH2 0x2754 JUMP JUMPDEST SWAP6 POP POP PUSH1 0x60 PUSH2 0x2DD4 DUP11 DUP3 DUP12 ADD PUSH2 0x2754 JUMP JUMPDEST SWAP5 POP POP PUSH1 0x80 PUSH2 0x2DE5 DUP11 DUP3 DUP12 ADD PUSH2 0x26FA JUMP JUMPDEST SWAP4 POP POP PUSH1 0xA0 DUP9 ADD CALLDATALOAD PUSH8 0xFFFFFFFFFFFFFFFF DUP2 GT ISZERO PUSH2 0x2E06 JUMPI PUSH2 0x2E05 PUSH2 0x26D7 JUMP JUMPDEST JUMPDEST PUSH2 0x2E12 DUP11 DUP3 DUP12 ADD PUSH2 0x2774 JUMP JUMPDEST SWAP3 POP SWAP3 POP POP SWAP3 SWAP6 SWAP9 SWAP2 SWAP5 SWAP8 POP SWAP3 SWAP6 POP JUMP JUMPDEST PUSH0 DUP1 PUSH0 PUSH1 0x40 DUP5 DUP7 SUB SLT ISZERO PUSH2 0x2E3A JUMPI PUSH2 0x2E39 PUSH2 0x26D3 JUMP JUMPDEST JUMPDEST PUSH0 PUSH2 0x2E47 DUP7 DUP3 DUP8 ADD PUSH2 0x2930 JUMP JUMPDEST SWAP4 POP POP PUSH1 0x20 DUP5 ADD CALLDATALOAD PUSH8 0xFFFFFFFFFFFFFFFF DUP2 GT ISZERO PUSH2 0x2E68 JUMPI PUSH2 0x2E67 PUSH2 0x26D7 JUMP JUMPDEST JUMPDEST PUSH2 0x2E74 DUP7 DUP3 DUP8 ADD PUSH2 0x2774 JUMP JUMPDEST SWAP3 POP SWAP3 POP POP SWAP3 POP SWAP3 POP SWAP3 JUMP JUMPDEST PUSH0 DUP1 PUSH0 DUP1 PUSH0 DUP1 PUSH0 DUP1 PUSH1 0xE0 DUP10 DUP12 SUB SLT ISZERO PUSH2 0x2E9C JUMPI PUSH2 0x2E9B PUSH2 0x26D3 JUMP JUMPDEST JUMPDEST PUSH0 PUSH2 0x2EA9 DUP12 DUP3 DUP13 ADD PUSH2 0x26FA JUMP JUMPDEST SWAP9 POP POP PUSH1 0x20 PUSH2 0x2EBA DUP12 DUP3 DUP13 ADD PUSH2 0x2754 JUMP JUMPDEST SWAP8 POP POP PUSH1 0x40 PUSH2 0x2ECB DUP12 DUP3 DUP13 ADD PUSH2 0x2754 JUMP JUMPDEST SWAP7 POP POP PUSH1 0x60 PUSH2 0x2EDC DUP12 DUP3 DUP13 ADD PUSH2 0x2754 JUMP JUMPDEST SWAP6 POP POP PUSH1 0x80 PUSH2 0x2EED DUP12 DUP3 DUP13 ADD PUSH2 0x26FA JUMP JUMPDEST SWAP5 POP POP PUSH1 0xA0 PUSH2 0x2EFE DUP12 DUP3 DUP13 ADD PUSH2 0x2930 JUMP JUMPDEST SWAP4 POP POP PUSH1 0xC0 DUP10 ADD CALLDATALOAD PUSH8 0xFFFFFFFFFFFFFFFF DUP2 GT ISZERO PUSH2 0x2F1F JUMPI PUSH2 0x2F1E PUSH2 0x26D7 JUMP JUMPDEST JUMPDEST PUSH2 0x2F2B DUP12 DUP3 DUP13 ADD PUSH2 0x2774 JUMP JUMPDEST SWAP3 POP SWAP3 POP POP SWAP3 SWAP6 SWAP9 POP SWAP3 SWAP6 SWAP9 SWAP1 SWAP4 SWAP7 POP JUMP JUMPDEST PUSH0 DUP1 PUSH0 PUSH1 0x60 DUP5 DUP7 SUB SLT ISZERO PUSH2 0x2F54 JUMPI PUSH2 0x2F53 PUSH2 0x26D3 JUMP JUMPDEST JUMPDEST PUSH0 PUSH2 0x2F61 DUP7 DUP3 DUP8 ADD PUSH2 0x2754 JUMP JUMPDEST SWAP4 POP POP PUSH1 0x20 PUSH2 0x2F72 DUP7 DUP3 DUP8 ADD PUSH2 0x26FA JUMP JUMPDEST SWAP3 POP POP PUSH1 0x40 PUSH2 0x2F83 DUP7 DUP3 DUP8 ADD PUSH2 0x2754 JUMP JUMPDEST SWAP2 POP POP SWAP3 POP SWAP3 POP SWAP3 JUMP JUMPDEST PUSH0 DUP1 PUSH0 DUP1 PUSH1 0x80 DUP6 DUP8 SUB SLT ISZERO PUSH2 0x2FA5 JUMPI PUSH2 0x2FA4 PUSH2 0x26D3 JUMP JUMPDEST JUMPDEST PUSH0 PUSH2 0x2FB2 DUP8 DUP3 DUP9 ADD PUSH2 0x2754 JUMP JUMPDEST SWAP5 POP POP PUSH1 0x20 PUSH2 0x2FC3 DUP8 DUP3 DUP9 ADD PUSH2 0x2754 JUMP JUMPDEST SWAP4 POP POP PUSH1 0x40 PUSH2 0x2FD4 DUP8 DUP3 DUP9 ADD PUSH2 0x2754 JUMP JUMPDEST SWAP3 POP POP PUSH1 0x60 PUSH2 0x2FE5 DUP8 DUP3 DUP9 ADD PUSH2 0x2754 JUMP JUMPDEST SWAP2 POP POP SWAP3 SWAP6 SWAP2 SWAP5 POP SWAP3 POP JUMP JUMPDEST PUSH0 DUP3 DUP3 MSTORE PUSH1 0x20 DUP3 ADD SWAP1 POP SWAP3 SWAP2 POP POP JUMP JUMPDEST PUSH32 0x4F564D5F58434841494E3A206D657373656E67657220636F6E74726163742075 PUSH0 DUP3 ADD MSTORE PUSH32 0x6E61757468656E74696361746564000000000000000000000000000000000000 PUSH1 0x20 DUP3 ADD MSTORE POP JUMP JUMPDEST PUSH0 PUSH2 0x305B PUSH1 0x2E DUP4 PUSH2 0x2FF1 JUMP JUMPDEST SWAP2 POP PUSH2 0x3066 DUP3 PUSH2 0x3001 JUMP JUMPDEST PUSH1 0x40 DUP3 ADD SWAP1 POP SWAP2 SWAP1 POP JUMP JUMPDEST PUSH0 PUSH1 0x20 DUP3 ADD SWAP1 POP DUP2 DUP2 SUB PUSH0 DUP4 ADD MSTORE PUSH2 0x3088 DUP2 PUSH2 0x304F JUMP JUMPDEST SWAP1 POP SWAP2 SWAP1 POP JUMP JUMPDEST PUSH0 DUP2 MLOAD SWAP1 POP PUSH2 0x309D DUP2 PUSH2 0x273E JUMP JUMPDEST SWAP3 SWAP2 POP POP JUMP JUMPDEST PUSH0 PUSH1 0x20 DUP3 DUP5 SUB SLT ISZERO PUSH2 0x30B8 JUMPI PUSH2 0x30B7 PUSH2 0x26D3 JUMP JUMPDEST JUMPDEST PUSH0 PUSH2 0x30C5 DUP5 DUP3 DUP6 ADD PUSH2 0x308F JUMP JUMPDEST SWAP2 POP POP SWAP3 SWAP2 POP POP JUMP JUMPDEST PUSH32 0x4F564D5F58434841494E3A2077726F6E672073656E646572206F662063726F73 PUSH0 DUP3 ADD MSTORE PUSH32 0x732D646F6D61696E206D65737361676500000000000000000000000000000000 PUSH1 0x20 DUP3 ADD MSTORE POP JUMP JUMPDEST PUSH0 PUSH2 0x3128 PUSH1 0x30 DUP4 PUSH2 0x2FF1 JUMP JUMPDEST SWAP2 POP PUSH2 0x3133 DUP3 PUSH2 0x30CE JUMP JUMPDEST PUSH1 0x40 DUP3 ADD SWAP1 POP SWAP2 SWAP1 POP JUMP JUMPDEST PUSH0 PUSH1 0x20 DUP3 ADD SWAP1 POP DUP2 DUP2 SUB PUSH0 DUP4 ADD MSTORE PUSH2 0x3155 DUP2 PUSH2 0x311C JUMP JUMPDEST SWAP1 POP SWAP2 SWAP1 POP JUMP JUMPDEST PUSH32 0x4E487B7100000000000000000000000000000000000000000000000000000000 PUSH0 MSTORE PUSH1 0x41 PUSH1 0x4 MSTORE PUSH1 0x24 PUSH0 REVERT JUMPDEST PUSH0 DUP2 MLOAD SWAP1 POP SWAP2 SWAP1 POP JUMP JUMPDEST PUSH0 DUP2 SWAP1 POP SWAP3 SWAP2 POP POP JUMP JUMPDEST DUP3 DUP2 DUP4 MCOPY PUSH0 DUP4 DUP4 ADD MSTORE POP POP POP JUMP JUMPDEST PUSH0 PUSH2 0x31B5 DUP3 PUSH2 0x3189 JUMP JUMPDEST PUSH2 0x31BF DUP2 DUP6 PUSH2 0x3193 JUMP JUMPDEST SWAP4 POP PUSH2 0x31CF DUP2 DUP6 PUSH1 0x20 DUP7 ADD PUSH2 0x319D JUMP JUMPDEST DUP1 DUP5 ADD SWAP2 POP POP SWAP3 SWAP2 POP POP JUMP JUMPDEST PUSH0 PUSH2 0x31E6 DUP3 DUP5 PUSH2 0x31AB JUMP JUMPDEST SWAP2 POP DUP2 SWAP1 POP SWAP3 SWAP2 POP POP JUMP JUMPDEST PUSH32 0x5472616E7366657248656C7065723A3A736166655472616E736665724554483A PUSH0 DUP3 ADD MSTORE PUSH32 0x20455448207472616E73666572206661696C6564000000000000000000000000 PUSH1 0x20 DUP3 ADD MSTORE POP JUMP JUMPDEST PUSH0 PUSH2 0x324B PUSH1 0x34 DUP4 PUSH2 0x2FF1 JUMP JUMPDEST SWAP2 POP PUSH2 0x3256 DUP3 PUSH2 0x31F1 JUMP JUMPDEST PUSH1 0x40 DUP3 ADD SWAP1 POP SWAP2 SWAP1 POP JUMP JUMPDEST PUSH0 PUSH1 0x20 DUP3 ADD SWAP1 POP DUP2 DUP2 SUB PUSH0 DUP4 ADD MSTORE PUSH2 0x3278 DUP2 PUSH2 0x323F JUMP JUMPDEST SWAP1 POP SWAP2 SWAP1 POP JUMP JUMPDEST PUSH0 DUP3 DUP3 MSTORE PUSH1 0x20 DUP3 ADD SWAP1 POP SWAP3 SWAP2 POP POP JUMP JUMPDEST DUP3 DUP2 DUP4 CALLDATACOPY PUSH0 DUP4 DUP4 ADD MSTORE POP POP POP JUMP JUMPDEST PUSH0 PUSH1 0x1F NOT PUSH1 0x1F DUP4 ADD AND SWAP1 POP SWAP2 SWAP1 POP JUMP JUMPDEST PUSH0 PUSH2 0x32B8 DUP4 DUP6 PUSH2 0x327F JUMP JUMPDEST SWAP4 POP PUSH2 0x32C5 DUP4 DUP6 DUP5 PUSH2 0x328F JUMP JUMPDEST PUSH2 0x32CE DUP4 PUSH2 0x329D JUMP JUMPDEST DUP5 ADD SWAP1 POP SWAP4 SWAP3 POP POP POP JUMP JUMPDEST PUSH0 PUSH1 0x60 DUP3 ADD SWAP1 POP PUSH2 0x32EC PUSH0 DUP4 ADD DUP8 PUSH2 0x2A5E JUMP JUMPDEST DUP2 DUP2 SUB PUSH1 0x20 DUP4 ADD MSTORE PUSH2 0x32FF DUP2 DUP6 DUP8 PUSH2 0x32AD JUMP JUMPDEST SWAP1 POP PUSH2 0x330E PUSH1 0x40 DUP4 ADD DUP5 PUSH2 0x2A5E JUMP JUMPDEST SWAP6 SWAP5 POP POP POP POP POP JUMP JUMPDEST PUSH32 0x4163636F756E74206E6F7420454F410000000000000000000000000000000000 PUSH0 DUP3 ADD MSTORE POP JUMP JUMPDEST PUSH0 PUSH2 0x334B PUSH1 0xF DUP4 PUSH2 0x2FF1 JUMP JUMPDEST SWAP2 POP PUSH2 0x3356 DUP3 PUSH2 0x3317 JUMP JUMPDEST PUSH1 0x20 DUP3 ADD SWAP1 POP SWAP2 SWAP1 POP JUMP JUMPDEST PUSH0 PUSH1 0x20 DUP3 ADD SWAP1 POP DUP2 DUP2 SUB PUSH0 DUP4 ADD MSTORE PUSH2 0x3378 DUP2 PUSH2 0x333F JUMP JUMPDEST SWAP1 POP SWAP2 SWAP1 POP JUMP JUMPDEST PUSH32 0x436F6E74726163742068617320616C7265616479206265656E20696E69746961 PUSH0 DUP3 ADD MSTORE PUSH32 0x6C697A65642E0000000000000000000000000000000000000000000000000000 PUSH1 0x20 DUP3 ADD MSTORE POP JUMP JUMPDEST PUSH0 PUSH2 0x33D9 PUSH1 0x26 DUP4 PUSH2 0x2FF1 JUMP JUMPDEST SWAP2 POP PUSH2 0x33E4 DUP3 PUSH2 0x337F JUMP JUMPDEST PUSH1 0x40 DUP3 ADD SWAP1 POP SWAP2 SWAP1 POP JUMP JUMPDEST PUSH0 PUSH1 0x20 DUP3 ADD SWAP1 POP DUP2 DUP2 SUB PUSH0 DUP4 ADD MSTORE PUSH2 0x3406 DUP2 PUSH2 0x33CD JUMP JUMPDEST SWAP1 POP SWAP2 SWAP1 POP JUMP JUMPDEST PUSH32 0x5265656E7472616E637947756172643A207265656E7472616E742063616C6C00 PUSH0 DUP3 ADD MSTORE POP JUMP JUMPDEST PUSH0 PUSH2 0x3441 PUSH1 0x1F DUP4 PUSH2 0x2FF1 JUMP JUMPDEST SWAP2 POP PUSH2 0x344C DUP3 PUSH2 0x340D JUMP JUMPDEST PUSH1 0x20 DUP3 ADD SWAP1 POP SWAP2 SWAP1 POP JUMP JUMPDEST PUSH0 PUSH1 0x20 DUP3 ADD SWAP1 POP DUP2 DUP2 SUB PUSH0 DUP4 ADD MSTORE PUSH2 0x346E DUP2 PUSH2 0x3435 JUMP JUMPDEST SWAP1 POP SWAP2 SWAP1 POP JUMP JUMPDEST PUSH32 0x4D564D5F446973636F756E744F7261636C650000000000000000000000000000 PUSH0 DUP3 ADD MSTORE POP JUMP JUMPDEST PUSH0 PUSH2 0x34A9 PUSH1 0x12 DUP4 PUSH2 0x2FF1 JUMP JUMPDEST SWAP2 POP PUSH2 0x34B4 DUP3 PUSH2 0x3475 JUMP JUMPDEST PUSH1 0x20 DUP3 ADD SWAP1 POP SWAP2 SWAP1 POP JUMP JUMPDEST PUSH0 PUSH1 0x20 DUP3 ADD SWAP1 POP DUP2 DUP2 SUB PUSH0 DUP4 ADD MSTORE PUSH2 0x34D6 DUP2 PUSH2 0x349D JUMP JUMPDEST SWAP1 POP SWAP2 SWAP1 POP JUMP JUMPDEST PUSH0 DUP2 MLOAD SWAP1 POP PUSH2 0x34EB DUP2 PUSH2 0x26E4 JUMP JUMPDEST SWAP3 SWAP2 POP POP JUMP JUMPDEST PUSH0 PUSH1 0x20 DUP3 DUP5 SUB SLT ISZERO PUSH2 0x3506 JUMPI PUSH2 0x3505 PUSH2 0x26D3 JUMP JUMPDEST JUMPDEST PUSH0 PUSH2 0x3513 DUP5 DUP3 DUP6 ADD PUSH2 0x34DD JUMP JUMPDEST SWAP2 POP POP SWAP3 SWAP2 POP POP JUMP JUMPDEST PUSH32 0x4E487B7100000000000000000000000000000000000000000000000000000000 PUSH0 MSTORE PUSH1 0x11 PUSH1 0x4 MSTORE PUSH1 0x24 PUSH0 REVERT JUMPDEST PUSH0 PUSH2 0x3553 DUP3 PUSH2 0x26DB JUMP JUMPDEST SWAP2 POP PUSH2 0x355E DUP4 PUSH2 0x26DB JUMP JUMPDEST SWAP3 POP DUP3 DUP3 MUL PUSH2 0x356C DUP2 PUSH2 0x26DB JUMP JUMPDEST SWAP2 POP DUP3 DUP3 DIV DUP5 EQ DUP4 ISZERO OR PUSH2 0x3583 JUMPI PUSH2 0x3582 PUSH2 0x351C JUMP JUMPDEST JUMPDEST POP SWAP3 SWAP2 POP POP JUMP JUMPDEST PUSH0 DUP2 SWAP1 POP SWAP3 SWAP2 POP POP JUMP JUMPDEST PUSH32 0x696E73756666696369656E742066656520737570706C6965642E2073656E6420 PUSH0 DUP3 ADD MSTORE PUSH32 0x6174206C65617374200000000000000000000000000000000000000000000000 PUSH1 0x20 DUP3 ADD MSTORE POP JUMP JUMPDEST PUSH0 PUSH2 0x35EE PUSH1 0x29 DUP4 PUSH2 0x358A JUMP JUMPDEST SWAP2 POP PUSH2 0x35F9 DUP3 PUSH2 0x3594 JUMP JUMPDEST PUSH1 0x29 DUP3 ADD SWAP1 POP SWAP2 SWAP1 POP JUMP JUMPDEST PUSH0 DUP2 MLOAD SWAP1 POP SWAP2 SWAP1 POP JUMP JUMPDEST PUSH0 PUSH2 0x3618 DUP3 PUSH2 0x3604 JUMP JUMPDEST PUSH2 0x3622 DUP2 DUP6 PUSH2 0x358A JUMP JUMPDEST SWAP4 POP PUSH2 0x3632 DUP2 DUP6 PUSH1 0x20 DUP7 ADD PUSH2 0x319D JUMP JUMPDEST DUP1 DUP5 ADD SWAP2 POP POP SWAP3 SWAP2 POP POP JUMP JUMPDEST PUSH0 PUSH2 0x3648 DUP3 PUSH2 0x35E2 JUMP JUMPDEST SWAP2 POP PUSH2 0x3654 DUP3 DUP5 PUSH2 0x360E JUMP JUMPDEST SWAP2 POP DUP2 SWAP1 POP SWAP3 SWAP2 POP POP JUMP JUMPDEST PUSH0 PUSH2 0x3669 DUP3 PUSH2 0x3604 JUMP JUMPDEST PUSH2 0x3673 DUP2 DUP6 PUSH2 0x2FF1 JUMP JUMPDEST SWAP4 POP PUSH2 0x3683 DUP2 DUP6 PUSH1 0x20 DUP7 ADD PUSH2 0x319D JUMP JUMPDEST PUSH2 0x368C DUP2 PUSH2 0x329D JUMP JUMPDEST DUP5 ADD SWAP2 POP POP SWAP3 SWAP2 POP POP JUMP JUMPDEST PUSH0 PUSH1 0x20 DUP3 ADD SWAP1 POP DUP2 DUP2 SUB PUSH0 DUP4 ADD MSTORE PUSH2 0x36AF DUP2 DUP5 PUSH2 0x365F JUMP JUMPDEST SWAP1 POP SWAP3 SWAP2 POP POP JUMP JUMPDEST PUSH0 PUSH2 0x36C1 DUP3 PUSH2 0x26DB JUMP JUMPDEST SWAP2 POP PUSH2 0x36CC DUP4 PUSH2 0x26DB JUMP JUMPDEST SWAP3 POP DUP3 DUP3 SUB SWAP1 POP DUP2 DUP2 GT ISZERO PUSH2 0x36E4 JUMPI PUSH2 0x36E3 PUSH2 0x351C JUMP JUMPDEST JUMPDEST SWAP3 SWAP2 POP POP JUMP JUMPDEST PUSH0 PUSH2 0x36F4 DUP3 PUSH2 0x3189 JUMP JUMPDEST PUSH2 0x36FE DUP2 DUP6 PUSH2 0x327F JUMP JUMPDEST SWAP4 POP PUSH2 0x370E DUP2 DUP6 PUSH1 0x20 DUP7 ADD PUSH2 0x319D JUMP JUMPDEST PUSH2 0x3717 DUP2 PUSH2 0x329D JUMP JUMPDEST DUP5 ADD SWAP2 POP POP SWAP3 SWAP2 POP POP JUMP JUMPDEST PUSH0 PUSH1 0xC0 DUP3 ADD SWAP1 POP PUSH2 0x3735 PUSH0 DUP4 ADD DUP10 PUSH2 0x28E3 JUMP JUMPDEST PUSH2 0x3742 PUSH1 0x20 DUP4 ADD DUP9 PUSH2 0x28E3 JUMP JUMPDEST PUSH2 0x374F PUSH1 0x40 DUP4 ADD DUP8 PUSH2 0x28E3 JUMP JUMPDEST PUSH2 0x375C PUSH1 0x60 DUP4 ADD DUP7 PUSH2 0x28E3 JUMP JUMPDEST PUSH2 0x3769 PUSH1 0x80 DUP4 ADD DUP6 PUSH2 0x2A5E JUMP JUMPDEST DUP2 DUP2 SUB PUSH1 0xA0 DUP4 ADD MSTORE PUSH2 0x377B DUP2 DUP5 PUSH2 0x36EA JUMP JUMPDEST SWAP1 POP SWAP8 SWAP7 POP POP POP POP POP POP POP JUMP JUMPDEST PUSH0 PUSH1 0x60 DUP3 ADD SWAP1 POP PUSH2 0x379B PUSH0 DUP4 ADD DUP7 PUSH2 0x2A5E JUMP JUMPDEST DUP2 DUP2 SUB PUSH1 0x20 DUP4 ADD MSTORE PUSH2 0x37AD DUP2 DUP6 PUSH2 0x36EA JUMP JUMPDEST SWAP1 POP PUSH2 0x37BC PUSH1 0x40 DUP4 ADD DUP5 PUSH2 0x2A5E JUMP JUMPDEST SWAP5 SWAP4 POP POP POP POP JUMP JUMPDEST PUSH0 PUSH1 0xC0 DUP3 ADD SWAP1 POP PUSH2 0x37D7 PUSH0 DUP4 ADD DUP11 PUSH2 0x28E3 JUMP JUMPDEST PUSH2 0x37E4 PUSH1 0x20 DUP4 ADD DUP10 PUSH2 0x28E3 JUMP JUMPDEST PUSH2 0x37F1 PUSH1 0x40 DUP4 ADD DUP9 PUSH2 0x28E3 JUMP JUMPDEST PUSH2 0x37FE PUSH1 0x60 DUP4 ADD DUP8 PUSH2 0x28E3 JUMP JUMPDEST PUSH2 0x380B PUSH1 0x80 DUP4 ADD DUP7 PUSH2 0x2A5E JUMP JUMPDEST DUP2 DUP2 SUB PUSH1 0xA0 DUP4 ADD MSTORE PUSH2 0x381E DUP2 DUP5 DUP7 PUSH2 0x32AD JUMP JUMPDEST SWAP1 POP SWAP9 SWAP8 POP POP POP POP POP POP POP POP JUMP JUMPDEST PUSH0 PUSH2 0x3836 DUP3 PUSH2 0x26DB JUMP JUMPDEST SWAP2 POP PUSH2 0x3841 DUP4 PUSH2 0x26DB JUMP JUMPDEST SWAP3 POP DUP3 DUP3 ADD SWAP1 POP DUP1 DUP3 GT ISZERO PUSH2 0x3859 JUMPI PUSH2 0x3858 PUSH2 0x351C JUMP JUMPDEST JUMPDEST SWAP3 SWAP2 POP POP JUMP JUMPDEST PUSH0 PUSH1 0x60 DUP3 ADD SWAP1 POP PUSH2 0x3872 PUSH0 DUP4 ADD DUP8 PUSH2 0x28E3 JUMP JUMPDEST PUSH2 0x387F PUSH1 0x20 DUP4 ADD DUP7 PUSH2 0x2A5E JUMP JUMPDEST DUP2 DUP2 SUB PUSH1 0x40 DUP4 ADD MSTORE PUSH2 0x3892 DUP2 DUP5 DUP7 PUSH2 0x32AD JUMP JUMPDEST SWAP1 POP SWAP6 SWAP5 POP POP POP POP POP JUMP JUMPDEST PUSH0 PUSH2 0x38A7 DUP3 PUSH2 0x26DB JUMP JUMPDEST SWAP2 POP PUSH32 0xFFFFFFFFFFFFFFFFFFFFFFFFFFFFFFFFFFFFFFFFFFFFFFFFFFFFFFFFFFFFFFFF DUP3 SUB PUSH2 0x38D9 JUMPI PUSH2 0x38D8 PUSH2 0x351C JUMP JUMPDEST JUMPDEST PUSH1 0x1 DUP3 ADD SWAP1 POP SWAP2 SWAP1 POP JUMP JUMPDEST PUSH32 0x4E487B7100000000000000000000000000000000000000000000000000000000 PUSH0 MSTORE PUSH1 0x12 PUSH1 0x4 MSTORE PUSH1 0x24 PUSH0 REVERT JUMPDEST PUSH0 PUSH2 0x391B DUP3 PUSH2 0x26DB JUMP JUMPDEST SWAP2 POP PUSH2 0x3926 DUP4 PUSH2 0x26DB JUMP JUMPDEST SWAP3 POP DUP3 PUSH2 0x3936 JUMPI PUSH2 0x3935 PUSH2 0x38E4 JUMP JUMPDEST JUMPDEST DUP3 DUP3 DIV SWAP1 POP SWAP3 SWAP2 POP POP JUMP JUMPDEST PUSH0 PUSH1 0xFF DUP3 AND SWAP1 POP SWAP2 SWAP1 POP JUMP JUMPDEST PUSH0 PUSH2 0x3957 DUP3 PUSH2 0x3941 JUMP JUMPDEST SWAP2 POP PUSH2 0x3962 DUP4 PUSH2 0x3941 JUMP JUMPDEST SWAP3 POP DUP3 DUP3 ADD SWAP1 POP PUSH1 0xFF DUP2 GT ISZERO PUSH2 0x397B JUMPI PUSH2 0x397A PUSH2 0x351C JUMP JUMPDEST JUMPDEST SWAP3 SWAP2 POP POP JUMP JUMPDEST PUSH32 0x4E487B7100000000000000000000000000000000000000000000000000000000 PUSH0 MSTORE PUSH1 0x32 PUSH1 0x4 MSTORE PUSH1 0x24 PUSH0 REVERT JUMPDEST PUSH2 0x39B7 DUP2 PUSH2 0x290B JUMP JUMPDEST DUP3 MSTORE POP POP JUMP JUMPDEST PUSH0 PUSH1 0x80 DUP3 ADD SWAP1 POP PUSH2 0x39D0 PUSH0 DUP4 ADD DUP8 PUSH2 0x2A5E JUMP JUMPDEST PUSH2 0x39DD PUSH1 0x20 DUP4 ADD DUP7 PUSH2 0x28E3 JUMP JUMPDEST DUP2 DUP2 SUB PUSH1 0x40 DUP4 ADD MSTORE PUSH2 0x39EF DUP2 DUP6 PUSH2 0x36EA JUMP JUMPDEST SWAP1 POP PUSH2 0x39FE PUSH1 0x60 DUP4 ADD DUP5 PUSH2 0x39AE JUMP JUMPDEST SWAP6 SWAP5 POP POP POP POP POP JUMP JUMPDEST PUSH0 PUSH1 0x60 DUP3 ADD SWAP1 POP PUSH2 0x3A1A PUSH0 DUP4 ADD DUP7 PUSH2 0x28E3 JUMP JUMPDEST PUSH2 0x3A27 PUSH1 0x20 DUP4 ADD DUP6 PUSH2 0x28E3 JUMP JUMPDEST PUSH2 0x3A34 PUSH1 0x40 DUP4 ADD DUP5 PUSH2 0x2A5E JUMP JUMPDEST SWAP5 SWAP4 POP POP POP POP JUMP JUMPDEST PUSH0 PUSH1 0x40 DUP3 ADD SWAP1 POP PUSH2 0x3A4F PUSH0 DUP4 ADD DUP6 PUSH2 0x28E3 JUMP JUMPDEST PUSH2 0x3A5C PUSH1 0x20 DUP4 ADD DUP5 PUSH2 0x2A5E JUMP JUMPDEST SWAP4 SWAP3 POP POP POP JUMP JUMPDEST PUSH0 DUP2 ISZERO ISZERO SWAP1 POP SWAP2 SWAP1 POP JUMP JUMPDEST PUSH2 0x3A77 DUP2 PUSH2 0x3A63 JUMP JUMPDEST DUP2 EQ PUSH2 0x3A81 JUMPI PUSH0 DUP1 REVERT JUMPDEST POP JUMP JUMPDEST PUSH0 DUP2 MLOAD SWAP1 POP PUSH2 0x3A92 DUP2 PUSH2 0x3A6E JUMP JUMPDEST SWAP3 SWAP2 POP POP JUMP JUMPDEST PUSH0 PUSH1 0x20 DUP3 DUP5 SUB SLT ISZERO PUSH2 0x3AAD JUMPI PUSH2 0x3AAC PUSH2 0x26D3 JUMP JUMPDEST JUMPDEST PUSH0 PUSH2 0x3ABA DUP5 DUP3 DUP6 ADD PUSH2 0x3A84 JUMP JUMPDEST SWAP2 POP POP SWAP3 SWAP2 POP POP JUMP INVALID LOG2 PUSH5 0x6970667358 0x22 SLT KECCAK256 PUSH6 0x91CBE90773B3 PUSH27 0xD83F467CF45DAEF32E2EA1AF18B8A6A59FD178D58731988E64736F PUSH13 0x634300081A0033000000000000 "
		},
		"gasEstimates": {
			"creation": {
				"codeDepositCost": "3019400",
				"executionCost": "49700",
				"totalCost": "3069100"
			},
			"external": {
				"DEFAULT_CHAINID()": "370",
				"addressmgr()": "2576",
				"depositERC20(address,address,uint256,uint32,bytes)": "infinite",
				"depositERC20ByChainId(uint256,address,address,uint256,uint32,bytes)": "infinite",
				"depositERC20To(address,address,address,uint256,uint32,bytes)": "infinite",
				"depositERC20ToByChainId(uint256,address,address,address,uint256,uint32,bytes)": "infinite",
				"depositETH(uint32,bytes)": "infinite",
				"depositETHByChainId(uint256,uint32,bytes)": "infinite",
				"depositETHTo(address,uint32,bytes)": "infinite",
				"depositETHToByChainId(uint256,address,uint32,bytes)": "infinite",
				"deposits(address,uint256,address)": "infinite",
				"donateETH()": "29441",
				"finalizeERC20Withdrawal(address,address,address,address,uint256,bytes)": "infinite",
				"finalizeERC20WithdrawalByChainId(uint256,address,address,address,address,uint256,bytes)": "infinite",
				"finalizeETHWithdrawal(address,address,uint256,bytes)": "infinite",
				"finalizeETHWithdrawalByChainId(uint256,address,address,uint256,bytes)": "infinite",
				"finalizeMetisWithdrawalByChainId(uint256,address,address,uint256,bytes)": "infinite",
				"initialize(address,address,address,address)": "infinite",
				"l2TokenBridge()": "2575",
				"messenger()": "2617",
				"metis()": "2574"
			},
			"internal": {
				"_finalizeERC20WithdrawalByChainId(uint256,address,address,address,address,uint256,bytes calldata)": "infinite",
				"_initiateERC20Deposit(address,address,address,address,uint256,uint32,bytes calldata)": "infinite",
				"_initiateERC20DepositByChainId(uint256,address,address,address,address,uint256,uint32,bytes calldata)": "infinite",
				"_initiateETHDeposit(address,address,uint32,bytes memory)": "infinite",
				"_initiateETHDepositByChainId(uint256,address,address,uint32,bytes memory)": "infinite",
				"uint2str(uint256)": "infinite"
			}
		},
		"methodIdentifiers": {
			"DEFAULT_CHAINID()": "5bbbb7ed",
			"addressmgr()": "153928f4",
			"depositERC20(address,address,uint256,uint32,bytes)": "58a997f6",
			"depositERC20ByChainId(uint256,address,address,uint256,uint32,bytes)": "a396a59c",
			"depositERC20To(address,address,address,uint256,uint32,bytes)": "838b2520",
			"depositERC20ToByChainId(uint256,address,address,address,uint256,uint32,bytes)": "ef808be2",
			"depositETH(uint32,bytes)": "b1a1a882",
			"depositETHByChainId(uint256,uint32,bytes)": "84e930f0",
			"depositETHTo(address,uint32,bytes)": "9a2ac6d5",
			"depositETHToByChainId(uint256,address,uint32,bytes)": "200997b3",
			"deposits(address,uint256,address)": "f4a13814",
			"donateETH()": "8b4c40b0",
			"finalizeERC20Withdrawal(address,address,address,address,uint256,bytes)": "a9f9e675",
			"finalizeERC20WithdrawalByChainId(uint256,address,address,address,address,uint256,bytes)": "6cebdc45",
			"finalizeETHWithdrawal(address,address,uint256,bytes)": "1532ec34",
			"finalizeETHWithdrawalByChainId(uint256,address,address,uint256,bytes)": "0546aaa9",
			"finalizeMetisWithdrawalByChainId(uint256,address,address,uint256,bytes)": "90a40a76",
			"initialize(address,address,address,address)": "f8c8765e",
			"l2TokenBridge()": "91c49bf8",
			"messenger()": "3cb747bf",
			"metis()": "e5974554"
		}
	},
	"abi": [
		{
			"inputs": [],
			"stateMutability": "nonpayable",
			"type": "constructor"
		},
		{
			"inputs": [
				{
					"internalType": "address",
					"name": "target",
					"type": "address"
				}
			],
			"name": "AddressEmptyCode",
			"type": "error"
		},
		{
			"inputs": [
				{
					"internalType": "address",
					"name": "account",
					"type": "address"
				}
			],
			"name": "AddressInsufficientBalance",
			"type": "error"
		},
		{
			"inputs": [],
			"name": "FailedInnerCall",
			"type": "error"
		},
		{
			"inputs": [
				{
					"internalType": "address",
					"name": "token",
					"type": "address"
				}
			],
			"name": "SafeERC20FailedOperation",
			"type": "error"
		},
		{
			"anonymous": false,
			"inputs": [
				{
					"indexed": false,
					"internalType": "uint256",
					"name": "_chainid",
					"type": "uint256"
				}
			],
			"name": "ERC20ChainID",
			"type": "event"
		},
		{
			"anonymous": false,
			"inputs": [
				{
					"indexed": true,
					"internalType": "address",
					"name": "_l1Token",
					"type": "address"
				},
				{
					"indexed": true,
					"internalType": "address",
					"name": "_l2Token",
					"type": "address"
				},
				{
					"indexed": true,
					"internalType": "address",
					"name": "_from",
					"type": "address"
				},
				{
					"indexed": false,
					"internalType": "address",
					"name": "_to",
					"type": "address"
				},
				{
					"indexed": false,
					"internalType": "uint256",
					"name": "_amount",
					"type": "uint256"
				},
				{
					"indexed": false,
					"internalType": "bytes",
					"name": "_data",
					"type": "bytes"
				}
			],
			"name": "ERC20DepositInitiated",
			"type": "event"
		},
		{
			"anonymous": false,
			"inputs": [
				{
					"indexed": true,
					"internalType": "address",
					"name": "_l1Token",
					"type": "address"
				},
				{
					"indexed": true,
					"internalType": "address",
					"name": "_l2Token",
					"type": "address"
				},
				{
					"indexed": true,
					"internalType": "address",
					"name": "_from",
					"type": "address"
				},
				{
					"indexed": false,
					"internalType": "address",
					"name": "_to",
					"type": "address"
				},
				{
					"indexed": false,
					"internalType": "uint256",
					"name": "_amount",
					"type": "uint256"
				},
				{
					"indexed": false,
					"internalType": "bytes",
					"name": "_data",
					"type": "bytes"
				}
			],
			"name": "ERC20WithdrawalFinalized",
			"type": "event"
		},
		{
			"anonymous": false,
			"inputs": [
				{
					"indexed": true,
					"internalType": "address",
					"name": "_from",
					"type": "address"
				},
				{
					"indexed": true,
					"internalType": "address",
					"name": "_to",
					"type": "address"
				},
				{
					"indexed": false,
					"internalType": "uint256",
					"name": "_amount",
					"type": "uint256"
				},
				{
					"indexed": false,
					"internalType": "bytes",
					"name": "_data",
					"type": "bytes"
				},
				{
					"indexed": false,
					"internalType": "uint256",
					"name": "chainId",
					"type": "uint256"
				}
			],
			"name": "ETHDepositInitiated",
			"type": "event"
		},
		{
			"anonymous": false,
			"inputs": [
				{
					"indexed": true,
					"internalType": "address",
					"name": "_from",
					"type": "address"
				},
				{
					"indexed": true,
					"internalType": "address",
					"name": "_to",
					"type": "address"
				},
				{
					"indexed": false,
					"internalType": "uint256",
					"name": "_amount",
					"type": "uint256"
				},
				{
					"indexed": false,
					"internalType": "bytes",
					"name": "_data",
					"type": "bytes"
				},
				{
					"indexed": false,
					"internalType": "uint256",
					"name": "chainId",
					"type": "uint256"
				}
			],
			"name": "ETHWithdrawalFinalized",
			"type": "event"
		},
		{
			"inputs": [],
			"name": "DEFAULT_CHAINID",
			"outputs": [
				{
					"internalType": "uint256",
					"name": "",
					"type": "uint256"
				}
			],
			"stateMutability": "view",
			"type": "function"
		},
		{
			"inputs": [],
			"name": "addressmgr",
			"outputs": [
				{
					"internalType": "address",
					"name": "",
					"type": "address"
				}
			],
			"stateMutability": "view",
			"type": "function"
		},
		{
			"inputs": [
				{
					"internalType": "address",
					"name": "_l1Token",
					"type": "address"
				},
				{
					"internalType": "address",
					"name": "_l2Token",
					"type": "address"
				},
				{
					"internalType": "uint256",
					"name": "_amount",
					"type": "uint256"
				},
				{
					"internalType": "uint32",
					"name": "_l2Gas",
					"type": "uint32"
				},
				{
					"internalType": "bytes",
					"name": "_data",
					"type": "bytes"
				}
			],
			"name": "depositERC20",
			"outputs": [],
			"stateMutability": "nonpayable",
			"type": "function"
		},
		{
			"inputs": [
				{
					"internalType": "uint256",
					"name": "_chainid",
					"type": "uint256"
				},
				{
					"internalType": "address",
					"name": "_l1Token",
					"type": "address"
				},
				{
					"internalType": "address",
					"name": "_l2Token",
					"type": "address"
				},
				{
					"internalType": "uint256",
					"name": "_amount",
					"type": "uint256"
				},
				{
					"internalType": "uint32",
					"name": "_l2Gas",
					"type": "uint32"
				},
				{
					"internalType": "bytes",
					"name": "_data",
					"type": "bytes"
				}
			],
			"name": "depositERC20ByChainId",
			"outputs": [],
			"stateMutability": "payable",
			"type": "function"
		},
		{
			"inputs": [
				{
					"internalType": "address",
					"name": "_l1Token",
					"type": "address"
				},
				{
					"internalType": "address",
					"name": "_l2Token",
					"type": "address"
				},
				{
					"internalType": "address",
					"name": "_to",
					"type": "address"
				},
				{
					"internalType": "uint256",
					"name": "_amount",
					"type": "uint256"
				},
				{
					"internalType": "uint32",
					"name": "_l2Gas",
					"type": "uint32"
				},
				{
					"internalType": "bytes",
					"name": "_data",
					"type": "bytes"
				}
			],
			"name": "depositERC20To",
			"outputs": [],
			"stateMutability": "nonpayable",
			"type": "function"
		},
		{
			"inputs": [
				{
					"internalType": "uint256",
					"name": "_chainid",
					"type": "uint256"
				},
				{
					"internalType": "address",
					"name": "_l1Token",
					"type": "address"
				},
				{
					"internalType": "address",
					"name": "_l2Token",
					"type": "address"
				},
				{
					"internalType": "address",
					"name": "_to",
					"type": "address"
				},
				{
					"internalType": "uint256",
					"name": "_amount",
					"type": "uint256"
				},
				{
					"internalType": "uint32",
					"name": "_l2Gas",
					"type": "uint32"
				},
				{
					"internalType": "bytes",
					"name": "_data",
					"type": "bytes"
				}
			],
			"name": "depositERC20ToByChainId",
			"outputs": [],
			"stateMutability": "payable",
			"type": "function"
		},
		{
			"inputs": [
				{
					"internalType": "uint32",
					"name": "_l2Gas",
					"type": "uint32"
				},
				{
					"internalType": "bytes",
					"name": "_data",
					"type": "bytes"
				}
			],
			"name": "depositETH",
			"outputs": [],
			"stateMutability": "payable",
			"type": "function"
		},
		{
			"inputs": [
				{
					"internalType": "uint256",
					"name": "_chainId",
					"type": "uint256"
				},
				{
					"internalType": "uint32",
					"name": "_l2Gas",
					"type": "uint32"
				},
				{
					"internalType": "bytes",
					"name": "_data",
					"type": "bytes"
				}
			],
			"name": "depositETHByChainId",
			"outputs": [],
			"stateMutability": "payable",
			"type": "function"
		},
		{
			"inputs": [
				{
					"internalType": "address",
					"name": "_to",
					"type": "address"
				},
				{
					"internalType": "uint32",
					"name": "_l2Gas",
					"type": "uint32"
				},
				{
					"internalType": "bytes",
					"name": "_data",
					"type": "bytes"
				}
			],
			"name": "depositETHTo",
			"outputs": [],
			"stateMutability": "payable",
			"type": "function"
		},
		{
			"inputs": [
				{
					"internalType": "uint256",
					"name": "_chainId",
					"type": "uint256"
				},
				{
					"internalType": "address",
					"name": "_to",
					"type": "address"
				},
				{
					"internalType": "uint32",
					"name": "_l2Gas",
					"type": "uint32"
				},
				{
					"internalType": "bytes",
					"name": "_data",
					"type": "bytes"
				}
			],
			"name": "depositETHToByChainId",
			"outputs": [],
			"stateMutability": "payable",
			"type": "function"
		},
		{
			"inputs": [
				{
					"internalType": "address",
					"name": "",
					"type": "address"
				},
				{
					"internalType": "uint256",
					"name": "",
					"type": "uint256"
				},
				{
					"internalType": "address",
					"name": "",
					"type": "address"
				}
			],
			"name": "deposits",
			"outputs": [
				{
					"internalType": "uint256",
					"name": "",
					"type": "uint256"
				}
			],
			"stateMutability": "view",
			"type": "function"
		},
		{
			"inputs": [],
			"name": "donateETH",
			"outputs": [],
			"stateMutability": "payable",
			"type": "function"
		},
		{
			"inputs": [
				{
					"internalType": "address",
					"name": "_l1Token",
					"type": "address"
				},
				{
					"internalType": "address",
					"name": "_l2Token",
					"type": "address"
				},
				{
					"internalType": "address",
					"name": "_from",
					"type": "address"
				},
				{
					"internalType": "address",
					"name": "_to",
					"type": "address"
				},
				{
					"internalType": "uint256",
					"name": "_amount",
					"type": "uint256"
				},
				{
					"internalType": "bytes",
					"name": "_data",
					"type": "bytes"
				}
			],
			"name": "finalizeERC20Withdrawal",
			"outputs": [],
			"stateMutability": "nonpayable",
			"type": "function"
		},
		{
			"inputs": [
				{
					"internalType": "uint256",
					"name": "_chainid",
					"type": "uint256"
				},
				{
					"internalType": "address",
					"name": "_l1Token",
					"type": "address"
				},
				{
					"internalType": "address",
					"name": "_l2Token",
					"type": "address"
				},
				{
					"internalType": "address",
					"name": "_from",
					"type": "address"
				},
				{
					"internalType": "address",
					"name": "_to",
					"type": "address"
				},
				{
					"internalType": "uint256",
					"name": "_amount",
					"type": "uint256"
				},
				{
					"internalType": "bytes",
					"name": "_data",
					"type": "bytes"
				}
			],
			"name": "finalizeERC20WithdrawalByChainId",
			"outputs": [],
			"stateMutability": "nonpayable",
			"type": "function"
		},
		{
			"inputs": [
				{
					"internalType": "address",
					"name": "_from",
					"type": "address"
				},
				{
					"internalType": "address",
					"name": "_to",
					"type": "address"
				},
				{
					"internalType": "uint256",
					"name": "_amount",
					"type": "uint256"
				},
				{
					"internalType": "bytes",
					"name": "_data",
					"type": "bytes"
				}
			],
			"name": "finalizeETHWithdrawal",
			"outputs": [],
			"stateMutability": "nonpayable",
			"type": "function"
		},
		{
			"inputs": [
				{
					"internalType": "uint256",
					"name": "_chainid",
					"type": "uint256"
				},
				{
					"internalType": "address",
					"name": "_from",
					"type": "address"
				},
				{
					"internalType": "address",
					"name": "_to",
					"type": "address"
				},
				{
					"internalType": "uint256",
					"name": "_amount",
					"type": "uint256"
				},
				{
					"internalType": "bytes",
					"name": "_data",
					"type": "bytes"
				}
			],
			"name": "finalizeETHWithdrawalByChainId",
			"outputs": [],
			"stateMutability": "nonpayable",
			"type": "function"
		},
		{
			"inputs": [
				{
					"internalType": "uint256",
					"name": "_chainid",
					"type": "uint256"
				},
				{
					"internalType": "address",
					"name": "_from",
					"type": "address"
				},
				{
					"internalType": "address",
					"name": "_to",
					"type": "address"
				},
				{
					"internalType": "uint256",
					"name": "_amount",
					"type": "uint256"
				},
				{
					"internalType": "bytes",
					"name": "_data",
					"type": "bytes"
				}
			],
			"name": "finalizeMetisWithdrawalByChainId",
			"outputs": [],
			"stateMutability": "nonpayable",
			"type": "function"
		},
		{
			"inputs": [
				{
					"internalType": "address",
					"name": "_l1messenger",
					"type": "address"
				},
				{
					"internalType": "address",
					"name": "_l2TokenBridge",
					"type": "address"
				},
				{
					"internalType": "address",
					"name": "_metis",
					"type": "address"
				},
				{
					"internalType": "address",
					"name": "_addressmgr",
					"type": "address"
				}
			],
			"name": "initialize",
			"outputs": [],
			"stateMutability": "nonpayable",
			"type": "function"
		},
		{
			"inputs": [],
			"name": "l2TokenBridge",
			"outputs": [
				{
					"internalType": "address",
					"name": "",
					"type": "address"
				}
			],
			"stateMutability": "view",
			"type": "function"
		},
		{
			"inputs": [],
			"name": "messenger",
			"outputs": [
				{
					"internalType": "address",
					"name": "",
					"type": "address"
				}
			],
			"stateMutability": "view",
			"type": "function"
		},
		{
			"inputs": [],
			"name": "metis",
			"outputs": [
				{
					"internalType": "address",
					"name": "",
					"type": "address"
				}
			],
			"stateMutability": "view",
			"type": "function"
		}
	]
}